:100000000C9404030C942C030C942C030C942C03DC
:100010000C942C030C942C030C942C030C94AA2702
:100020000C942C030C942C030C942C030C94CE28CD
:100030000C942C030C942C030C942C030C942C0384
:100040000C9484280C942C030C9452280C942C2887
:100050000C942C030C942C030C942C030C942C0364
:100060000C942C030C942C030000000023002600A9
:10007000290000000008000201000003040700003E
:1000800000000000000000000000250028002B00F8
:100090000200000000240027002A000102040810CA
:1000A00020408001020408102001020408102004EE
:1000B000040404040404040202020202020303030F
:1000C0000303034602000000FF0800053E5B4F5B90
:1000D0003E053E6B4F6B3E051C3E7C3E1C05183CAE
:1000E0007E3C18051C577D571C051C5E7F5E1C045A
:1000F00000183C1805FFE7C3E7FF040018241805A3
:10010000FFE7DBE7FF0530483A060E052629792987
:100110002605407F05050705407F05253F055A3C1C
:10012000E73C5A057F3E1C1C0805081C1C3E7F0549
:1001300014227F221405FFFFFFFFFF05F0F0F0F00F
:10014000F003FFFFFF05000000FFFF050F0F0F0F7B
:100150000F0508047E04080510207E2010050808FD
:100160002A1C0805081C2A080805AA005500AA052B
:10017000AA55AA55AA0530383E383005060E3E0E5F
:1001800006020000015F0307000705147F147F14B7
:1001900005444AFF4A32056313086463053649493A
:1001A00036480107033E41410341413E05082A1CF0
:1001B0002A080508083E08080260E0040808080844
:1001C000026060056010080403053E5149453E0386
:1001D000427F40057149494946054149494936052B
:1001E0000F0808087F054F49494931053E494949EB
:1001F0003005030101017F053649494936050649A5
:1002000049493E026C6C026CEC030814220414147D
:10021000141403221408050159090906053E415D1D
:10022000594E057E0909097E057F49494936053E33
:1002300041414141057F4141413E057F4949494195
:10024000057F09090901053E41414979057F0808F3
:10025000087F03417F4105304141413F057F08143C
:100260002241057F40404040057F020C027F057F10
:100270000408107F053E4141413E057F09090906FA
:10028000053E4141617E057F0919294605464949D8
:1002900049310501017F0101053F4040403F051FF5
:1002A0002040201F053F4038403F05631408146379
:1002B000050304780403056151494543037F414127
:1002C0000503040810600341417F05040201020494
:1002D000048080808003010204043844447C047F4D
:1002E0004444380438444444043844447F04385473
:1002F000545804047E05010418A4A47C047F04045B
:1003000078017D0384857C047F102844017F057C6F
:1003100004780478047C040478043844443804FCE9
:1003200024241804182424FC047C040408045854CD
:10033000543403047F04043C40407C041C20407C73
:10034000053C4030403C046C10106C041CA0A07CA8
:10035000046454544C0408364141017F0441413641
:10036000080402010201057F4141417F053E5555C8
:100370005541053844443844057C2A2A3E14057EFC
:100380000202060605027E027E02056355494163AC
:10039000053844443C0405407E201E200506027EAC
:1003A0000202086313086463006060052A2A2A2A8F
:1003B0002A03514A4403444A51050000FF01030344
:1003C000E080FF05361236243603020502021818B3
:1003D000021010053040FF0101041F01011E000042
:1003E00000000901017F017F020C027F0000000074
:1003F00000000100017D0418247E2404447E454150
:1004000005221C141C2205012A7C2A010177044EB6
:1004100055553903020002077E81BDA5A5817E03E3
:1004200026292F0508142A1422040808081803088E
:100430000808077E81BD95A9817E050101010101A2
:100440000302050203242E24031915120315150AAD
:1004500002020104F82040780506097F017F021896
:1004600018040080A0C003121F10032629260522AD
:10047000142A140808402F1008041E117C08402F6D
:1004800010080462554C0915553F1008041E117CD4
:10049000053048484D40057815161478057814162F
:1004A0001578057A1514157A0578161516790578D4
:1004B00015141578057814151478077E09097F49F5
:1004C0004941059EA1612121057C54554644057C86
:1004D00054564544057E55544546057C555445447F
:1004E00003457E4403447E4503467D4603457C45E3
:1004F00005087F49413E057C0A11227D05384445A7
:100500004638053844464538053A4544453A0538A5
:100510004645463905384544453805221408142215
:10052000057C625A463E053C4041423C053C404207
:10053000413C053C4241423C053C4140413C0502B6
:10054000047A0502043F12120C057E49494E30041C
:100550003845467C043844467D043846457E043A96
:1005600045467D043845447D04304A4D7A07205481
:100570005438545458049CA26222043855565804E6
:1005800038545659043856555A04385554590201AE
:100590007A027A01030279020302780204304B4B9B
:1005A0003C047A090A710430494A300430484A311F
:1005B00004304A49320432494A3104394444390545
:1005C00008082A08080438544C3804384142780492
:1005D00038404279043842417A043A40407A04185B
:1005E000A0A27904FC282810041AA0A07A1824429A
:1005F0008199189918A55A81182442811899189937
:1006000024429900CF29403111241FBECFEFD8E0FA
:10061000DEBFCDBF13E0A0E0B1E0ECEDFCE602C030
:1006200005900D92AE34B107D9F725E0AEE4B3E002
:1006300001C01D92A03DB207E1F713E0C3E0D3E093
:1006400004C02197FE010E944E34C230D107C9F781
:100650000E94742A0C9461360C940000CF92DF92B1
:10066000EF92FF92DC01A03282E0B807D4F5A53BFF
:10067000B10514F0A4EBB0E040919D0428E830E00F
:10068000241B310947FD3395220F331F220F331FDF
:100690006901330FEE08FF0840919E0428E532E01F
:1006A000241B310947FD3395220F331F220F331FBF
:1006B000032E000C440B550B2C193D094E095F0904
:1006C000B7FF02C0B0E0A0E00E94883324EB30E026
:1006D00040E050E00E945E33C20ED31EE41EF51EC1
:1006E000D601E0919C04EC3080F520919D0488E8CF
:1006F00090E0821B910927FD9395880F991F880F21
:10070000991FA817B90784F020919E0488E592E00C
:10071000821B910927FD9395880F991F880F991FB8
:10072000A817B9070CF4CD010297880F991F4FB78E
:10073000F8942E2F30E0F901EE0FFF1FE20FF31FA8
:10074000E958FB4F928381834FBFFF90EF90DF907A
:10075000CF900895829590E09C0135952795359529
:1007600027952373880F991F880F991F8C7C282B3E
:1007700030E0C901959587958575220F331F2A7A38
:10078000822B0895CF93DF93262F2695382F70E084
:10079000680F791FFC018E2F831B821750F4819103
:1007A00061507109DB019C91EF01219798838C9333
:1007B000F2CFDF91CF910895482FFC018E2F841B3B
:1007C0008617E0F4219130E0C901959587958575EC
:1007D000220F331F2A7A822B90E09C0135952795B2
:1007E000359527952373880F991F880F991F8C7C47
:1007F000822B8295DF0111978C93E0CF0895AF9201
:10080000BF92CF92DF92EF92FF920F931F93CF93FD
:10081000DF936C017B018B01040F151FEB015E015F
:10082000AE18BF08C017D10759F06991D601ED91F4
:10083000FC910190F081E02DC6010995892B79F793
:10084000C501DF91CF911F910F91FF90EF90DF9045
:10085000CF90BF90AF900895FC01538D448D252F0C
:1008600030E0842F90E0821B930B541710F0CF964A
:10087000089501970895FC01918D828D981761F07C
:10088000A28DAE0FBF2FB11D5D968C91928D9F5F93
:100890009F73928F90E008958FEF9FEF0895FC0172
:1008A000918D828D981731F0828DE80FF11D858D25
:1008B00090E008958FEF9FEF0895FC01918D228DB8
:1008C000892F90E0805C9F4F821B91098F7399273D
:1008D00008958AED93E00E945D0421E0892B09F4DC
:1008E00020E0822F089580E090E0892B29F00E947B
:1008F000690481110C9400000895FC01A48DA80FD7
:10090000B92FB11DA35ABF4F2C91848D90E0019651
:100910008F739927848FA689B7892C93A089B18971
:100920008C91837080648C93938D848D981306C012
:100930000288F389E02D80818F7D80830895EF9276
:10094000FF920F931F93CF93DF93EC0181E0888F89
:100950009B8D8C8D98131AC0E889F989808185FF59
:1009600015C09FB7F894EE89FF896083E889F989FB
:1009700080818370806480839FBF81E090E0DF91FD
:10098000CF911F910F91FF90EF900895F62E0B8D50
:1009900010E00F5F1F4F0F731127E02E8C8D8E110B
:1009A0000CC00FB607FCFACFE889F989808185FF72
:1009B000F5CFCE010E947D04F1CFEB8DEC0FFD2F22
:1009C000F11DE35AFF4FF0829FB7F8940B8FEA892D
:1009D000FB8980818062CFCFCF93DF93EC01888D3C
:1009E0008823B9F0AA89BB89E889F9898C9185FDAA
:1009F00003C0808186FD0DC00FB607FCF7CF8C9138
:100A000085FFF2CF808185FFEDCFCE010E947D046E
:100A1000E9CFDF91CF91089590E0FC01EE58FF4FB0
:100A20002491FC01E556FF4F3491FC01E155FF4F45
:100A3000E491EE23C9F0222339F0233001F1A8F428
:100A4000213019F1223029F1F0E0EE0FFF1FEA57B3
:100A5000FF4FA591B4918FB7F894EC91611126C026
:100A600030953E233C938FBF08952730A9F028305E
:100A7000C9F0243049F7809180008F7D03C08091B8
:100A800080008F7780938000DFCF84B58F7784BD1F
:100A9000DBCF84B58F7DFBCF8091B0008F778093C3
:100AA000B000D2CF8091B0008F7DF9CF3E2BDACF4E
:100AB000CF93DF9390E0FC01E556FF4F24918155E1
:100AC0009F4FFC0184918823D1F090E0880F991FFB
:100AD000FC01EF56FF4FA591B491FC01EA57FF4F7F
:100AE000C591D49161110EC09FB7F8948C91E22FFB
:100AF000E0958E238C932881E223E8839FBFDF91CA
:100B0000CF9108958FB7F894EC91E22BEC938FBFBF
:100B1000F6CF4F925F926F927F928F929F92AF9299
:100B2000BF92CF92DF92EF92FF920F931F93CF93DA
:100B30008B0149015A0190910001891799F09F3F5B
:100B400009F454C0CF911F910F91FF90EF90DF9067
:100B5000CF90BF90AF909F908F907F906F905F905D
:100B60004F900895E0E9F0E0C491C7FDEBCF61E05C
:100B70000E945805CC2319F0C23009F0F3C02801B7
:100B8000712C612C68E478EE81E090E0A30198017B
:100B90000E945E3369017A0181E0C81AD108E10838
:100BA000F108CC2309F419C1C23009F098C08FEFC5
:100BB000C816D104E104F10409F00CF4D1C064E2D8
:100BC00074EF80E090E0A30198010E945E33690118
:100BD0007A0181E0C81AD108E108F10895E0809116
:100BE000B100887F892B8093B10097C0809300016A
:100BF000E0E9F0E0C491CF3F09F4A4CFC13039F16E
:100C000048F0C23009F445C0C7FD9CCF61E00E94A6
:100C10005805B2CF14BC15BC94B5926094BD95B57F
:100C2000916095BD282F30E0F901E155FF4FE49127
:100C3000F0E0EE0FFF1FEA57FF4F45915491F90185
:100C4000E556FF4FE491E0936203C0E090CF10922D
:100C500080001092810090918100986090938100B3
:100C600090918100916090938100282F30E0F901EC
:100C7000E155FF4FE491F0E0EE0FFF1FEA57FF4F01
:100C800045915491F901E556FF4FE491E0936103DA
:100C90006ECF1092B0001092B1009091B0009260AF
:100CA0009093B0009091B10091609093B100282F83
:100CB00030E0F901E155FF4FE491F0E0EE0FFF1F46
:100CC000EA57FF4F4591549150936C0340936B0347
:100CD000F901E556FF4FE491E0936D0348CF8FEFA4
:100CE000C816D104E104F104D9F1D4F162E17AE744
:100CF00080E090E0A30192010E945E3369017A01D5
:100D000081E0C81AD108E108F108C11170C094E06F
:100D100085B5887F892B85BDC0E0D801AA0FBB1F90
:100D2000A50194010E947D3328EE33E040E050E0BD
:100D30000E94C733C13079F1C23009F43EC0C111FD
:100D400001CFC7BC209367033093680340936903C6
:100D500050936A0380916E00826080936E00F2CEA1
:100D600094E03DCF980150E040E060E072E18AE716
:100D700090E00E945E3369017A0181E0C81AD108CF
:100D8000E108F108C13049F680918100887F8160D7
:100D900080938100C2CFD0928900C09288002093B6
:100DA000630330936403409365035093660380911B
:100DB0006F00826080936F00C5CEC092B300209315
:100DC0006E0330936F0340937003509371038091CF
:100DD0007000826080937000B5CE93E08FEFC816EC
:100DE000D104E104F10411F00CF080CF91CF96E032
:100DF000F6CE8E3008F08E508770806480937C0031
:100E000080917A00806480937A0080917A0086FDD8
:100E1000FCCF809178009091790008953FB7F894C5
:100E200080915D0390915E03A0915F03B091600398
:100E300026B5A89B05C02F3F19F00196A11DB11D35
:100E40003FBFBA2FA92F982F8827BC01CD01620F71
:100E5000711D811D911D42E0660F771F881F991F2C
:100E60004A95D1F708958F929F92AF92BF92CF92F9
:100E7000DF92EF92FF924B015C010E940E076B0123
:100E80007C010E940E076C197D098E099F09683E3E
:100E9000734081059105A8F321E0821A9108A10809
:100EA000B10888EEC80E83E0D81EE11CF11C811445
:100EB0009104A104B10429F7FF90EF90DF90CF9047
:100EC000BF90AF909F908F900895CF92DF92EF9256
:100ED000FF921F93CF93DF93DC0156961C92569797
:100EE00088E057968C93579758961C9258975A9625
:100EF0001C921E9259978FEF90E05C969C938E9374
:100F00005B975E961C921E925D9754968D919C9174
:100F10005597009709F478C0FC012491263409F014
:100F200031C03196E491E13009F453C022E030E061
:100F3000E23021F5FC01329624913196E49130E0C3
:100F4000322F22272E0F311D5A963C932E935997FC
:100F5000FC01349624913196E49130E0322F22271F
:100F60002E0F311D5C963C932E935B97FC013696B9
:100F7000E4915796EC93579727E030E05E963C93C8
:100F80002E935D975D96CD90DC905E97F12CE12CD1
:100F900059962D913C915A975B96CD91DC915C9737
:100FA00010E0C217D30770F1FC01EC0DFD1D449158
:100FB000141708F4142F50E070E060E04F5F5F4FAB
:100FC0006F4F7F4FC40ED51EE61EF71E2F5F3F4F9B
:100FD000E8CFFC013296E491F0E05A96FC93EE9350
:100FE0005997FC013396E491F0E05C96FC93EE9304
:100FF0005B97FC013496E4915796EC93579725E064
:1010000030E0BCCF58961C93DF91CF911F91FF9099
:10101000EF90DF90CF900895FC018185681738F537
:101020002285338579E0679F200D311D112484814D
:1010300050E09381992371F0882331F087E090E0AC
:10104000FC01E41BF50BAF01240F351FF901808172
:101050000C94AA03882331F087E090E0BC01641B64
:10106000750BAB01240F351FF9018081089580E0D5
:1010700008958F929F92AF92BF92CF92DF92EF929C
:10108000FF92CF93DF93FC01242F30E083818823EC
:1010900009F447C087E090E0821B930B91E001C008
:1010A000990F8A95EAF78185681708F040C0228574
:1010B0003385A90189E0689F400D511D1124BA01B3
:1010C000E48130E020E080E0A7E0B0E0C12CD12C4A
:1010D0007601C394F22FAD01421B530BE11101C005
:1010E000A901460F571FEA014881492351F04601E3
:1010F000570104C0880C991CAA1CBB1CFA95D2F796
:1011000088292F5F3F4F2830310521F7DF91CF919C
:10111000FF90EF90DF90CF90BF90AF909F908F9017
:10112000089591E001C0990F4A95EAF7BCCF80E09D
:10113000EDCFFC01228121110C9439080C940C088C
:10114000462F47706695669566950C949908CF93DF
:10115000DF9300D0CDB7DEB769831A82DC01ED9151
:10116000FC910084F185E02DBE016F5F7F4F0995F2
:1011700081E090E00F900F90DF91CF910895089556
:1011800090E080E00895FC01828D968DA4A5B5A520
:1011900091FD15C0882381F0868997890597A9F468
:1011A00081E022A533A52A173B0709F080E086A736
:1011B0001197B5A7A4A70895808D918DEFCF8823AF
:1011C00079F086899789059759F7CD01019695A7FA
:1011D00084A781E011969C91911180E086A70895E3
:1011E000808D918DF0CFFC018489958982309105A5
:1011F00091F42189328934A323A337A326A3823013
:10120000910561F42785308931A720A7029749F01D
:101210008FEF85A3089527853089EDCF2189328905
:10122000F3CF81E0F6CF2AEF30E040E050E068E80D
:1012300071E088E00E9489052AEF30E040E050E04C
:1012400068EB71E088E00C948905CF92DF92EF9211
:10125000FF920F931F93CF93DF93EC018885882330
:10126000A1F080915A03882361F08FB7F894909190
:101270005A03913041F59DB3909359039DB39DBBA3
:101280008FBF80E58CBD81E08DBD60E08F810E94C5
:101290000C0588858823D1F030E020E0898590E036
:1012A000880F991F28173907C8F5EC85FD85E20FCF
:1012B000F31F80818EBD00000DB407FEFDCF8EB5FB
:1012C0002F5F3F4FEBCF80935903DBCF10E000E05F
:1012D000898590E0880F991F08171907F8F4EC85A5
:1012E000FD85E00FF11FE080DE80CD8088E0F82EE4
:1012F0006E2D661F6627661F8C2D0E940C05EE0C56
:1013000061E08D2D0E940C0560E08D2D0E940C0582
:10131000FA94F110EDCF0F5F1F4FDACF61E08F81AC
:101320000E940C058885882371F080915A038823D8
:1013300051F09FB7F89420915A03809159032130BE
:1013400059F48DBB9FBFDF91CF911F910F91FF90FB
:10135000EF90DF90CF9008958FBFF5CFFB01019004
:101360000020E9F73197AF01461B570BDC01ED91E7
:10137000FC910280F381E02D0994CF93DF93FC016F
:1013800044815581608171818AED93E00E94FF0361
:10139000EC0163EF72E08AED93E00E94AE098C0FDE
:1013A0009D1FDF91CF9108958F929F92AF92BF9230
:1013B000EF92FF920F931F93CF93DF93CDB7DEB7DA
:1013C000A1970FB6F894DEBF0FBECDBF7C01FA0126
:1013D000CB0119A2223008F42AE08E010F5D1F4FC5
:1013E000822E912CB12CA12CBF01A50194010E9449
:1013F000C733F901CA016A300CF5605DD8016E93FC
:101400008D01232B242B252B79F790E080E010977A
:1014100021F0BD01C7010E94AE09A1960FB6F89454
:10142000DEBF0FBECDBFDF91CF911F910F91FF9017
:10143000EF90BF90AF909F908F900895695CDECF42
:101440000F931F93CF93DF93EC01888199810097CD
:1014500059F02A813B812617370730F081E0DF9170
:10146000CF911F910F9108958B016F5F7F4F0E9465
:101470008D35009759F0998388831B830A832C81CB
:101480003D81232B59F7FC011082E8CF80E0E7CFA4
:10149000CF93DF93EC0188819981009711F00E942E
:1014A0000435198218821D821C821B821A82DF91E8
:1014B000CF910895EF92FF920F931F93CF93DF93F5
:1014C000EC017B01198218821B821A821D821C8208
:1014D000FB0101900020E9F731978F01061B170BE4
:1014E000B8010E94200A811109C0CE01DF91CF917D
:1014F0001F910F91FF90EF900C94480A1D830C836D
:10150000B70188819981DF91CF911F910F91FF9051
:10151000EF900C945A36CF92DF92EF92FF920F9396
:101520001F93CF93DF93CDB7DEB762970FB6F894D2
:10153000DEBF0FBECDBF8C01CB01F801118210823E
:1015400013821282158214824AE09E012F5F3F4F60
:101550006901B9010E942E32F60101900020E9F7DD
:1015600031977F01EC18FD08B701C8010E94200ADD
:10157000811112C0C8010E94480A62960FB6F89401
:10158000DEBF0FBECDBFDF91CF911F910F91FF90B6
:10159000EF90DF90CF900895F801F582E482B601D4
:1015A000808191810E945A36E8CFEF92FF920F938B
:1015B0001F93CF93DF93EC01FB01E080F180E114F6
:1015C000F10411F10481158101151105A9F08C8137
:1015D0009D81080F191FB801CE010E94200A88239F
:1015E00099F0288139818C819D81B701820F931FE9
:1015F0000E945A361D830C83CE01DF91CF911F913B
:101600000F91FF90EF900895CE010E94480AF4CF09
:10161000FC0180819181009711F00C9404350895AC
:101620001F93CF93DF93EC01A881B98158961C9149
:101630008CA9180F89A9811768F48AA99BA900971A
:1016400011F00E94043519AB812F90E00E9468349C
:101650009BAB8AABDF91CF911F910895FC0141852F
:1016600050E0440F551F70E060E0848595850C9430
:101670005336BF92CF92DF92EF92FF920F931F9358
:10168000CF93DF93FC012185621708F04EC0EC0177
:10169000F9E06F9F70011124D12CC12C062F10E0AE
:1016A000BB24B394BC0CEA85FB85EE0DFF1D808541
:1016B00090E00C2C02C0959587950A94E2F780FF84
:1016C00027C0CE010E942E0B89858150990B801B6B
:1016D000910B880F991F2C853D85820F931FFC016C
:1016E000B082EA85FB85EE0DFF1DEC0DFD1D4081EE
:1016F00089858150990B801B910B880F991F2C8530
:101700003D85820F931FFC014183CE010E94250974
:10171000FFEFCF1ADF0A88E0C816D10409F68A85E0
:101720009B85E80EF91EF7011086DF91CF911F917E
:101730000F91FF90EF90DF90CF90BF9008950F939F
:101740001F93CF93DF93EC01162F042F822F9B81E1
:1017500091110E94AA0399E0199F90011124AA8572
:10176000BB85A20FB31F602F70E09C8147E050E063
:10177000461B570B911101C0AB01A40FB51F8C93F1
:10178000EA85FB85E20FF31F20858C818823F1F029
:1017900047E050E0461B570B81E090E0A0E0B0E04E
:1017A00004C0880F991FAA1FBB1F4A95D2F7822B2E
:1017B00080878A89882321F0612FCE010E94390B0E
:1017C00081E0DF91CF911F910F91089581E090E02A
:1017D000A0E0B0E004C0880F991FAA1FBB1F0A95A4
:1017E000D2F7E5CF9F92AF92BF92CF92DF92EF9266
:1017F000FF920F931F93CF93DF93FC0189E0689FC3
:10180000E001112481E090E0A0E0B0E06C017D01F6
:10181000042E04C0CC0CDD1CEE1CFF1C0A94D2F775
:10182000BC2C7C2D709507E010E0041B110904C04E
:10183000880F991FAA1FBB1F0A95D2F7A82E382F11
:10184000309590E080E0022F10E027E0E22EF12CAE
:10185000AC01A285B385AC0FBD1F248193806801C4
:10186000082E02C0D594C7940A94E2F7C0FE2AC09D
:10187000222319F0A701481B590BA40FB51F2C9167
:101880004B2D91104A2D242B2C93019688309105D5
:10189000F9F682859385C80FD91F8FEF88878289D3
:1018A000882319F0CF010E94390B81E0DF91CF919D
:1018B0001F910F91FF90EF90DF90CF90BF90AF906E
:1018C0009F900895222319F0A701481B590BA40FDC
:1018D000B51F2C91472F9110432F2423D5CFFC0106
:1018E00052813185552321F0631730F40C94F20BAB
:1018F000631710F40C949F0B80E00895242F462F5B
:10190000477033E0769567953A95E1F70C946F0C44
:10191000FC0152813185552331F0631750F4483072
:1019200041F00C949F0B631720F4483011F00C9495
:10193000F20B80E00895CF92DF92EF92FF920F9327
:101940001F93CF93DF93FC01722F828151858823EF
:1019500009F45DC0651708F0BEC0283009F4BBC0AB
:1019600009E0609F70011124828593858E0D9F1D73
:1019700050E0A22FB0E024812223B9F127E030E02B
:10198000E901C41BD50BAE012A1B3B0B480F591FA5
:10199000EA014881820F931FEC0148838285938579
:1019A000E701C80FD91F28858481882301F147E00A
:1019B00050E04A1B5B0B81E090E0A0E0B0E004C087
:1019C000880F991FAA1FBB1F4A95D2F7822B8887C1
:1019D0008289811118C081E0DF91CF911F910F9111
:1019E000FF90EF90DF90CF9008959D01CFCF81E0E1
:1019F00090E0A0E0B0E004C0880F991FAA1FBB1FB1
:101A00007A95D2F7E3CFCF010E94390BE4CFA42F10
:101A1000B0E09381992309F44FC027E030E02A1BFE
:101A20003B0B91E001C0990F2A95EAF76517A0F6E4
:101A3000783091F2D9E06D9FA001112401E010E00F
:101A400020E030E068017901072E04C0CC0CDD1CD9
:101A5000EE1CFF1C0A94D2F7DC2DCC2DC095A7E01C
:101A6000B0E0A71BB10904C0000F111F221F331FD4
:101A7000AA95D2F7F02E009530E020E0A285B3853C
:101A8000A40FB51FA20FB31F8C917381182F1923B8
:101A9000D9F0711117C07D2F872B8C932F5F3F4F8B
:101AA0002830310559F782859385480F591F8FEFEC
:101AB000DA0118968C938CCF91E001C0990F4A956A
:101AC000EAF7B4CF7F2DE8CF711103C07C2F8723B5
:101AD000E4CF702FFCCF80E07FCF8F929F92AF92A8
:101AE000BF92CF92DF92FF920F931F93CF93DF931A
:101AF000CDB7DEB728970FB6F894DEBF0FBECDBFC7
:101B00004830510508F0CBC1FA01F62E8C01E5579B
:101B1000F24F0C944E34930DE40D1B0E550E900EA7
:101B2000D50E190F390F29E0629FA0011124DC01A5
:101B300012968C918823C9F130E020E0D8011A96E2
:101B4000ED91FC911B97E40FF51FE20FF31F8081CD
:101B500013969C91992339F190E095958795808310
:101B60002F5F3F4F2830310549F7D8011A96ED9184
:101B7000FC91B9E0FB9EE00DF11D11248FEF8087F1
:101B800081E028960FB6F894DEBF0FBECDBFDF917F
:101B9000CF911F910F91FF90DF90CF90BF90AF90AA
:101BA0009F908F900895880FDACF87E090E0D8015A
:101BB0001A96ED91FC91E40FF51FE80FF91F2081B3
:101BC00021830197A0F7D1CFE9E06E9F9001112406
:101BD000DC0112968C918823E1F050E040E0D801BE
:101BE0001A96ED91FC911B97E20FF31FE40FF51F7E
:101BF000808113969C91992341F0880F80834F5FD9
:101C00005F4F4830510559F7B0CF90E095958795D3
:101C1000F5CF81E090E0D8011A96ED91FC91E20FAA
:101C2000F31FE80FF91F40813197408301968830F8
:101C3000910589F79ACFFC01D28083898823F9F036
:101C400040E0C801DD20C1F00E940C088983DD203E
:101C5000C1F020E0DD24D394D20E4D2D6F2DC801AC
:101C60000E949B0C2D2D2730A9F7298147E06F2D6D
:101C7000C8010E94880C79CF0E943908E7CF1982E9
:101C8000E6CFF9E0FF9EA001112487E090E0D801A3
:101C90001A96ED91FC91E40FF51FE80FF91F2081D2
:101CA000220F2083019798F7E0CFFC01D28083892F
:101CB0008823D9F047E0C801DD20A1F00E940C087C
:101CC0008983DD20A1F028E0DD24DA94D20E4D2DA9
:101CD0006F2DC8010E949B0C2D2DD110F5CF2981AD
:101CE00040E0C5CF0E943908EBCF1982EACFF9E076
:101CF000FF9EA001112430E020E0D8011A96ED915A
:101D0000FC91E40FF51FE20FF31F808190E09595A1
:101D1000879580832F5F3F4F2830310571F7DFCFE4
:101D2000B9E06B9F60011124FC0182818823C1F01E
:101D3000912C812CD8011A96AD90BC90AC0CBD1C96
:101D4000A80CB91CF50180810E94AA03D5018C93CF
:101D5000BFEF8B1A9B0AE8E08E16910459F705CF66
:101D600030E020E047E050E0D8011A968D919C9138
:101D70008C0D9D1DFC01E20FF31FB080BA01621BA8
:101D8000730B860F971FDC018C918083D8011A9604
:101D9000ED91FC91EC0DFD1DE60FF71FB0822F5F5A
:101DA0003F4F2430310501F7E0CEB9E06B9F400191
:101DB0001124FC018281882329F130E020E047E0F2
:101DC00050E0D8011A968D919C91880D991DFC01C7
:101DD000E20FF31FD080BA01621B730B860F971FAF
:101DE000DC018C918083D8011A96ED91FC91E80D6D
:101DF000F91DE60FF71FD0822F5F3F4F24303105CA
:101E000001F7B3CEB12CA12CF801C284D384C80C45
:101E1000D91CCA0CDB1CD6018C910E94AA03F601C6
:101E20008083FFEFAF1ABF0A28E0A216B10461F762
:101E30009CCECE0101965C014C0187E0D82E4D2D41
:101E40006F2DC8010E949908D4018D934D01DA9439
:101E5000BFEFDB12F4CFD12CF50121915F014D2DA5
:101E60006F2DC8010E94880CD394F8E0DF12F4CFE4
:101E70007CCE29E0629FA001112490E080E0D8018F
:101E80001A96ED91FC91E40FF51FE80FF91F2081E0
:101E90002095208301968830910589F766CE80E0F1
:101EA00070CECF92DF92EF92FF920F931F93CF935A
:101EB000DF93EC01DD24D394F12CE12C01E010E060
:101EC000B9E0CB2ECE010E942E0B98010E2C02C041
:101ED000220F331F0A94E2F7E0E090E08985E817CB
:101EE00098F5EC9DA0011124AA85BB85A40FB51F10
:101EF00018966C9170E062237323672B19F16E2F93
:101F000070E08150990B861B970B880F991FAC8549
:101F1000BD85A80FB91FDC92AA85BB85A40FB51F8C
:101F2000AE0DBF1DFC9189858150990B861B970BC7
:101F3000880F991F4C855D85840F951FDC011196D4
:101F4000FC9391E0EF5FCACF992319F0CE010E9474
:101F50002509BFEFEB1AFB0AD39488E0E816F104D9
:101F600009F0B0CF80E099E02985821748F4EA852E
:101F7000FB85899FE00DF11D112410868F5FF4CF42
:101F8000DF91CF911F910F91FF90EF90DF90CF9055
:101F90000895CF93DF93C9E078E05FEF4617B0F084
:101FA0006C9F90011124FC01A285B385A20FB31F81
:101FB000FD01D72F1192DA95E9F7DC011A96ED9120
:101FC000FC91E20FF31F50876F5FE8CFFC0122897D
:101FD000222321F0DF91CF910C94510FDF91CF910B
:101FE00008956F927F928F929F92AF92BF92CF92FD
:101FF000DF92EF92FF920F931F93CF93DF93CDB7B2
:10200000DEB729970FB6F894DEBF0FBECDBF8C01A7
:10201000E62EF42E5901461708F43DC1DC01529614
:10202000DC90529752961C922830310508F033C14B
:10203000F901E35EFF4E0C944E347010EC10421127
:1020400042112510421142114211642F70E0AE2C52
:10205000B12C4B018A189B0897FE03C0EFEF8E1A34
:102060009E0A95948794712C29E0C22E472D50E04A
:10207000481559050CF0FCC0F80122853385FA019A
:10208000EA0DFB1DCE9EC001CF9E900D1124820F44
:10209000931FFC01DE0111966C2C01900D926A9445
:1020A000E1F7FB01E41BF50BCE9EA001CF9E500D86
:1020B0001124F901E40FF51FDC018C2D01900D9224
:1020C0008A95E1F7F801A285B385A40FB51FFE013B
:1020D00031968C2D01900D928A95E1F77394C6CFBD
:1020E000DC0153968C91882341F1642F660F660FB3
:1020F000660F695FC8010E94A008C82EAE2CB12CE3
:102100008F2D0F2C000C990B8A159B0564F150E064
:1021100040E06F2DC8010E946D0D99249A949F0C88
:1021200047E0692DC8010E949908282F40E06F2DD3
:10213000C8010E946F0CF92CE3CFF801A088B18888
:10214000A114B10471F0642F660F660F660F695F0A
:10215000C8010E94A008482F70E060E08F2DF501B3
:102160000995C12CCBCFD8011E96ED91FC911F97FC
:10217000309749F053968C91811105C070E060E072
:102180008E2D0995C82EB50183E0660F771F8A95BD
:10219000E1F74C2DC8010E947E0CD8015296DC92CA
:1021A000DD2009F47AC0C8010E94510F8D2D2996B7
:1021B0000FB6F894DEBF0FBECDBFDF91CF911F9158
:1021C0000F91FF90EF90DF90CF90BF90AF909F90D6
:1021D0008F907F906F900895FC0183898823A9F1E7
:1021E000660F660F660FC8010E94A008C82E41E066
:1021F00050E06E2DC8010E946D0DBB24B394BE0C3F
:1022000040E06B2DC8010E949908282F47E06E2DF1
:10221000C8010E946F0CEB2CFB1448F7D8011E96E6
:10222000ED91FC911F97309749F053968C91811155
:1022300005C061E070E08F2D0995C82EB8E0FB9EC7
:10224000B0011124695F7F4FA4CFA088B188A11489
:10225000B10461F0660F660F660FC8010E94A00806
:10226000482F61E070E08E2DF5010995C12CBFCF9C
:1022700044E050E06E2DC8010E946D0DE394FE1401
:10228000B8F78BCFA5016E2DC8010E946D0DE394A8
:10229000FE14C0F782CFD12C89CFDD24D39486CF12
:1022A000CF93DF93EC014AA169A1461720F0888102
:1022B00099810E94C90F8B8D882351F027E030E06F
:1022C0004AA169A188819981DF91CF910C94F10F86
:1022D000DF91CF910895CF92DF92EF92FF920F930B
:1022E0001F93CF93DF93EC01D62EC42E790180E0AB
:1022F0004617E0F02A30310508F069C0CE010E948F
:102300002E0B92E0E916F10409F453C0C0F4E11475
:10231000F10429F1F1E0EF16F10409F443C0D3947C
:10232000CD1478F7CE010E94250981E0DF91CF918D
:102330001F910F91FF90EF90DF90CF90089583E071
:10234000E816F104E9F194E0E916F10441F781E0BF
:102350000115110509F480E0819599E006C081E03E
:102360000115110509F080E09CE04D2D50E0298514
:102370002150330B241B350B220F331F6C857D85B9
:10238000260F371FF901908329852150330B241B19
:10239000350B220F331F4C855D85240F351FF90146
:1023A0008183BDCF802F083011050CF087E09BE0C2
:1023B000DCCF802F003111050CF08FE09AE0D5CFF3
:1023C00081E00115110509F480E09FE0CECF81E0A6
:1023D0000130110509F080E0FBE0EF16F10449F04F
:1023E0008A8B0130110509F0A0CFCE010E94510F58
:1023F0009CCF8B8B9ACF0F931F93FC01678F062F77
:1024000010E022E030E042A161A1808191810E9430
:102410006B111F910F9108950F931F939B018A01D8
:10242000FC014185415060E00E946B111F910F91AA
:102430000895CF92DF92EF92FF920F931F93CF9365
:10244000DF937C016B01EA01CA0101960E946834A6
:102450008C010097F1F0AE01B6010E944A36F801F6
:10246000EC0FFD1F1082D701ED91FC910084F185E6
:10247000E02DB801C7010995C8010E940435CE01BD
:10248000DF91CF911F910F91FF90EF90DF90CF9050
:102490000895D0E0C0E0F3CFCF92DF92EF92FF92A9
:1024A0000F931F93CF936C017B01C42F8901DC0133
:1024B0009F96ED91FC91309709F1808191818E1565
:1024C0009F05C1F40280F381E02D80818C1708F410
:1024D000C82F4C2F50E0BF016F5F7F4FC8010E9493
:1024E0004A368C2FCF911F910F91FF90EF90DF9084
:1024F000CF9008950480F581E02DDDCFF601808135
:10250000918120AD31ADDC0154964D915C91241741
:10251000350751F02115310511F423EC30E0FC01B1
:10252000358B248B0E9465070115110509F448C0FD
:10253000D6012D913C91F901858D968DB0E0A0E0FA
:10254000418D528DE416F506A0F1638D748D6E15E4
:102550007F0578F164897589FB01E80FF91FE4169E
:10256000F50659F0E4918E0F911DA11DB11D019644
:10257000A11DB11D4F5F5F4FEFCF4491C41710F500
:102580000196A11DB11DA801801B910B642F601B3A
:102590006C1708F0A6CFBC01640F751FD9015496C3
:1025A000ED91FC91E60FF71FE491DA01ED93AD0197
:1025B000EDCF4C2F50E070E060E0C8010E94533630
:1025C000C0E08FCFC491DCCF1F93CF93DF93EC019A
:1025D000142F2AA93BA949A90E944C12112389F062
:1025E000882379F090E02CA9921758F429A9821732
:1025F00030F4EAA9FBA9E80FF11D10828F5F9F5FFD
:10260000F2CFDF91CF911F9108950F931F93CF9336
:10261000DF93EC018B01ECA5FDA541E081818111E7
:1026200001C040E0608170E0CE010E94E412F80138
:1026300080832E8D9A8D21FD10C0992359F02E890B
:102640003F892530310581F4682F8AA99BA90E9412
:10265000C2030AC0288D398DF4CF9923B9F02E8991
:102660003F892530310581F78E8D80FF06C0F80146
:1026700060818AA99BA90E94DC03CE010E94C30845
:1026800081E0DF91CF911F910F910895288D398DB1
:10269000E8CF0F931F93CF93DF93EC01FB011082E0
:1026A000AAA5BBA5BDA7ACA7109719F08C91811165
:1026B00008C081E08EA780E0DF91CF911F910F913C
:1026C00008951EA68A8D9E8D91FD10C0882359F015
:1026D0008E899F89059781F40D900020E9F7129764
:1026E000BDA7ACA709C0888D998DF4CF882331F19F
:1026F0008E899F89059781F7ACA5BDA541E011960C
:102700008C911197811101C040E08B016C9170E0B8
:10271000CE010E94E412F80180832E8D9A8D21FD56
:1027200013C0992371F02E893F892530310599F422
:10273000682F8AA99BA90E94C2030DC0888D998D1C
:10274000D9CF288D398DF1CF992399F02E893F89E2
:102750002530310569F78E8D80FF06C0F801608154
:102760008AA99BA90E94DC03CE010E94C30881E0D4
:10277000A3CF288D398DECCFCF92DF92EF92FF92CD
:102780000F931F93CF93DF93EC010E945011CF84DE
:10279000D8887E0185E3E80EF11CB701CE010E94C6
:1027A00049131FAA1EAA860189899A890817190741
:1027B0007CF18DA92EA93FA98217130611F0811172
:1027C0000AC01DAA8EA5811104C0B701CE010E94C6
:1027D00005131FAA1EAA8DA9882331F38881998128
:1027E0004EA95FA99A012F5F3F4FEAA9FBA9E40F09
:1027F000F51F4B8D3FAB2EAB442341F040814095FC
:10280000B8010E947E0C01501109CECF4081F8CF53
:10281000DF91CF911F910F91FF90EF90DF90CF90BC
:102820000895FF920F931F93CF93DF93EC01F62E41
:102830008B859C85442309F462C08430910530F572
:10284000019758F18B859C85059721F483E090E0F2
:102850009C878B87CE010E94BC130BA11CA12DA1CC
:1028600088A599A5820F911D27FD9A95801791073C
:10287000E1F04B8D4195B801888199810E947E0CD1
:102880008DA1080F111D87FD1A95E9CF0597D1F28B
:1028900085E090E09C878B872CC0CE010E94F308D6
:1028A00083E090E09C878B87CDCFFF2069F06BA100
:1028B0007CA10617170741F04B8D81E04827419511
:1028C000888199810E947E0C8BA19CA12DA1022E52
:1028D000000C330B48A559A5420F531F84179507C9
:1028E00021F445E050E05C874B87820F931F9CA347
:1028F0008BA3DF91CF911F910F91FF9008958430AA
:10290000910500F5019700F1CE010E94BC130EA1C4
:102910001FA16BA17CA18DA1082E000C990B9B011E
:10292000280F391F20173107B9F04B8D4195B80199
:10293000888199810E947E0C8DA1080F111D87FD51
:102940001A95E7CF059751F5CE010E94F30883E071
:1029500090E09C878B87D8CFFF2079F028A539A5F8
:10296000820F931F6817790741F04B8D81E048274C
:102970004195888199810E947E0C8BA19CA12DA1FB
:10298000022E000C330B48A559A5420F531F841784
:10299000950709F0AACF46E050E0A5CF86E090E089
:1029A00079CFEF92FF920F931F93CF93DF93EC01B8
:1029B000F62E8B859C85442309F449C0843091050B
:1029C000C8F40197F0F0CE010E945011CE010E9490
:1029D000BC131BA1FF2031F193E0E92EF12C17303D
:1029E00028F597014AA169A1888199810E94F10F78
:1029F0001F5FF5CF059739F385E090E09C878B87C3
:102A00001FC01CA21BA210E000E02BE030E04AA196
:102A100069A1888199810E946B1183E090E09C8775
:102A20008B87D1CF82E0E82EF12CD9CF8BA19CA14E
:102A300025E030E08730910511F101969CA38BA32E
:102A4000DF91CF911F910F91FF90EF900895843007
:102A50009105C0F40197C0F08881998122E030E0AF
:102A6000F11002C023E030E04AA169A10E94F10FF9
:102A70008BA19CA18730910501F726E030E03C87CF
:102A80002B87DBCF059739F41CA21BA283E090E0D3
:102A90009C878B87E1CF86E090E0B0CFCF92DF922A
:102AA000EF92FF921F93CF93DF93EC01D42E8B858F
:102AB0009C85662309F458C084309105A8F50197D8
:102AC000D0F1CE010E94BC132BA13CA128303105CE
:102AD00069F1EEA0FFA081E090E001C0880F2A9587
:102AE000EAF7182FD11010952DA188A599A5820F6E
:102AF000911D27FD9A958E159F0549F1C880D980B3
:102B00006E2DC6010E94A0089B8D412F9923E9F0EC
:102B10004095482BB701C6010E947E0C8DA1E80E9E
:102B2000F11C87FDFA94E0CF059759F285E090E01B
:102B30009C878B8711C0CE010E94F3081CA21BA2A8
:102B400083E090E09C878B87BCCF4823E3CF8BA1A9
:102B50009CA101969CA38BA3DF91CF911F91FF9025
:102B6000EF90DF90CF9008958430910598F501970C
:102B700098F1CE010E94BC138BA19CA110E097FD9F
:102B800005C011E001C0110F8A95EAF7EEA0FFA081
:102B9000D11010952DA188A599A5820F911D27FD13
:102BA0009A958E159F0531F1C880D9806E2DC6018A
:102BB0000E94A0089B8D412F9923D1F04095482B6E
:102BC000B701C6010E947E0C8DA1E80EF11C87FDA5
:102BD000FA94E0CF0597C1F4CE010E94F30887E094
:102BE00090E09CA38BA383E090E09C878B87C1CF70
:102BF0004823E6CF8BA19CA197FF04C026E030E0DC
:102C00003C872B870197A6CF86E090E091CFFF927B
:102C10000F931F93CF93DF93EC01F42E8B859C854C
:102C2000662309F444C08430910538F5019760F1BA
:102C3000CE010E94BC132BA13CA188A599A5281701
:102C40003907E9F00EA11FA18DA1082E000C990BE8
:102C50002BA13CA148A559A5480F591F4017510762
:102C600009F464C0F11018C002171307C1F48DA154
:102C7000080F111D87FD1A95E7CF0597C9F285E06A
:102C800090E09C878B8756C0CE010E94F30883E0BA
:102C900090E09C878B87CCCF0217130741F74B8DB1
:102CA0004195B801888199810E947E0CE0CF8430E3
:102CB000910500F5019700F1CE010E94BC130EA111
:102CC0001FA148A559A58DA1082E000C990B2BA179
:102CD0003CA1BA01680F791F6017710701F1F1106B
:102CE00013C00217130799F48DA1080F111D87FD5A
:102CF0001A95E7CF059721F5CE010E94F30883E0EE
:102D000090E09C878B87D8CF0217130769F74B8D0C
:102D10004195B801888199810E947E0CE5CF2417E6
:102D2000350724F446E050E05C874B87820F931F01
:102D30009CA38BA3DF91CF911F910F91FF900895DA
:102D400086E090E09ECFEF92FF920F931F93CF9378
:102D5000DF93EC01162F8B859C85442309F488C0F2
:102D60008330910528F00397B1F185E090E02AC007
:102D70006F85788989899A899B01281B390BC9013C
:102D800037FD01969595879501969CA38BA31123FA
:102D9000B9F04B8D11E041274195681B790B888173
:102DA00099810E947E0C4B8D4127419569897A89D2
:102DB0008BA19CA1680F791F888199810E947E0C4C
:102DC00083E090E09C878B87DF91CF911F910F91DB
:102DD000FF90EF9008958BA19CA197FDC6CFCE01E7
:102DE0000E94BC13F12CE12C6BA17CA1E616F70626
:102DF000C4F44B8D419569897A896E0D7F1D888158
:102E000099810E947E0C4B8D41956F8578896E1952
:102E10007F09888199810E947E0C3FEFE31AF30AB3
:102E2000E3CF615071097CA36BA3112369F277FD95
:102E3000CBCF4B8D11E04127419589899A89680F45
:102E4000791F888199810E947E0C4B8D4127419585
:102E50006F8578898BA19CA1681B790B88819981EA
:102E6000DF91CF911F910F91FF90EF900C947E0C0A
:102E70008330910531F108F077C0019708F477C0ED
:102E8000CE010E945011CE010E94BC131CA21BA2B5
:102E9000112399F04B8D01E0402741956F8578898A
:102EA000888199810E947E0C4B8D402741956989CC
:102EB0007A89888199810E947E0C83E090E09C87CA
:102EC0008B872BA13CA16F85788989899A89AB0171
:102ED000481B590BCA0157FD019695958795821796
:102EE00093070CF444C04B8D4195621B730B888192
:102EF00099810E947E0C4B8D419569897A898BA1BD
:102F00009CA1680F791F888199810E947E0C2BA15A
:102F10003CA12F5F3F4F3CA32BA3112309F454CFB7
:102F20006F85788989899A89AB01481B590BCA0139
:102F300057FD019695958795821793070CF444CF1A
:102F40004B8D11E041274195621B730B888199815C
:102F50000E947E0C4B8D4127419569897A898BA10E
:102F60009CA1680F791F7ACF059709F489CF86E075
:102F700090E028CFCF92DF92EF92FF920F931F93B2
:102F8000CF93DF93EC01162F8B859C85442309F4A6
:102F900058C084309105B0F5019708F43AC0CE01CD
:102FA0000E94BC132BA13CA190E080E0111102C053
:102FB0008FEF90E02817390739F1EEA0FFA02DA17F
:102FC00088A599A5820F911D27FD9A958E159F05BD
:102FD00081F10B8DC880D9806E2DC6010E94A0089A
:102FE000011180954BA11111409548230111409585
:102FF000B701C6010E947E0C8DA1E80EF11C87FD71
:10300000FA94DDCF059759F285E090E09C878B8795
:1030100071C0CE010E94F3088FEF90E0111102C041
:1030200081E090E09CA38BA383E090E09C878B875A
:10303000B6CF8BA19CA1112309F457C09595879514
:1030400057C08430910550F5019750F1CE010E9490
:10305000BC13EEA0FFA02DA188A599A5820F911DFC
:1030600027FD9A958E159F0559F10B8DC880D98043
:103070006E2DC6010E94A008011180954BA111116F
:103080004095482301114095B701C6010E947E0C6E
:103090008DA1E80EF11C87FDFA94DDCF0597C1F4F0
:1030A000CE010E94F30881E090E0111102C08FEF81
:1030B00090E09CA38BA383E090E09C878B87C6CF96
:1030C0008BA19CA1111107C0009709F0B7CF06C0D2
:1030D00086E090E09BCF8F3F910539F426E030E009
:1030E0003C872B87112309F4A9CF880F991F816092
:1030F0009CA38BA3DF91CF911F910F91FF90EF9035
:10310000DF90CF900895CF92DF92EF92FF920F93CE
:103110001F93CF93DF93EC01F62EC42E8B859C85F5
:10312000222309F453C08430910508F5019730F14A
:10313000CE010E945011CE010E94BC131BA1FF20A2
:1031400071F193E0E92EF12CD12C173060F5970145
:103150004AA169A1888199810E94F10F96014AA133
:1031600069A1888199810E94F10F1F5FEECF0597B9
:10317000F9F285E090E09C878B871FC01CA21BA200
:1031800010E000E02BE030E04AA169A1888199813C
:103190000E946B1183E090E09C878B87C9CF82E00F
:1031A000E82EF12CD1CF8BA19CA125E030E0873017
:1031B000910569F101969CA38BA3DF91CF911F919B
:1031C0000F91FF90EF90DF90CF900895843091059C
:1031D00008F5019708F18881998122E030E0F1102B
:1031E00002C023E030E04AA169A10E94F10F21E072
:1031F0002C2530E04AA169A1888199810E94F10FB4
:103200008BA19CA187309105A9F626E030E03C8790
:103210002B87D0CF059739F41CA21BA283E090E046
:103220009C878B87D8CF86E090E0A5CFCF92DF92A6
:10323000FF920F931F93CF93DF93EC01F62E8B85B4
:103240009C85442309F484C08330910570F0039772
:1032500051F185E090E09C878B87DF91CF911F91A2
:103260000F91FF90DF90CF9008951CA21BA2CE017A
:103270000E945011FF2099F04B8D11E0412741959C
:103280006F857889888199810E947E0C4B8D4127BA
:10329000419569897A89888199810E947E0C83E0B1
:1032A00090E09C878B87CE010E945011CE010E9436
:1032B000BC1309891A898F859889801B910B97FD0A
:1032C00001966C01D594C7948BA19CA1080F191F7E
:1032D000C816D9060CF4BDCF0F5F1F4F6F857889D4
:1032E0008BA19CA19B01281B390B0217130744F4E7
:1032F0004B8D4195B801888199810E947E0CECCF5D
:1033000001969CA38BA3FF2009F4A7CFC816D9066A
:103310000CF4A3CF4B8D11E041274195681B790B2D
:10332000888199810E947E0C4B8D41274195698946
:103330007A898BA19CA1680F791F88819981DF917F
:10334000CF911F910F91FF90DF90CF900C947E0C46
:1033500083309105D1F1A0F50197A0F18F8598896F
:1033600029893A89821B930B97FD0196959587953C
:103370009CA38BA3CE010E945011CE010E94BC13CE
:10338000FF20D9F04B8D11E0412741956F85788959
:103390008BA19CA1681B790B888199810E947E0C6E
:1033A0004B8D4127419569897A898BA19CA1680F32
:1033B000791F888199810E947E0C83E090E04BCF39
:1033C000059761F286E090E046CF8BA19CA197FD26
:1033D000F9CF4B8D41956F857889681B790B888172
:1033E00099810E947E0C4B8D419569897A898BA1C8
:1033F0009CA1680F791F888199810E947E0C8BA106
:103400009CA101979CA38BA3FF2009F426CF97FDD5
:1034100024CF4B8D11E0412741956F8578897ECF70
:103420008F929F92AF92BF92CF92DF92EF92FF92D4
:103430000F931F93CF93DF93EC01F62E8B859C8522
:10344000442309F4E0C08E010B5C1F4F35E0C32E0E
:10345000D12C82309105E9F050F08330910509F4C8
:1034600041C0049709F4A8C085E090E00FC0BE01F8
:103470006B5C7F4FCE010E944913811103C086E02F
:1034800090E004C01FAA1EAA83E090E09C878B876F
:103490000DC01DAA8EA58823B1F0DC86CB868B8556
:1034A0009C852DA9211116C0059799F7DF91CF9121
:1034B0001F910F91FF90EF90DF90CF90BF90AF9052
:1034C0009F908F900895B801CE010E94051381113D
:1034D000E6CFE3CF059751F31FAA1EAA83E090E041
:1034E0009C878B878DA9882329F121E02F2530E047
:1034F0004AA169A1888199810E94F10F88819981EF
:103500006B8D2AA93BA94EA95FA9662301F1BA01D7
:103510006F5F7F4F7FAB6EAB240F351FF90140818A
:103520004095FF20F1F069A1F8E06F9FB0011124F0
:103530000E947E0C2DA98EA99FA92817190609F0B3
:10354000B5CF8EA5811115C082E090E09FCFBA0162
:103550006F5F7F4F7FAB6EAB240F351FF90140814A
:10356000E0CF6AA128E0629FB0011124695F7F4F1C
:10357000DFCF2F853889FF20B1F08D859E85A90189
:10358000481B590BCA01019629A158E0259F8019B3
:10359000910911249FAB8EAB181619060CF064CF5D
:1035A00084E090E073CF8AA1E8E08E9FC0011124EF
:1035B0000796821B930BEECF21E0262730E04AA12D
:1035C00069A1888199810E94F10F888199814B8D31
:1035D0004195FF2081F069A1F8E06F9FB0011124AF
:1035E0000E947E0C8EA99FA901979FAB8EAB892B61
:1035F00009F05CCF39CF6AA128E0629FB0011124A5
:10360000695F7F4FEDCF8430910539F0059709F060
:1036100036CF84E090E09C878B8721E02F2530E037
:103620004AA169A1888199810E94F10F88819981BD
:103630004B8D4195FF2009F445C069A138E0639F97
:10364000B00111240E947E0C0AA110E0A9A0B12CA7
:103650006801CA18DB088FEFC81AD80A23E0CC0C1F
:10366000DD1C2A95E1F78C8D9D8D009721F08C153E
:103670009D0508F46C010F5F1F4F83E0000F111FC1
:103680008A95E1F793E0AA0CBB1C9A95E1F7FF201D
:1036900021F145017401EA18FB0880169106DCF55A
:1036A000682D888199810E94A00890E02B8D2223AB
:1036B00089F02FEF30E08217930769F5EFEF8E1A4C
:1036C0009E0AE8CF6AA158E0659FB0011124695FA6
:1036D0007F4FB8CF30E020E0EECF01501109F12C40
:1036E000E12C0A151B05BCF0602F888199810E948E
:1036F000A00890E02B8D222359F02FEF30E08217A5
:10370000930749F401501109FFEFEF1AFF0AE9CFBF
:1037100030E020E0F4CFEC14FD0408F0B0CEC6CECB
:103720002F923F924F925F926F927F928F929F92D1
:10373000AF92BF92CF92DF92EF92FF920F931F93BF
:10374000CF93DF93CDB7DEB760970FB6F894DEBFA7
:103750000FBECDBF2C019C012C5F3F4F3A872987BC
:1037600050E040E06AE070E0C9010E940C121F8244
:103770001886A201445D5E4F5C874B87E2E42E2EE3
:10378000AB85BC858C91BF81B81710F00C94D52601
:103790006B2E712CF2012B9EE00DF11D1124DF0127
:1037A000AD5BBF4F1C9286A597A58630910511F49D
:1037B0000C940A26059729F18FB7F894409173036A
:1037C0005091740360917503709176038FBF269CAE
:1037D000F001279CF00D1124E40DF51D86A197A1A1
:1037E000A0A5B1A5481B590B6A0B7B0B82A593A51D
:1037F000B0E0A0E0481759076A077B0700F580E0B2
:10380000C9C18FB7F89440917303509174036091CC
:103810007503709176038FBF86A197A1A0A5B1A56E
:10382000481B590B6A0B7B0B84A595A5B0E0A0E063
:10383000481759076A077B0708F0BECFE0CF15A1EC
:103840001111DDCF2FB7F894809173039091740319
:10385000A0917503B09176032FBF86A397A3A0A76D
:10386000B1A781E0DF01AD5BBF4F8C931A96AD909D
:10387000BC90A114B10409F47FC13F81329D400185
:103880001124A4014D5D5F4F440D551D588B4F878A
:1038900086A597A5009709F437C0069709F46CC16F
:1038A000269CF001279CF00D1124E40DF51D35AC8C
:1038B000332009F4F9C001ACF2ADE02D3197EC31C1
:1038C000F10510F00C940226E859F34E0C944E3496
:1038D0007D1D9D1DD11DD41DDB1D0E24DE1DC91FA8
:1038E000DA2071227E213523AF25B725C225BA25DE
:1038F000CC25C425CE25D625D925E125E425ED25E1
:10390000F025F425F725FF25DF01A15BBF4F1196B8
:10391000BC92AE921A97CC9058E0C59E60011124DB
:10392000C60107966C0111978C9198E0899FC01889
:10393000D1081124AFEFCA1ADA0AF12CE12C9F0149
:103940002B5A3F4F3A832983AF014C5A5F4F5E8316
:103950004D83CF01895A9F4F9E878D87D5016D91E9
:103960005D016623D9F0E981FA812081318170E01F
:10397000AD81BE814C918F8598890E944C1290E058
:10398000E80EF91E892B51F3F5018081882331F36C
:10399000AD85BE858C91E80EF11CE0CF269CF00130
:1039A000279CF00D1124E40DF51DF1AAE0AA87A9CA
:1039B00090AD8130910509F448C020F00297E1F004
:1039C00011E030C0DF01AB5BBF4F8C9190E00196FE
:1039D00073E0880F991F7A95E1F79C012150310916
:1039E00033AB22AB1197CE14DF0408F441C08E191B
:1039F0009F0995AB84ABE4CFDF01AC5BBF4F8C91EB
:103A000028E0829FC001112495AB84ABCE14DF0463
:103A1000B0F411968C9138E0839FC0011124079671
:103A200093AB82AB269CF001279CF00D1124E40D92
:103A3000F51D81E0912F982796AB85AF31CF019787
:103A4000E80EF91EF3AAE2AABBCFAF014C5B5F4FB1
:103A5000CE14DF04A8F4CF018B5B9F4FDC018C9167
:103A6000B8E08B9FC0011124079693AB82ABDA01BB
:103A70008C91B8E08B9FC001112495AB84ABD2CF61
:103A8000DA018C91B8E08B9FC0011124CE18DF08B9
:103A9000D694C794C80ED91ED5AAC4AA21E0E21AAA
:103AA000F108EC0CFD1CCECF03ACF4ADE02D31974A
:103AB000EC31F10510F00C940226EF59F24E0C9403
:103AC0004E348D1D9D1DD11DD41DDB1D0E24DE1D0C
:103AD000C91FDA2071227E213523AF25B725C225E3
:103AE000BA25CC25C425CE25D625D925E125E42522
:103AF000ED25F025F425F725FF258F8598890E946F
:103B0000BC13269CF001279CF00D1124E40DF51D3B
:103B100045E050E057A746A716C08F8598890E94B8
:103B20005011269CF001279CF00D1124E40DF51D89
:103B300086E090E097A786A706C0432D61E08F85B9
:103B400098890E94D114269CF001279CF00D112425
:103B5000E40DF51D85AD882339F081E026A537A554
:103B60002530310509F480E0269CF001279CF00DFA
:103B70001124E40DF51D85AF269CF001279CF00D66
:103B80001124E40DF51D81E026A537A52630310569
:103B900009F035CE3885382B38874F814F5F4F83FA
:103BA000EFCD432D60E0CBCF432D61E08F85988929
:103BB0000E94101AC8CF432D60E0F8CF269C8001E8
:103BC000279C100D1124040D151D68019EE2C90EDD
:103BD000D11CD8019E968D919C919F97332009F41A
:103BE00022C182309105B1F148F0039709F46FC00A
:103BF00025E030E0F80137A726A7A5CFB401685A21
:103C00007F4F640D751D8F8598890E94491381111E
:103C100003C026E030E0EECF8F8598890E945011D6
:103C2000F801E75AFF4F118210827397D801AC5BFD
:103C3000BF4F8C9138E0839FC00111249183808312
:103C4000D801D2968D919C9135969183808323E003
:103C500030E0D0CFC401885A9F4F5201A80EB91E40
:103C60007801480138E5830E911CA8014F5A5F4F37
:103C70005A834983D4011C92E981FA818081882387
:103C800079F0E5E0F0E0D601ED93FC93D6018D915B
:103C90009C91F401208121110BC0059759F753CF56
:103CA000B5018F8598890E9405138111EFCFE9CF67
:103CB000059709F448CFF701E75AFF4F11821082A8
:103CC000E3E0F0E0D8019F96FC93EE939E97269C4C
:103CD0009001279C300D1124240D351D3A83298332
:103CE00089010A5B1F4FD8016D917C91F901E55B59
:103CF000FF4F808191816901B5E5CB0ED11C79011F
:103D0000E9E5EE0EF11CD601ED91FC91D7012D9164
:103D10003C91E20FF31F40816817790789F4E9812C
:103D2000FA8183A194A126AD211140950E947E0CB9
:103D3000269CF001279CF00D1124E40DF51D97C180
:103D400041114BC0D8018D939C93269CC001279CA8
:103D5000900D1124840D951DDC01AA5BBF4F2D91A0
:103D60003C9111978C01055B1F4FF80140815181F7
:103D700024173507C9F4BC016C5B7F4FFB01408100
:103D8000F8E04F9FA001112411965C934E93539637
:103D90004D915C9111974F5F5F4F4D935C93215014
:103DA0003109D8012D933C93269CF001279CF00DFE
:103DB0001124E40DF51DAF01475A5F4F9F01285AAA
:103DC0003F4FD9012C91DA018D919C91281719064A
:103DD00009F0B9CE82E090E0ADCEE981FA8146AD3E
:103DE000419583A194A10E947E0CD8016D917C9194
:103DF00011976F5F7F4F6D937C93E981FA8183A167
:103E000094A146ADD601ED91FC91D7012D913C9145
:103E1000E20FF31F442329F0408140950E947E0C5D
:103E200094CF4081FBCF8130910508F4EBC68430FC
:103E3000910598F0059709F0E5C6D2968D919C9171
:103E4000F801E55BFF4F91838083359791838083F1
:103E500023E030E0F80137A726A7269CF001279C35
:103E6000F00D1124E40DF51DE3A0F4A086AD882427
:103E70008A94912C811102C0912C812C269CA00146
:103E8000279C500D1124440D551DDA01D496CD9078
:103E9000DC905A01B6E4AB0EB11CFA01E55BFF4FB2
:103EA000FA83E983D5010D911C91602FC7010E940F
:103EB000A008E981FA81208131818815190459F41B
:103EC0002C153D0544F0C901019791838083D501EC
:103ED0002D933C93E7CF2F5F3F4F269CF001279C0B
:103EE000F00D1124E40DF51D2C153D051CF426E004
:103EF00030E081CEEB5BFF4F208148E0249F9001B2
:103F00001124295F3F4F021713073CF4B8016F5F7C
:103F10007F4F482FC7010E947E0C269C8001279C62
:103F2000100D1124040D151DD801DE964C91DE975D
:103F30004195F801EA5BFF4FFA83E9836081718163
:103F400093968D919C910E947E0CE981FA8120814B
:103F500031812F5F3F4F31832083F801EB5BFF4FAF
:103F6000808190E0019643E0880F991F4A95E1F720
:103F70002817390709F0E7CD3696808191819C0199
:103F80002150310931832083A981BA818D939C937B
:103F9000DACD269CF001279CF00D1124E40DF51DCF
:103FA00086A597A5332009F487C08430910508F0D1
:103FB0005BC0019708F45EC08F8598890E945011FC
:103FC0008F8598890E94BC13269CC001279C900D68
:103FD0001124840D951D9E878D87FC01EC5BFF4F9E
:103FE0008081F82EFF0CFF0CFF0C8D849E84D40181
:103FF000AA5BBF4FBA83A983F401EB5BFF4FFE833B
:10400000ED83F3E28F0E911CEE24E394A981BA8133
:104010000D911C91ED81FE81808190E0019623E05D
:10402000880F991F2A95E1F7AF2CB12CA816B90675
:1040300084F5D401CD90DC906F2DC6010E94A008BC
:10404000482F50E087E090E0801B910B3320E1F097
:1040500002C0559547958A95E2F7B501C6010E94C1
:104060007E0C3E24F394D2CF059709F4A5CF25E02A
:1040700030E0C1CDDF01AA5BBF4F1D921C9243E02F
:1040800050E057A746A798CF01C0440F8A95EAF79A
:10409000E4CF0F5F1F4FE981FA8111830083E5E0D0
:1040A000F0E0AD85BE850830110509F04CCD9F9636
:1040B000FC93EE939E9747CD8430910508F04FC056
:1040C000019708F44EC0269C8001279C100D1124F6
:1040D000040D151DF801EC5BFF4F8081382E330C69
:1040E000330C330C91E0998348017801A6E4EA0E81
:1040F000F11C3196FE83ED83F3E28F0E911CD70104
:104100000D90BC91A02DBE87AD87ED81FE81808191
:1041100090E00196B3E0880F991FBA95E1F7A32CC0
:10412000B12CA816B906BCF5D401CD90DC90632D56
:10413000C6010E94A008482F50E0B981BB2321F19D
:104140000D8401C0440F0A94EAF7B501C6010E942C
:104150007E0CE981F1E0EF27E9833394D0CF059716
:1041600031F5269CF001279CF00D1124E40DF51D7E
:10417000DF01AA5BBF4F41E050E04D935C9383E0C9
:1041800090E097A786A79FCF0D8402C055954795CD
:104190000A94E2F7DACF2D853E852F5F3F4FD70196
:1041A0002D933C932830310509F0CDCC32CD46E03B
:1041B00050E0B0CC269C8001279C100D1124040DEA
:1041C000151DD8019E968D919C91332009F458C0FD
:1041D00084309105E8F482309105E8F40097E1F12C
:1041E000019709F0A5CDF801EA5BFF4F608171816D
:1041F000CB010196918380838F8598890E94FB1162
:104200008F8598890E94BC13E3E0F0E0D8014FCF7E
:10421000059709F08DCD269CF001279CF00D112407
:10422000E40DF51D9F012A5B3F4FD9016D917C91F3
:10423000CF01855B9F4FDC018D919C91861797077D
:104240000CF415CFCB010196D9018D939C938F85EA
:1042500098890E94FB1177CCF801EA5BFF4F11822D
:1042600010823596AF85B8895F968C915F9790E004
:1042700091838083CD010E94501121E030E0BACCBF
:1042800084309105B0F40197B0F0F801EA5BFF4F7C
:104290006081718177FF2DC0359660818F85988907
:1042A0000E94FB118F8598890E945011E6E0F0E092
:1042B000ADCF0597D9F7AF85B8895F966C915F97B9
:1042C000862F90E0269C8001279C100D1124040D60
:1042D000151DF801E55BFF4F91838083359791832E
:1042E0008083CD010E94FB118F8598890E94BC13A9
:1042F000AECCCB01019791838083A9CF269CF0019E
:10430000279CF00D1124E40DF51D86A597A582309C
:10431000910509F484C080F40097A1F0019711F190
:104320003110A0C186E090E0269CF001279CF00DA2
:104330001124E40DF51DFECB8330910509F487C1EE
:10434000059771F7269CF001279CF00D1124E40DD0
:10435000F51DDF01AA5BBF4F1D921C9221E030E0EA
:1043600037A726A7269C4001279C900C1124840C7B
:10437000951CF401EA5BFF4F808191810196918346
:104380008083D401AC5BBF4F3C9168E0369FA001B5
:1043900011245A83498374018F01640155E4C50EC9
:1043A000D11C54016EE3A60EB11C3324339483E276
:1043B000E80EF11CD8012D913C91F601808190E02E
:1043C0000196A3E0880F991FAA95E1F749815A81C8
:1043D00048175907C4F4CA018370992782179307B5
:1043E0005CF4D5014C914325419569817A81F701AF
:1043F000808191810E947E0C29813A812F5F3F4FFD
:104400003A832983D7CF82E090E0D401243031056C
:1044100009F099CB9F969C938E939E9794CB8F8512
:1044200098890E945011332021F08F8598890E942D
:10443000BC13269C4001279C900C1124840C951CD5
:10444000F401EA5BFF4F8081918101979183808322
:10445000D401AC5BBF4F2C9168E0269FA0011124D2
:104460005A83498374018F01640155E4C50ED11C40
:1044700054016EE3A60EB11C3324339483E2E80E9C
:10448000F11CD8012D913C91F601808190E00196BC
:10449000F3E0880F991FFA95E1F749815A8148178F
:1044A0005907C4F4CA0183709927821793075CF4F3
:1044B000D5014C914325419569817A81F70180812D
:1044C00091810E947E0C29813A812F5F3F4F3A8370
:1044D0002983D7CFE3E0F0E0D401232B09F4E7CD23
:1044E00032CB269CF001279CF00D1124E40DF51D24
:1044F00086A597A58230910509F455C038F0833020
:10450000910509F4A4C0059709F00ACF269C800103
:10451000279C100D1124040D151DF801EC5BFF4FB5
:10452000208168E0269FA00111245A8349837801E5
:10453000480155E4850E911C58016EE3A60EB11C8E
:1045400083E2E80EF11CD4018C9190E00196E3E047
:10455000880F991FEA95E1F7E981FA81E817F907D1
:10456000F4F4D5013C90F701C080D1806981C60187
:104570000E94A00831108095F98145E5F0FF4AEAD4
:10458000482B3110409569817A81C6010E947E0CCA
:1045900029813A812F5F3F4F3A832983D4CF82E02C
:1045A00090E0D80137CF8F8598890E945011332031
:1045B00021F08F8598890E94BC13269C8001279C3E
:1045C000100D1124040D151DF801EC5BFF4FB08197
:1045D00028E0B29FF0011124FA83E98378014801B1
:1045E000F5E48F0E911C58012EE3A20EB11C33E2AC
:1045F000E30EF11CD4018C9190E0019673E0880FDA
:10460000991F7A95E1F7E981FA81E817F9070CF02B
:10461000FBCDD5013C90F701C080D1806981C601F6
:104620000E94A00831108095F9814AEAF0FF45E523
:10463000482B3110409569817A81C6010E947E0C19
:1046400029813A812F5F3F4F3A832983D3CF8F85CA
:1046500098890E945011332009F464CE8F8598897F
:104660000E94BC1385E090E05FCE269CF001279C61
:10467000F00D1124E40DF51D86A597A58430910554
:1046800008F091C0019708F491C0269C8001279CF6
:10469000100D1124040D151D0A5B1F4FD8011D922A
:1046A0001C920E94D6314B015C010E94D631698375
:1046B0007A838B839C83F801C080D180FFEFCF1A6F
:1046C000DF0AD801CD92DC92C501B4012BE030E0C5
:1046D00040E050E00E945E3370E0FB01E25BFC4F83
:1046E0007F01B08069817A818B819C8128E030E0F4
:1046F00040E050E00E945E338B2D90E0062E02C019
:10470000959587950A94E2F780FF05C0F8E8CF16E3
:10471000F3E1DF0634F281E090E001C0880F6A9592
:10472000EAF7B82AD701BC928F8598890E94BC13FA
:10473000269CF001279CF00D1124E40DF51DFA8351
:10474000E983EA5BFF4F11821082A981BA81AC5BD9
:10475000BF4F9C90990C990C990CC980DA8025E484
:10476000C20ED11C49815A814D5D5F4F5A834983E6
:104770008F01D6018C9190E0019663E0880F991F1C
:104780006A95E1F7A92CB12CA816B9061CF1EEE444
:10479000F3E081918F3F09F0D6C926E533E02E176B
:1047A0003F07B9F7BDCD059709F0BACDEEE4F3E0C8
:1047B00089E593E011928E179F07E1F7269CF0019F
:1047C000279CF00D1124E40DF51D23E030E037A700
:1047D00026A75BCFE981FA81E080F180692DC701CE
:1047E0000E94A008D801ED91FC91E25BFC4F408152
:1047F000311001C040954823B501C7010E947E0CCD
:10480000F8018081918101968B30910521F091838F
:1048100080839394AECF11821082FBCF269C8001BF
:10482000279C100D1124040D151DD8019E968D9105
:104830009C913110F2C18430910508F0B2C2019709
:1048400008F042C08F8598890E94F308269CF001E9
:10485000279CF00D1124E40DF51DDF01A75BBF4F70
:104860008D919C911197E55BFF4F208131818217DB
:10487000930724F42D933C9391838083269CF0012D
:10488000279CF00D1124E40DF51DDF01A15ABF4F47
:104890008D919C91892B09F42ACBAF014A5B5F4F24
:1048A000CF018C5B9F4FDC018C91B8E08B9FC001E6
:1048B00011240197DA0111969C938E9312961C9203
:1048C00023E030E037A726A78F8598890E94BC1384
:1048D000269CA001279C500D1124440D551D5E8778
:1048E0004D87FA01EA5BFF4F8081918101969183A8
:1048F0008083312C4E595F4F5A834983FE83ED8369
:104900008D849E8455E4850E911C0D851E850C5B5F
:104910001F4FED84FE8463E2E60EF11CCD84DE843D
:104920008FE5C80ED11CAD84BE8498E4A90EB11CDD
:10493000AD85BE85DE96BE87AD87E981FA8120818F
:10494000AD81BE816D917C91822F90E0321608F08E
:104950009DC0432D50E0641B750BF401808190E0F5
:10496000019633E0880F991F3A95E1F768177907A8
:104970001CF5D8018C91B8E08B9FC00111246817F9
:104980007907D4F0F70180819181D5013C91320300
:1049900090011124420F531FD601ED91FC91E40FB9
:1049A000F51FAD85BE852C91222309F46DC0E491DD
:1049B0004E2F40950E947E0C3394BFCF4491E7C1A7
:1049C000FB013197FA83E983269C8001279C100D17
:1049D0001124040D151D5801FBE4AF0EB11C680134
:1049E0002EE3C20ED11C780133E2E30EF11CD50197
:1049F0008D919C91E981FA81E817F90784F0D6013D
:104A00004C914195BF01F701808191810E947E0CFC
:104A100029813A81215031093A832983E8CFD8018D
:104A2000A85BBF4F8C918F5F8C93082E000C990B65
:104A3000F801ED59FF4F20812817190609F00CF4F1
:104A40001C92269CF001279CF00D1124E40DF51D0D
:104A5000AF014A5B5F4F9F012C5B3F4FD9018C91A7
:104A6000B8E08B9FC0011124BF016F597F4FDB015C
:104A70002C91821B91090197DA012D913C91281705
:104A8000390709F060C8F3CA449194CFFB01E81BD1
:104A9000F90BFA83E983269C8001279C100D1124D1
:104AA000040D151D5801FBE4AF0EB11C68012EE387
:104AB000C20ED11C780133E2E30EF11CD5018D91B9
:104AC0009C91E981FA81E817F90784F0D6014C91AD
:104AD0004195BF01F701808191810E947E0C29815F
:104AE0003A81215031093A832983E8CFD801A85B64
:104AF000BF4F8C918F5F8C93082E000C990BF8019F
:104B0000EC59FF4F20812817190609F00CF41C926C
:104B1000269CF001279CF00D1124E40DF51DAF013A
:104B20004A5B5F4F9F012B5B3F4FD9018C91B8E0EF
:104B30008B9F90011124295F3F4FBF016E597F4F1A
:104B4000DB018C91820F932F911D0196DA012D913B
:104B50003C912817390711F00C94A31DC8C9432DA7
:104B600060E08F8598890E9411140C94A31D432D39
:104B700061E0F7CF41E0632D8F8598890E94071689
:104B80000C94A31D40E0F7CF41E0632D8F859889F9
:104B90000E944E150C94A31D40E0F7CF432D60E01A
:104BA0008F8598890E94A3160C94A31D432D61E064
:104BB000F7CF432D60E08F8598890E9416190C94D9
:104BC000A31D432D61E0F7CF232D41E061E08F85E8
:104BD00098890E9483180C94A31D232D40E0F6CFE2
:104BE000232D41E060E0F3CF232D40E0FBCF432DA8
:104BF00061E08F8598890E94BA170C94A31D432DFC
:104C000060E0F7CF269CF001279CF00D1124E40D05
:104C1000F51D6DC981E00C94CA1D8430910508F022
:104C2000BAC0019708F03FC08F8598890E94F308A9
:104C3000D801A75BBF4F8D919C911197F801E55B5F
:104C4000FF4F208131818217930724F42D933C93E9
:104C500091838083269CF001279CF00D1124E40DA4
:104C6000F51DDF01A35ABF4F8D919C91892B09F44B
:104C70003EC9DF01A85BBF4F1C929F012A5B3F4FDB
:104C8000CF018B5B9F4FDC018C9190E0019653E04C
:104C9000880F991F5A95E1F7D9018D939C9323E0D2
:104CA00030E037A726A78F8598890E94BC13269CE1
:104CB000A001279C500D1124440D551D5E874D8782
:104CC000FA01EA5BFF4F8081918101979183808394
:104CD000312C4F595F4F5A834983FE83ED838D8476
:104CE0009E8455E4850E911C0D851E850C5B1F4F1F
:104CF000ED84FE8463E2E60EF11CCD84DE848DE556
:104D0000C80ED11CAD84BE8498E4A90EB11CAD853B
:104D1000BE85DE96BE87AD87E981FA812081AD81AF
:104D2000BE816D917C91321608F04ACEE32DF0E001
:104D30006E0F7F1FD4018C9190E0019643E0880FA5
:104D4000991F4A95E1F7681779071CF5D8018C91EE
:104D5000B8E08B9FC001112468177907D4F0D70100
:104D60008D919C91D5014C914203A00111244E0FCD
:104D70005F1FD601ED91FC91E40FF51FAD85BE8557
:104D80002C91222309F41ACEE4914E2F40950E94D3
:104D90007E0C3394C1CF059709F485CFE5E0F0E0B0
:104DA00035CA059709F44ECD81CA41E050E06AE06A
:104DB00070E089859A850E940C12888560960FB6EE
:104DC000F894DEBF0FBECDBFDF91CF911F910F9141
:104DD000FF90EF90DF90CF90BF90AF909F908F901B
:104DE0007F906F905F904F903F902F9008950F931A
:104DF0001F93CF93DF93EC018B01FC01E45DFE4F29
:104E00008081882381F0EF5DF109718360831BA6A7
:104E10001AA61DA61CA681E090E09AAF89AF1CAE31
:104E20001BAE1FA61EA6CE010E94901B8111FBCFB8
:104E3000F80101900020E9F7CF010197801B910B49
:104E4000DF91CF911F910F9108954F925F926F92D2
:104E50007F928F929F92AF92BF92CF92DF92EF920A
:104E6000FF920F931F93CF93DF936C01F12CE12CF2
:104E7000D0E0C0E093E0A92EB12C23E2822E912C49
:104E80003DE9432E30E0532E41EB642E40E0742E7A
:104E900060E083E00E940C05C5010197F1F761E035
:104EA00083E00E940C05C4010197F1F760E083E004
:104EB0000E940C05F2016491F3018491E82FF0E067
:104EC000EE0FFF1FE859FF4F8591949100E412E423
:104ED0002FE030E0462F0E948A2961157105810577
:104EE000910529F06F5F7F4F8F4F9F4F9F70072E67
:104EF000000C880B990B0E94653226E933E44BE0E5
:104F00005DE30E94A03220E030E040E05FE30E94D9
:104F1000A0320E94F833C60FD71FFFEFEF1AFF0A27
:104F2000CE14DF040CF0B4CFCE01B6010E943A34A7
:104F3000CB01DF91CF911F910F91FF90EF90DF9008
:104F4000CF90BF90AF909F908F907F906F905F9029
:104F50004F9008951F920F920FB60F9211242F9326
:104F60003F934F935F936F937F938F939F93AF93F1
:104F7000BF93EF93FF9380916E0390916F03A09185
:104F80007003B0917103892B8A2B8B2BD1F19091F7
:104F90006D03E0916B03F0916C038081892780831E
:104FA00080916E0390916F03A0917003B091710393
:104FB000181619061A061B069CF480916E03909130
:104FC0006F03A0917003B09171030197A109B1091A
:104FD00080936E0390936F03A0937003B09371035B
:104FE000FF91EF91BF91AF919F918F917F916F91C1
:104FF0005F914F913F912F910F900FBE0F901F9097
:10500000189580910001E0E9F0E0E4919FEF909322
:105010000001E13051F030F0E23069F060E00E94D0
:105020000C05DECF10926E00F9CF90916F009D7F3E
:1050300090936F00F3CF909170009D7F90937000DC
:1050400091E09093B0009091B100987F946090931C
:10505000B1001092B300E2CF1F920F920FB60F92E1
:1050600011242F933F934F935F936F937F938F936D
:105070009F93AF93BF93EF93FF938AED93E00E94CA
:105080007D04FF91EF91BF91AF919F918F917F919F
:105090006F915F914F913F912F910F900FBE0F90A5
:1050A0001F9018951F920F920FB60F9211242F93F5
:1050B0008F939F93EF93FF93E091EA03F091EB03BB
:1050C0008081E091F003F091F10382FD1BC090819B
:1050D0008091F3038F5F8F732091F403821741F067
:1050E000E091F303F0E0E652FC4F958F8093F303D9
:1050F000FF91EF919F918F912F910F900FBE0F9085
:105100001F9018958081F4CF1F920F920FB60F92C7
:1051100011242F933F938F939F93AF93BF938091CD
:10512000730390917403A0917503B091760330914D
:105130005C0323E0230F2D3758F50196A11DB11D07
:1051400020935C038093730390937403A09375037F
:10515000B093760380915D0390915E03A0915F030D
:10516000B09160030196A11DB11D80935D039093E2
:105170005E03A0935F03B0936003BF91AF919F91D3
:105180008F913F912F910F900FBE0F901F90189508
:1051900026E8230F0296A11DB11DD2CF1F920F92B8
:1051A0000FB60F9211242F933F934F935F936F93FA
:1051B0007F938F939F93AF93BF93CF93DF93EF939F
:1051C000FF9380915B03C0919B04D0E087FF24C0D4
:1051D000109285001092840080915B038F5F809312
:1051E0005B0380915B03082E000C990B8C179D07C5
:1051F00024F480915B038C30C4F180918400909101
:105200008500049680349C4908F47AC0809184001B
:1052100090918500049676C080915B03082E000C67
:10522000990B8C179D07C4F6E0915B038E2FEE0F50
:10523000990BFC01EE0FFF1FE80FF91FE958FB4F18
:10524000808186FFC9CFE0915B038E2FEE0F990B13
:10525000FC01EE0FFF1FE80FF91FE958FB4F80819B
:1052600060E08F730E940C05B7CF209184003091CD
:105270008500E0915B038E2FEE0F990BFC01EE0F82
:10528000FF1FE80FF91FE958FB4F81819281820FC0
:10529000931F9093890080938800E0915B038E2F89
:1052A000EE0F990BFC01EE0FFF1FE80FF91FE958F5
:1052B000FB4F808186FF11C0E0915B038E2FEE0FC4
:1052C000990BFC01EE0FFF1FE80FF91FE958FB4F88
:1052D000808161E08F730E940C05FF91EF91DF9157
:1052E000CF91BF91AF919F918F917F916F915F917E
:1052F0004F913F912F910F900FBE0F901F901895D7
:1053000080E49CE990938900809388008FEF8093DC
:105310005B03E3CFCF92DF92EF92FF920F931F9345
:10532000E82FF92F05C0015011092109310961F158
:10533000908196239417B9F305C0015011092109F2
:10534000310911F1908196239413F7CFC12CD12C00
:10535000E12CF12C0AC08FEFC81AD80AE80AF80A23
:105360000C151D052E053F0579F0808186238417D5
:1053700091F36C2D7D2D8E2D9F2D1F910F91FF9000
:10538000EF90DF90CF90089560E070E080E090E0D3
:105390001F910F91FF90EF90DF90CF9008951092A2
:1053A000DD031092DC0388EE93E0A0E0B0E0809390
:1053B000DE039093DF03A093E003B093E10387ED56
:1053C00092E09093DB038093DA0385EC90E0909376
:1053D000E7038093E60384EC90E09093E9038093E5
:1053E000E80380EC90E09093EB038093EA0381EC78
:1053F00090E09093ED038093EC0382EC90E0909327
:10540000EF038093EE0386EC90E09093F10380939A
:10541000F0031092F3031092F4031092F50310922C
:10542000F6031092A2041092A10489EE92E09093E8
:10543000A00480939F041092A8041092A9048AE00B
:105440008093AA0481E08093AB0494E09093AC0431
:105450008093B50423E030E03093A4042093A304A8
:105460008093A5041092A6041092A704E2ECF4E045
:1054700026E030E01282138214821582168234876D
:105480002387158E148E168E10AA17A611AA13AA9A
:1054900012AA84AB11AE10AE13AE12AE15AE14AE9E
:1054A000EE5BFF4F95E0EA3CF90721F784E080933B
:1054B000CA0580919B048C3098F491E0980F9093EA
:1054C0009B0480939C0490E0FC01EE0FFF1FE80F0B
:1054D000F91FE958FB4F88EB9BE092838183089585
:1054E0008FEF80939C040895CF93DF93CDB7DEB701
:1054F000C356D1090FB6F894DEBF0FBECDBF789466
:1055000084B5826084BD84B5816084BD85B58260C8
:1055100085BD85B5816085BD80916E008160809379
:105520006E001092810080918100826080938100E2
:1055300080918100816080938100809180008160F2
:10554000809380008091B10084608093B10080914D
:10555000B00081608093B00080917A008460809375
:105560007A0080917A00826080937A0080917A003C
:10557000816080937A0080917A00806880937A00BD
:105580001092C10060E08EE00E94580560E08FE05C
:105590000E94580560E080E10E94580560E082E0CA
:1055A0000E94580561E083E00E94580580919C04A8
:1055B0008C3008F051C061E086E00E94580580916F
:1055C0009C04282F30E0F901EE0FFF1FE20FF31FBC
:1055D000E958FB4F9081907C9660908310929D04D7
:1055E00010929E042CE0622F0E942E34829FB00104
:1055F000112430E020E0AB01420F531FFA01EE0FFF
:10560000FF1FE40FF51FE958FB4F908196FD16C070
:105610002F5F3F4F2C30310571F781110FC0109271
:10562000800082E0809381001092850010928400B7
:10563000B19A80916F00826080936F00E0919C042A
:105640008E2F90E0FC01EE0FFF1FE80FF91FE958C5
:10565000FB4F80818064808361E088E00E94580570
:105660008091AB04882309F4B8C0FFB6F894809108
:105670007203811127C0E9EBF0E08491E5EAF0E0E4
:105680009491E82FF0E0EE0FFF1FEF56FF4FA5912A
:10569000B491EC91E92321F461E08AE00E940C05C9
:1056A00061E08AE00E9458058CB580618CBD8CB5A4
:1056B00080648CBD61E08DE00E94580561E08BE064
:1056C0000E945805809172038F5F80937203FFBE22
:1056D00061E08091AA040E94580561E08091AA04CB
:1056E0000E940C051092B2041092B1041092B404FE
:1056F0001092B304F090AC0429E0F29EC001112492
:105700000E9468349093AE048093AD048F2D90E096
:10571000880F991F0E9468349093B0048093AF045F
:105720008091B7049091B804835C904051F083EC71
:1057300090E09093B8048093B70483EA94E00E94C9
:10574000650750E040E063E070E083EA94E00E9487
:105750000C1247E050E061E070E083EA94E00E94C0
:105760000C1247E050E062E070E083EA94E00E94AF
:105770000C1250E040E064E070E083EA94E00E94A4
:105780000C124091AC04415060E083EA94E00E9426
:10579000C90F50E040E070E060E083EA94E00E94CE
:1057A0000C1281E08093CB05F12CF2E4EF2EA3EAFA
:1057B000AA2EA4E0BA2E8091CB05F816C8F4EF9C6F
:1057C000C0011124FC01E156FB4FB4A2A3A28E53E9
:1057D0009B4F0E94100BF394EECF61E08091A804E0
:1057E0000E94580561E08091A9040E94580570CF7D
:1057F000813051F49091CA058FEF890F891720F4F9
:105800001092E3048093E40480E092E42AE030E024
:105810004091CB05841748F4899FF0011124EE5381
:10582000FB4F308727838F5FF3CF8091C90490911E
:10583000CA044AE0489F9001499F300D112480E03E
:1058400092E44091CB05841748F4899FF00111241C
:10585000EE53FB4F328721878F5FF3CFF12CE2E4C9
:10586000DE2EEE24E3948091CB05F81668F4DF9CDD
:10587000C0011124FC01EA50FB4FE0828E539B4F84
:105880000E94100BF394EFCF80E092E42091CB05BF
:10589000821748F4899FF0011124EE53FB4F158EB7
:1058A000148E8F5FF3CF80E022E49091CB058917AF
:1058B00090F07FE9E72E74E0F72EF70180E021E019
:1058C00030E0891789F032AF21AF14AE13AE8F5F8D
:1058D000EE5BFF4FF6CF829FF0011124EE53FB4F9A
:1058E000158A148A8F5FE1CF1092ED041092EC04B8
:1058F00080E092E42091CB05821740F4899FF0016B
:105900001124EE53FB4F138E8F5FF4CFD12C62E442
:10591000B62E8091CB05D81650F4DB9CC001112423
:1059200067E08E539B4F0E94FB11D394F2CF80917E
:10593000B7049091B804892B51F083EC90E09093D8
:10594000B8048093B70483EA94E00E9465079091BD
:10595000CB0580E04DEE55E03BE022E0A2E4EA0E0C
:10596000F11C981759F0F701548F438F378F21A3FB
:10597000568F458F30A322A38F5FF0CF992331F14B
:1059800080E893E09093ED048093EC041092D704A8
:105990001092D60489E190E09093CA048093C904E0
:1059A00080ED97E09093CC048093CB0486E090E068
:1059B0009093D9048093D80484E090E09093DB0422
:1059C0008093DA041092CE041092CD048FE00E94EE
:1059D000F9067C01EE0CFF1CE80EF91EF0927F0325
:1059E000E0927E0380E10E94F90690937D0380930C
:1059F0007C03B7018E159F050CF4BC01072E000C2B
:105A0000880B990B0E94653220E030E040E05FE3B4
:105A10000E94A0320E94F8337093CF036093CE03AC
:105A2000E091EA03F091EB0382E08083E091E603EA
:105A3000F091E7031082E091E803F091E9038FEC25
:105A400080831092F203E091EE03F091EF0386E081
:105A50008083E091EC03F091ED038081806180838D
:105A6000E091EC03F091ED03808188608083E09108
:105A7000EC03F091ED03808180688083E091EC037A
:105A8000F091ED0380818F7D808347E0442E512C7F
:105A9000612C712CDD24D394CE014E96A0969FAF3D
:105AA0008EAFA097DE015696A296BFAFAEAFA2977B
:105AB000FE013F96A496FFAFEEAFA4971E01F2E160
:105AC0002F0E311C8EE00E94F9069093D90380932B
:105AD000D8032FB7F8948091730390917403A09129
