:100000000C9462000C948A000C948A000C948A0070
:100010000C948A000C948A000C948A000C948A0038
:100020000C948A000C948A000C948A000C948A0028
:100030000C948A000C948A000C948A000C948A0018
:100040000C947A020C948A000C9448020C942202BC
:100050000C948A000C948A000C948A000C948A00F8
:100060000C948A000C948A000000000024002700F1
:100070002A0000000000250028002B0000000008D6
:10008000000201000003040700000000000000005F
:1000900000000000230026002900040404040404D6
:1000A0000404020202020202030303030303010227
:1000B00004081020408001020408102001020408F6
:1000C0001020C40211241FBECFEFD8E0DEBFCDBF89
:1000D00011E0A0E0B1E0E2E7FEE002C005900D9281
:1000E000A631B107D9F721E0A6E1B1E001C01D9228
:1000F000AA3DB207E1F710E0C2E6D0E004C02197C4
:10010000FE010E943107C136D107C9F70E94490399
:100110000C9437070C940000AF92BF92CF92DF92FD
:10012000EF92FF920F931F93CF93DF936C017B01AC
:100130008B01040F151FEB015E01AE18BF08C0173D
:10014000D10759F06991D601ED91FC910190F081B0
:10015000E02DC6010995892B79F7C501DF91CF9173
:100160001F910F91FF90EF90DF90CF90BF90AF90D5
:100170000895FC01538D448D252F30E0842F90E0AD
:10018000821B930B541710F0CF9608950197089592
:10019000FC01918D828D981761F0A28DAE0FBF2F5B
:1001A000B11D5D968C91928D9F5F9F73928F90E0B1
:1001B00008958FEF9FEF0895FC01918D828D981720
:1001C00031F0828DE80FF11D858D90E008958FEF5D
:1001D0009FEF0895FC01918D228D892F90E0805C26
:1001E0009F4F821B91098F73992708958FE191E0AA
:1001F0000E94EA0021E0892B09F420E0822F089573
:1002000080E090E0892B29F00E94F60081110C9487
:1002100000000895FC01A48DA80FB92FB11DA35AA9
:10022000BF4F2C91848D90E001968F739927848F16
:10023000A689B7892C93A089B1898C918370806439
:100240008C93938D848D981306C00288F389E02DDA
:1002500080818F7D80830895EF92FF920F931F938B
:10026000CF93DF93EC0181E0888F9B8D8C8D981369
:100270001AC0E889F989808185FF15C09FB7F89475
:10028000EE89FF896083E889F989808183708064C1
:1002900080839FBF81E090E0DF91CF911F910F910C
:1002A000FF90EF900895F62E0B8D10E00F5F1F4F1B
:1002B0000F731127E02E8C8D8E110CC00FB607FC2A
:1002C000FACFE889F989808185FFF5CFCE010E94B8
:1002D0000A01F1CFEB8DEC0FFD2FF11DE35AFF4F1B
:1002E000F0829FB7F8940B8FEA89FB898081806246
:1002F000CFCFCF93DF93EC01888D8823B9F0AA8903
:10030000BB89E889F9898C9185FD03C0808186FDD0
:100310000DC00FB607FCF7CF8C9185FFF2CF80811F
:1003200085FFEDCFCE010E940A01E9CFDF91CF9189
:10033000089590E0FC01E458FF4F2491FC01E25540
:10034000FF4F3491FC01E656FF4FE491EE23C9F0D4
:10035000222339F0233001F1A8F4213019F12230A1
:1003600029F1F0E0EE0FFF1FEE58FF4FA591B49179
:100370008FB7F894EC91611126C030953E233C93E1
:100380008FBF08952730A9F02830C9F0243049F7ED
:10039000809180008F7D03C0809180008F77809353
:1003A0008000DFCF84B58F7784BDDBCF84B58F7DB0
:1003B000FBCF8091B0008F778093B000D2CF809137
:1003C000B0008F7DF9CF3E2BDACFCF93DF9390E053
:1003D000FC01E255FF4F249186569F4FFC0184910A
:1003E0008823D1F090E0880F991FFC01E859FF4F56
:1003F000A591B491FC01EE58FF4FC591D4916111C4
:100400000EC09FB7F8948C91E22FE0958E238C93C9
:100410002881E223E8839FBFDF91CF9108958FB7B2
:10042000F894EC91E22BEC938FBFF6CF2FB7F894B2
:1004300060911B0170911C0180911D0190911E0122
:100440002FBF08951F920F920FB60F9211242F9372
:100450003F934F935F936F937F938F939F93AF934C
:10046000BF93EF93FF938FE191E00E940A01FF9108
:10047000EF91BF91AF919F918F917F916F915F911C
:100480004F913F912F910F900FBE0F901F90189595
:100490001F920F920FB60F9211242F938F939F9359
:1004A000EF93FF93E0912F01F09130018081E09173
:1004B0003501F091360182FD1BC090818091380199
:1004C0008F5F8F7320913901821741F0E0913801DD
:1004D000F0E0E15EFE4F958F80933801FF91EF9140
:1004E0009F918F912F910F900FBE0F901F90189595
:1004F0008081F4CF1F920F920FB60F9211242F9389
:100500003F938F939F93AF93BF9380911B019091E3
:100510001C01A0911D01B0911E0130911A0123E030
:10052000230F2D3758F50196A11DB11D20931A01F7
:1005300080931B0190931C01A0931D01B0931E0199
:100540008091160190911701A0911801B0911901A5
:100550000196A11DB11D8093160190931701A093E0
:100560001801B0931901BF91AF919F918F913F9165
:100570002F910F900FBE0F901F90189526E8230F14
:100580000296A11DB11DD2CFCF93DF93EFE1F1E031
:100590001382128288EE93E0A0E0B0E0848395831A
:1005A000A683B78384E091E09183808385EC90E01B
:1005B0009587848784EC90E09787868780EC90E02D
:1005C000918B808B81EC90E0938B828B82EC90E01E
:1005D000958B848B86EC90E0978B868B118E128E98
:1005E000138E148ECCEBD1E081E090E09983888368
:1005F00086E391E09F838E8380EE95E7A9E0B0E0EB
:1006000088879987AA87BB8780E29EE4A0E0B0E054
:100610008C879D87AE87BF8761E084E00E94E501FB
:1006200060E082E00E94E50160E084E00E949901C0
:10063000E2EBF0E0E491E88FEEE9F0E0E491F0E045
:10064000EE0FFF1FE057FF4F859194919A8F898F8E
:10065000E0EBF0E0E491EB8FECE9F0E0E491F0E026
:10066000EE0FFF1FE057FF4F859194919D8F8C8F68
:100670008FEF9FEFAFEFBFE08A839B83AC83BD8397
:100680000E941602688B798B8A8B9B8BDF91CF91AE
:100690000895CF93DF93CDB7DEB7A1970FB6F89447
:1006A000DEBF0FBECDBF789484B5826084BD84B5B3
:1006B000816084BD85B5826085BD85B5816085BD5D
:1006C00080916E00816080936E0010928100809115
:1006D000810082608093810080918100816080939D
:1006E0008100809180008160809380008091B100C2
:1006F00084608093B1008091B00081608093B000ED
:1007000080917A00846080937A0080917A00826080
:1007100080937A0080917A00816080937A00809142
:100720007A00806880937A001092C10061E08BE0CB
:100730000E94E501E0912F01F091300182E0808379
:10074000E0912B01F0912C011082E0912D01F091AC
:100750002E018FEC808310923701E0913301F091EC
:10076000340186E08083E0913101F0913201808193
:1007700080618083E0913101F09132018081886055
:100780008083E0913101F091320180818068808323
:10079000E0913101F091320180818F7D80832AE0E8
:1007A000C22ED12CE12CF12C33E2232E312C442407
:1007B0004A94542C642C4FE0742E0E94160210921E
:1007C000D0011092D1011092D2011092D3018091E8
:1007D000BC019091BD0197FDECC12EE1F894E09130
:1007E000D501F091D60192818091D4018095892321
:1007F0008283E091D801F091D90191818091D70154
:10080000809589238183E091D801F091D90192816B
:100810008091D701809589238283E091D801F0915E
:10082000D90181819091D701892B8183E091D801F1
:10083000F091D90192818091D7018095892382839B
:10084000C1010197F1F7E091D801F091D9019181AF
:100850008091D701809589238183E091D801F0911F
:10086000D90192818091D701809589238283E0917B
:10087000D501F091D60182819091D401892B828398
:100880007894E091D801F091D9013091D70140914D
:10089000C4015091C5016091C6017091C7011081DA
:1008A0008091D0019091D101A091D201B091D3015A
:1008B000132389F484179507A607B70760F40196F8
:1008C000A11DB11D8093D0019093D101A093D201BD
:1008D000B093D301E4CF481759076A077B0708F0A4
:1008E0004FC09EEF892E99249A94A92CB92C60E0D0
:1008F0008BE00E949901B7FE30C16DE28FE191E07B
:100900000E942C0122273327A901281939094A09F5
:100910005B0919A28E010F5D1F4FCA01B901A70122
:1009200096010E940F07605DF80162938F01211507
:1009300031054105510589F70115110561F0019057
:100940000020E9F73197AF01401B510BB8018FE14F
:1009500091E00E948C0042E050E062E171E08FE1A2
:1009600091E00E948C0080E090E0892B09F425CF73
:100970000E94F600882309F420CF0E9400001DCFBA
:10098000F894E091D801F091D90182819091D7013A
:10099000892B8283E091D801F091D90181819091D6
:1009A000D701892B8183E091D801F091D90182810F
:1009B0009091D701892B8283E091D801F091D901E0
:1009C00091818091D701809589238183E091D8011D
:1009D000F091D90192818091D701809589238283FA
:1009E000E091D501F091D60192818091D40180955A
:1009F000892382837894E091D801F091D9013091D4
:100A0000D7014091C4015091C5016091C601709118
:100A1000C70110818091D0019091D101A091D201A4
:100A2000B091D301132309F0AEC084179507A60730
:100A3000B70708F056CF215009F0D0CE0E94160219
:100A40000091CC011091CD012091CE013091CF01C8
:100A5000601B710B820B930B0091C8011091C901AF
:100A60002091CA013091CB010617170728073907D3
:100A700008F03FC08090D0019090D101A090D201A9
:100A8000B090D3016091BE017091BF018091C0010F
:100A90009091C10186169706A806B90609F485C08B
:100AA000861A970AA80AB90A0E9414062DEC3CEC93
:100AB0004CEC5DE30E947A060E94DE05072E000CD6
:100AC000880B990B86169706A806B90690F44092F3
:100AD000BE015092BF016092C0017092C1010E949C
:100AE00016026093CC017093CD018093CE01909358
:100AF000CF018090D0019090D101A090D201B09010
:100B0000D3018091BE019091BF01A091C001B0912D
:100B1000C10188169906AA06BB0640F48092BE0160
:100B20009092BF01A092C001B092C1018091BE011C
:100B30009091BF01A091C001B091C101881A990A9A
:100B4000AA0ABB0A85E688169104A104B1040CF434
:100B5000CECE61E08BE00E949901A501940119A21B
:100B60008E010F5D1F4FCA01B901A70196010E94B6
:100B70000F07605DF80162938F0121153105410572
:100B8000510589F7D9CE84179507A607B70708F04E
:100B9000A8CE0196A11DB11D8093D0019093D101E3
:100BA000A093D201B093D30134CF812C912C540166
:100BB0007BCF88248A94982C540199CE0E94E50515
:100BC0006894B1110C94740608950E94590688F037
:100BD0009F5798F0B92F9927B751B0F0E1F0660F01
:100BE000771F881F991F1AF0BA95C9F714C0B13042
:100BF00091F00E947306B1E008950C947306672F7C
:100C0000782F8827B85F39F0B93FCCF38695779570
:100C10006795B395D9F73EF4909580957095619559
:100C20007F4F8F4F9F4F0895E89409C097FB3EF484
:100C300090958095709561957F4F8F4F9F4F992329
:100C4000A9F0F92F96E9BB279395F69587957795A7
:100C50006795B795F111F8CFFAF4BB0F11F460FF67
:100C60001BC06F5F7F4F8F4F9F4F16C0882311F0BF
:100C700096E911C0772321F09EE8872F762F05C0D3
:100C8000662371F096E8862F70E060E02AF09A956E
:100C9000660F771F881FDAF7880F9695879597F963
:100CA000089557FD9058440F551F59F05F3F71F05C
:100CB0004795880F97FB991F61F09F3F79F08795C3
:100CC0000895121613061406551FF2CF4695F1DF4C
:100CD00008C0161617061806991FF1CF86957105DC
:100CE000610508940895E894BB2766277727CB0110
:100CF00097F908950E948D060C94FE060E94F00656
:100D000038F00E94F70620F0952311F00C94E706C6
:100D10000C94ED0611240C9474060E94510670F395
:100D2000959FC1F3950F50E0551F629FF001729F90
:100D3000BB27F00DB11D639FAA27F00DB11DAA1F9F
:100D4000649F6627B00DA11D661F829F2227B00DEC
:100D5000A11D621F739FB00DA11D621F839FA00D77
:100D6000611D221F749F3327A00D611D231F849FC7
:100D7000600D211D822F762F6A2F11249F5750401E
:100D80009AF0F1F088234AF0EE0FFF1FBB1F661F99
:100D9000771F881F91505040A9F79E3F510580F062
:100DA0000C94E7060C9474065F3FE4F3983ED4F38A
:100DB000869577956795B795F795E7959F5FC1F706
:100DC000FE2B880F911D9695879597F9089597F9B1
:100DD0009F6780E870E060E008959FEF80EC0895E1
:100DE00000240A941616170618060906089500240A
:100DF0000A9412161306140605060895092E039484
:100E0000000C11F4882352F0BB0F40F4BF2B11F4F7
:100E100060FF04C06F5F7F4F8F4F9F4F0895A1E227
:100E20001A2EAA1BBB1BFD010DC0AA1FBB1FEE1F64
:100E3000FF1FA217B307E407F50720F0A21BB30BAF
:100E4000E40BF50B661F771F881F991F1A9469F72B
:100E500060957095809590959B01AC01BD01CF0187
:100E60000895EE0FFF1F0590F491E02D0994F8947A
:020E7000FFCFB2
:100E7200000000002C018C00B9007901EA00C800D2
:060E8200DC000D0A000077
:00000001FF
