:100000000C945D000C9485000C9485000C94850084
:100010000C9485000C9485000C9485000C9485004C
:100020000C9485000C9485000C9485000C9485003C
:100030000C9485000C9485000C9485000C9485002C
:100040000C9473010C9485000C9475040C94B80402
:100050000C9485000C9485000C9485000C9485000C
:100060000C9485000C94850000000007000201003C
:100070000003040600000000000000000102040864
:100080001020408001020408102001020408102002
:10009000040404040404040402020202020203032E
:1000A0000303030300000000250028002B000000CC
:1000B0000000240027002A00770511241FBECFEF7F
:1000C000D8E0DEBFCDBF11E0A0E0B1E0E8E0FCE0A9
:1000D00002C005900D92A831B107D9F721E0A8E13F
:1000E000B1E001C01D92AD3CB207E1F710E0CDE5F3
:1000F000D0E004C02197FE010E94FC05CC35D10759
:10010000C9F70E94BF020C9402060C94000060E044
:10011000809100010E94080161E0809104010E9429
:10012000080161E0809102010E94080140E855E267
:1001300060E070E083E291E00C94F304CF93DF93EE
:10014000809100010E9443026FEF73E00E94B205AC
:100150002FEF269FC001279F900D11249093190126
:10016000809318014AE050E0BC0183E291E00E94D4
:10017000C9036091180170911901C4E0D1E0888130
:100180000E94600268EE73E080E090E00E94E2016D
:10019000609118017091190188810E94600260913C
:1001A000180170911901809102010E94600268EEAD
:1001B00073E080E090E0DF91CF910C94E201833016
:1001C00081F028F4813099F08230A1F008958630D2
:1001D000A9F08730B9F08430D1F4809180008F7D10
:1001E00003C0809180008F7780938000089584B54C
:1001F0008F7702C084B58F7D84BD08958091B00053
:100200008F7703C08091B0008F7D8093B0000895F8
:10021000CF93DF9390E0FC01E458FF4F2491FC0161
:10022000E057FF4F8491882361F190E0880F991F78
:10023000FC01E255FF4FC591D491FC01EC55FF4FF5
:10024000A591B491611109C09FB7F8948881209558
:1002500082238883EC912E230BC0623061F49FB718
:10026000F8948881322F309583238883EC912E2B4C
:100270002C939FBF06C08FB7F894E8812E2B28835C
:100280008FBFDF91CF9108951F93CF93DF93282FD6
:1002900030E0F901E859FF4F8491F901E458FF4F2C
:1002A000D491F901E057FF4FC491CC23C1F0162F30
:1002B00081110E94DF00EC2FF0E0EE0FFF1FEC55E4
:1002C000FF4FA591B4919FB7F894111104C08C9180
:1002D000D095D82302C0EC91DE2BDC939FBFDF9139
:1002E000CF911F9108951F920F920FB60F92112474
:1002F0002F933F938F939F93AF93BF9380911B0155
:1003000090911C01A0911D01B0911E0130911A0124
:1003100023E0230F2D3720F40196A11DB11D05C048
:1003200026E8230F0296A11DB11D20931A01809388
:100330001B0190931C01A0931D01B0931E0180919D
:100340001F0190912001A0912101B09122010196FD
:10035000A11DB11D80931F0190932001A093210145
:10036000B0932201BF91AF919F918F913F912F91B7
:100370000F900FBE0F901F9018953FB7F894809183
:100380001F0190912001A0912101B091220126B579
:10039000A89B05C02F3F19F00196A11DB11D3FBFBD
:1003A000BA2FA92F982F8827820F911DA11DB11D4B
:1003B000BC01CD0142E0660F771F881F991F4A9547
:1003C000D1F70895CF92DF92EF92FF92CF93DF9310
:1003D0006B017C010E94BD01EB01C114D104E10459
:1003E000F10479F00E94BD016C1B7D0B683E7340E7
:1003F000A0F381E0C81AD108E108F108C851DC4F28
:10040000ECCFDF91CF91FF90EF90DF90CF900895E8
:10041000789484B5826084BD84B5816084BD85B5DF
:10042000826085BD85B5816085BDEEE6F0E08081A6
:1004300081608083E1E8F0E01082808182608083C7
:10044000808181608083E0E8F0E08081816080834A
:10045000E1EBF0E0808184608083E0EBF0E080817C
:1004600081608083EAE7F0E080818460808380811E
:1004700082608083808181608083808180688083C6
:100480001092C10008958E3008F08E502091060120
:1004900090E4299F900111248770822B80937C0027
:1004A00080917A00806480937A0080917A0086FD42
:1004B000FCCF809178002091790090E0922B0895F4
:1004C0001F93CF93DF93182FEB0161E00E94080187
:1004D000209711F460E004C0CF3FD10539F461E00A
:1004E000812FDF91CF911F910C944401E12FF0E017
:1004F000E859FF4FE491E330F9F048F4E130B9F006
:10050000E230A1F584B5806284BDC8BD34C0E63058
:10051000E9F0E73019F1E43049F58091800080621C
:1005200080938000D0938B00C0938A0024C084B550
:10053000806884BDC7BD1FC08091800080688093A3
:100540008000D0938900C093880015C08091B000CE
:1005500080688093B000C093B3000DC08091B0005C
:1005600080628093B000C093B40005C0C038D1054C
:100570000CF0B5CFAFCFDF91CF911F9108950E94BE
:1005800008020E948700CFEAD4E00E949E002097D4
:10059000E1F30E94AF04F9CFCF92DF92EF92FF9286
:1005A0000F931F93CF93DF936C01EB017B01E40E5C
:1005B000F51E00E010E0CE15DF0561F06991D6016F
:1005C000ED91FC910190F081E02DC6010995080F95
:1005D000191FF1CFC801DF91CF911F910F91FF90AB
:1005E000EF90DF90CF9008956115710579F0FB01D0
:1005F00001900020E9F73197AF01461B570BDC0152
:10060000ED91FC910280F381E02D099480E090E06F
:100610000895DC01ED91FC910190F081E02D0994A9
:100620000F931F93CF93DF93EC016DE00E940903BA
:100630008C016AE0CE010E940903800F911FDF91B7
:10064000CF911F910F9108958F929F92AF92BF9279
:10065000CF92DF92EF92FF920F931F93CF93DF938E
:10066000CDB7DEB7A1970FB6F894DEBF0FBECDBFF2
:100670006C01142FE52FCB01022F19A2223008F4B0
:100680000AE07E0121E2E20EF11C802E912CA12CC9
:10069000B12C612F7E2FA50194010E94C605029FF7
:1006A0001019112481E0E81AF1081A3014F4105DD1
:1006B00001C0195CF7011083122FE32FCA01232B0D
:1006C000242B252B31F7B701C6010E94F402A19615
:1006D0000FB6F894DEBF0FBECDBFDF91CF911F9153
:1006E0000F91FF90EF90DF90CF90BF90AF909F90D1
:1006F0008F900895CF92DF92EF92FF920F931F9306
:10070000CF93DF932115310581F4DC01ED91FC914C
:100710000190F081E02D642FDF91CF911F910F9117
:10072000FF90EF90DF90CF9009942A30310501F5CA
:1007300077FF1DC06A017B01EC016DE20E94090395
:100740008C0144275527BA014C195D096E097F09B0
:100750002AE0CE010E942403800F911FDF91CF91E8
:100760001F910F91FF90EF90DF90CF9008952AE0B6
:10077000DF91CF911F910F91FF90EF90DF90CF907D
:100780000C9424039A01AB01770F660B770B0C9442
:100790007A030F931F93CF93DF93EC010E94C20360
:1007A0008C01CE010E941003800F911FDF91CF9129
:1007B0001F910F910895FC0124853585F901E05CB6
:1007C000FF4F80819181329620813181821B930B72
:1007D0008F7399270895DC011C96ED91FC911D976C
:1007E000DF01A05CBF4F2D913C91119712968D9126
:1007F0009C9111972817390739F08D919C91E80F3A
:10080000F91F808190E008958FEF9FEF0895FC011C
:10081000A485B585FD01E05CFF4F208131813296D2
:10082000808191812817390779F080819181A80F03
:10083000B91F8C91208131812F5F3F4F2F73332758
:100840003183208390E008958FEF9FEF0895FC019E
:1008500081A1882329F0A489B5898C9186FFFBCFDB
:1008600011A208950F931F93CF93DF93FC01A685E8
:10087000B7858D01005C1F4FE80188819981019641
:100880008F739927AD014E5B5F4FEA012881398153
:1008900028173907D1F3E80128813981A20FB31F46
:1008A0006C93A685B785A05CBF4F11969C938E93E1
:1008B000A689B7892C9181E090E0078C02C0880F4F
:1008C000991F0A94E2F7822B8C9381E081A304881C
:1008D000F589E02D80818064808381E090E0DF9164
:1008E000CF911F910F91089508951F920F920FB607
:1008F0000F9211242F934F935F938F939F93EF93B6
:10090000FF938091C00082FD1CC02091C6008091A1
:10091000C9019091CA014091CB015091CC0101963F
:100920008F7399274817590771F0E091C901F09129
:10093000CA01E757FE4F20839093CA018093C901F3
:1009400002C08091C600FF91EF919F918F915F91BE
:100950004F912F910F900FBE0F901F90189583E22B
:1009600091E00E94DB03892B11F00C94740408952C
:100970001F920F920FB60F9211242F933F938F93D4
:100980009F93EF93FF932091850130918601809191
:100990008701909188012817390731F48091C100AF
:1009A0008F7D8093C10014C0E0918701F091880190
:1009B000EB5BFE4F20818091870190918801019629
:1009C0008F73992790938801809387012093C600A5
:1009D000FF91EF919F918F913F912F910F900FBEBB
:1009E0000F901F901895CF92DF92EF92FF92CF93C6
:1009F000DF93EC016A017B014115514E61057105E0
:100A000009F1EC89FD8981E090E008A002C0880F1F
:100A1000991F0A94E2F7808360E079E08DE390E02B
:100A2000A70196010E94C605DA01C9010197A10933
:100A3000B109B695A795979587959C01211580E1F9
:100A40003807A8F0EC89FD89108260E874E88EE12F
:100A500090E0A70196010E94C605DA01C90101973D
:100A6000A109B109B695A795979587959C01E88945
:100A7000F9893083EA89FB89208319A2EE89FF89ED
:100A8000408181E090E09C010C8C02C0220F331F5A
:100A90000A94E2F7242B2083EE89FF8940819C0190
:100AA0000D8C02C0220F331F0A94E2F7242B2083FF
:100AB000EE89FF8940819C010E8C02C0220F331FFA
:100AC0000A94E2F7242B2083EE89FF8920810F8C82
:100AD00002C0880F991F0A94E2F7809582238083D1
:100AE000DF91CF91FF90EF90DF90CF900895E3E2F8
:100AF000F1E01382128288EE93E0A0E0B0E08483FC
:100B00009583A683B7838BE091E09183808389E806
:100B100091E09587848785E491E09787868785ECC7
:100B200090E0918B808B84EC90E0938B828B80ECB7
:100B300090E0958B848B81EC90E0978B868B82EC98
:100B400090E0918F808F86EC90E0938F828F84E08D
:100B5000848F83E0858F87E0868F85E0878F81E0B3
:100B600080A3089597FB072E16F4009407D077FD15
:100B700009D00E94E80507FC05D03EF490958195C8
:100B80009F4F0895709561957F4F0895A1E21A2EA9
:100B9000AA1BBB1BFD010DC0AA1FBB1FEE1FFF1F21
:100BA000A217B307E407F50720F0A21BB30BE40B71
:100BB000F50B661F771F881F991F1A9469F76095B8
:100BC0007095809590959B01AC01BD01CF01089572
:100BD000AA1BBB1B51E107C0AA1FBB1FA617B70763
:100BE00010F0A61BB70B881F991F5A95A9F780957F
:100BF0009095BC01CD010895EE0FFF1F0590F49173
:080C0000E02D0994F894FFCFE8
:100C08000E0009000A0001000000003204CC02DBDB
:080C1800030704EB03270400AD
:00000001FF
