:100000000C94F8020C9420030C9420030C9420030D
:100010000C9420030C9420030C9420030C942003D4
:100020000C9420030C9420030C9420030C942003C4
:100030000C9420030C9420030C9420030C942003B4
:100040000C9473080C9420030C9441080C941B0826
:100050000C9420030C9420030C9420030C94200394
:100060000C9420030C9420030000000025002800BD
:100070002B0000000008000201000003040700003C
:1000800000000000000000000000240027002A00FB
:100090004602000000FF0800053E5B4F5B3E053E48
:1000A0006B4F6B3E051C3E7C3E1C05183C7E3C188D
:1000B000051C577D571C051C5E7F5E1C0400183C08
:1000C0001805FFE7C3E7FF040018241805FFE7DB66
:1000D000E7FF0530483A060E05262979292605400E
:1000E0007F05050705407F05253F055A3CE73C5A3B
:1000F000057F3E1C1C0805081C1C3E7F0514227F42
:10010000221405FFFFFFFFFF05F0F0F0F0F003FF02
:10011000FFFF05000000FFFF050F0F0F0F0F050881
:10012000047E04080510207E20100508082A1C08FB
:1001300005081C2A080805AA005500AA05AA55AA00
:1001400055AA0530383E383005060E3E0E06020030
:1001500000015F0307000705147F147F1405444A5C
:10016000FF4A32056313086463053649493648017E
:1001700007033E41410341413E05082A1C2A080568
:1001800008083E08080260E00408080808026060E9
:10019000056010080403053E5149453E03427F4077
:1001A000057149494946054149494936050F08083D
:1001B000087F054F49494931053E49494930050302
:1001C0000101017F05364949493605064949493E3D
:1001D000026C6C026CEC0308142204141414140353
:1001E000221408050159090906053E415D594E05CD
:1001F0007E0909097E057F49494936053E4141414D
:1002000041057F4141413E057F49494941057F09FB
:10021000090901053E41414979057F0808087F0326
:10022000417F4105304141413F057F08142241058E
:100230007F40404040057F020C027F057F0408108C
:100240007F053E4141413E057F09090906053E41C2
:1002500041617E057F09192946054649494931050D
:1002600001017F0101053F4040403F051F20402024
:100270001F053F4038403F0563140814630503041D
:10028000780403056151494543037F414105030457
:100290000810600341417F050402010204048080CC
:1002A000808003010204043844447C047F444438C1
:1002B0000438444444043844447F043854545804B3
:1002C000047E05010418A4A47C047F040478017D45
:1002D0000384857C047F102844017F057C04780416
:1002E00078047C040478043844443804FC2424183A
:1002F00004182424FC047C040408045854543403D3
:10030000047F04043C40407C041C20407C053C40AD
:1003100030403C046C10106C041CA0A07C0464549D
:10032000544C0408364141017F044141360804021F
:10033000010201057F4141417F053E55555541056B
:100340003844443844057C2A2A3E14057E020206BD
:100350000605027E027E0205635549416305384465
:10036000443C0405407E201E200506027E02020851
:100370006313086463006060052A2A2A2A2A03514D
:100380004A4403444A51050000FF010303E080FF93
:100390000536123624360302050202181802101020
:1003A000053040FF0101041F01011E00000000098B
:1003B00001017F017F020C027F00000000000001AC
:1003C00000017D0418247E2404447E454105221C3E
:1003D000141C2205012A7C2A010177044E55553947
:1003E00003020002077E81BDA5A5817E0326292F79
:1003F0000508142A14220408080818030808080726
:100400007E81BD95A9817E050101010101030205DF
:100410000203242E24031915120315150A020201E2
:1004200004F82040780506097F017F0218180400AF
:1004300080A0C003121F10032629260522142A14A7
:100440000808402F1008041E117C08402F100804D3
:1004500062554C0915553F1008041E117C053048A3
:10046000484D40057815161478057814161578054A
:100470007A1514157A057816151679057815141558
:1004800078057814151478077E09097F49494105D4
:100490009EA1612121057C54554644057C54564556
:1004A00044057E55544546057C5554454403457ED8
:1004B0004403447E4503467D4603457C4505087F4D
:1004C00049413E057C0A11227D05384445463805E0
:1004D0003844464538053A4544453A053846454688
:1004E00039053845444538052214081422057C6234
:1004F0005A463E053C4041423C053C4042413C0599
:100500003C4241423C053C4140413C0502047A05E5
:1005100002043F12120C057E49494E30043845460C
:100520007C043844467D043846457E043A45467D81
:10053000043845447D04304A4D7A072054543854D9
:100540005458049CA2622204385556580438545614
:1005500059043856555A043855545902017A027ACA
:1005600001030279020302780204304B4B3C047A07
:10057000090A710430494A300430484A3104304A8B
:1005800049320432494A3104394444390508082AB9
:1005900008080438544C3804384142780438404242
:1005A00079043842417A043A40407A0418A0A2798A
:1005B00004FC282810041AA0A07A000000002300E0
:1005C00026002900040404040404040402020202B4
:1005D0000202030303030303010204081020408006
:1005E000010204081020010204081020BD08B00C0C
:1005F00011241FBECFEFD8E0DEBFCDBF11E0A0E0D9
:10060000B1E0ECE7F0E202C005900D92A236B1072E
:10061000D9F722E0A2E6B1E001C01D92AB33B207E8
:10062000E1F712E0C7EFD2E004C02197FE010E947B
:10063000FF0EC63FD107C9F70E94FC080C94311089
:100640000C940000AF92BF92CF92DF92EF92FF9294
:100650000F931F93CF93DF936C017B018B01040FEA
:10066000151FEB015E01AE18BF08C017D10759F086
:100670006991D601ED91FC910190F081E02DC601C8
:100680000995892B79F7C501DF91CF911F910F91C2
:10069000FF90EF90DF90CF90BF90AF900895FC0156
:1006A000538D448D252F30E0842F90E0821B930BD7
:1006B000541710F0CF96089501970895FC01918D7D
:1006C000828D981761F0A28DAE0FBF2FB11D5D9680
:1006D0008C91928D9F5F9F73928F90E008958FEF22
:1006E0009FEF0895FC01918D828D981731F0828DD6
:1006F000E80FF11D858D90E008958FEF9FEF08952D
:10070000FC01918D228D892F90E0805C9F4F821B90
:1007100091098F73992708958BE791E00E948003D8
:1007200021E0892B09F420E0822F089580E090E0F9
:10073000892B29F00E948C0381110C9400000895EC
:10074000FC01A48DA80FB92FB11DA35ABF4F2C9146
:10075000848D90E001968F739927848FA689B7893D
:100760002C93A089B1898C91837080648C93938D34
:10077000848D981306C00288F389E02D80818F7DD7
:1007800080830895EF92FF920F931F93CF93DF938F
:10079000EC0181E0888F9B8D8C8D98131AC0E889BD
:1007A000F989808185FF15C09FB7F894EE89FF898C
:1007B0006083E889F98980818370806480839FBF2A
:1007C00081E090E0DF91CF911F910F91FF90EF902A
:1007D0000895F62E0B8D10E00F5F1F4F0F7311273A
:1007E000E02E8C8D8E110CC00FB607FCFACFE88975
:1007F000F989808185FFF5CFCE010E94A003F1CF5A
:10080000EB8DEC0FFD2FF11DE35AFF4FF0829FB7E8
:10081000F8940B8FEA89FB8980818062CFCFCF93D8
:10082000DF93EC01888D8823B9F0AA89BB89E88918
:10083000F9898C9185FD03C0808186FD0DC00FB6BE
:1008400007FCF7CF8C9185FFF2CF808185FFEDCF3C
:10085000CE010E94A003E9CFDF91CF91089590E0EF
:10086000FC01EE58FF4F2491FC01E852FA4F3491FD
:10087000FC01EC53FA4FE491EE23C9F0222339F046
:10088000233001F1A8F4213019F1223029F1F0E0F0
:10089000EE0FFF1FE859FF4FA591B4918FB7F89461
:1008A000EC91611126C030953E233C938FBF089593
:1008B0002730A9F02830C9F0243049F78091800012
:1008C0008F7D03C0809180008F7780938000DFCF81
:1008D00084B58F7784BDDBCF84B58F7DFBCF8091CE
:1008E000B0008F778093B000D2CF8091B0008F7D21
:1008F000F9CF3E2BDACFCF93DF9390E0FC01E852A3
:10090000FA4F24918C539A4FFC0184918823D1F0A3
:1009100090E0880F991FFC01EA57FF4FA591B49111
:10092000FC01E859FF4FC591D49161110EC09FB7EA
:10093000F8948C91E22FE0958E238C932881E2230A
:10094000E8839FBFDF91CF9108958FB7F894EC9122
:10095000E22BEC938FBFF6CF3FB7F89480916701FD
:1009600090916801A0916901B0916A0126B5A89B98
:1009700005C02F3F19F00196A11DB11D3FBFBA2F31
:10098000A92F982F8827BC01CD01620F711D811DF1
:10099000911D42E0660F771F881F991F4A95D1F776
:1009A00008958F929F92AF92BF92CF92DF92EF9273
:1009B000FF926B017C010E94AC044B015C01C114ED
:1009C000D104E104F104B9F00E94AC04681979097A
:1009D0008A099B09683E73408105910580F321E0F7
:1009E000C21AD108E108F10888EE880E83E0981E4B
:1009F000A11CB11CE4CFFF90EF90DF90CF90BF908F
:100A0000AF909F908F900895EF92FF920F931F9356
:100A1000CF93DF93809120028823A1F080917A0107
:100A2000882361F08FB7F89490917A01913071F535
:100A30009DB3909379019DB39DBB8FBF80E58CBD25
:100A400081E08DBD60E080911F020E942F048091A3
:100A500020028823F1F030E020E08091210290E034
:100A6000880F991F2817390708F03DC0E09124022C
:100A7000F0912502E20FF31F80818EBD00000DB4BE
:100A800007FEFDCF8EB52F5F3F4FE7CF80937901F3
:100A9000D5CFD0E0C0E08091210290E0880F991F6F
:100AA000C817D90700F5E0912402F0912502EC0F58
:100AB000FD1F0081F0901E02E0901D0218E0602FE3
:100AC000661F6627661F8E2D0E942F04000F61E0AF
:100AD0008F2D0E942F0460E08F2D0E942F04115053
:100AE00071F72196D8CF61E080911F020E942F04F8
:100AF00080912002882371F080917A01882351F03F
:100B00009FB7F89420917A0180917901213049F4BE
:100B10008DBB9FBFDF91CF911F910F91FF90EF9001
:100B200008958FBFF7CFE8E1F2E0418550E0440F30
:100B3000551F70E060E0848595850C942A10EF9233
:100B4000FF920F931F93CF93DF93FF24F394D0E092
:100B5000C0E001E010E0B9E0EB2E0E94930598019F
:100B60000C2E02C0220F331F0A94E2F7E0E090E05F
:100B700080912102E817E0F5EE9DB0011124A091CB
:100B80002202B0912302A60FB71F18964C9150E095
:100B900042235323452B51F14E2F50E08150990BA6
:100BA000841B950B880F991FA0912402B0912502F8
:100BB000A80FB91FFC92A0912202B0912302A60FA8
:100BC000B71FAC0FBD1F6C91809121028150990B12
:100BD000841B950B880F991F409124025091250288
:100BE000840F951FDC0111966C9391E0EF5FC0CFED
:100BF00091110E9404052196F394C830D10509F0A3
:100C0000ACCF80E099E020912102821758F4E09166
:100C10002202F0912302899FE00DF11D112410861C
:100C20008F5FF1CFDF91CF911F910F91FF90EF90E8
:100C30000895DF92EF92FF920F931F93CF93DF936C
:100C400099E0899F80011124F12CE12CC82FD0E07C
:100C5000DD24D394DE0CE0912202F0912302E00F18
:100C6000F11F808590E00E2C02C0959587950A941F
:100C7000E2F780FF2DC00E949305809121028150F0
:100C8000990B8C1B9D0B880F991F2091240230918A
:100C90002502820F931FFC01D082E0912202F09185
:100CA0002302E00FF11FEE0DFF1D40812091210274
:100CB0002150330B2C1B3D0B220F331F809124023C
:100CC00090912502280F391FF90141830E940405E4
:100CD000FFEFEF1AFF0A88E0E816F10409F0B8CF39
:100CE0008091220290912302080F191FF8011086AB
:100CF000DF91CF911F910F91FF90EF90DF900895BA
:100D0000FF920F931F93CF93DF93EC018B01F09031
:100D10002102FA940E94930560E0702F872F9AE0D9
:100D2000C230D10559F0A8F59BE0C130D10531F0B2
:100D300081E00115110509F080E09CE0462F50E0AC
:100D4000209121022150330B241B350B220F331F1E
:100D5000E0912402F0912502E20FF31F908320918D
:100D600021022150330B241B350B220F331F4091DE
:100D7000240250912502240F351FF90181836F5FF2
:100D8000F61660F6DF91CF911F910F91FF900C94B2
:100D90000405C330D10559F0C430D10549F681E0CE
:100DA0000115110509F480E0819599E0C7CF81E034
:100DB0000115110509F480E09FE0C0CF90E069E0E3
:100DC00058E04FEF969F90011124A0912202B0911C
:100DD0002302A20FB31FFD01752F11927A95E9F737
:100DE000E0912202F0912302E20FF31F40879F5F00
:100DF000891740F780912A0281110C949F0508956C
:100E0000FC0101900020E9F73197AF01481B590B15
:100E1000BC018BE791E00C9422038F929F92AF92DA
:100E2000BF920F931F93CF93DF93CDB7DEB7A197F8
:100E30000FB6F894DEBF0FBECDBF19A2423008F442
:100E40004AE08E010F5D1F4F842E912CB12CA12CF6
:100E5000A50194010E94FD0CE62FB901CA01EA30F8
:100E6000F4F4E05DD801EE938D01232B242B252B88
:100E700079F790E080E0109719F0CD010E9400070B
:100E8000A1960FB6F894DEBF0FBECDBFDF91CF9114
:100E90001F910F91BF90AF909F908F900895E95C44
:100EA000E1CF4F925F926F927F928F929F92AF921B
:100EB000BF92CF92DF92EF92FF926B017C01AC0167
:100EC0009B010E94FA0E8823C1F088E191E00E9404
:100ED00000077C0184E291E00E9400078E0D9F1DB7
:100EE000FF90EF90DF90CF90BF90AF909F908F904A
:100EF0007F906F905F904F90089546015701E8945E
:100F0000B7F82FEF3FEF4FE75FE7C501B4010E944D
:100F1000FA0E81110DC02FEF3FEF4FE75FE7C501DC
:100F2000B4010E949B0D18161CF48CE191E0CFCF08
:100F30002FEF3FEF4FE75FE4C701B6010E94880E35
:100F400018161CF480E291E0C2CF2FEF3FEF4FE77D
:100F50005FECC701B6010E949B0D87FDF3CF20E037
:100F600030E0A901C701B6010E949B0DB12CA12C54
:100F700087FF0AC06DE28BE791E00E94C2035C012B
:100F8000F7FAF094F7F8F0942AE037ED43EA5BE3E0
:100F9000C701B6010E942F0D2B013C010E94A70D35
:100FA0006B017C010E94D60D9B01AC01C301B20113
:100FB0000E942E0D2B013C014AE0C701B6010E94A0
:100FC0000D077C01EA0CFB1C6EE28BE791E00E94AE
:100FD000C203E80EF91E20E030E040E251E4C30114
:100FE000B2010E948D0E2B013C010E94A70D4B0106
:100FF000B12CA12C4AE0C501B4010E940D07E80EF6
:10100000F91EC501B4010E94D60D9B01AC01C301BC
:10101000B2010E942E0D20E030E040E251E40E9437
:101020008D0E0E94A70D90E080E04AE00E940D071F
:10103000E80EF91E4FCF1F920F920FB60F92112498
:101040002F933F934F935F936F937F938F939F93D0
:10105000AF93BF93EF93FF938BE791E00E94A003C0
:10106000FF91EF91BF91AF919F918F917F916F9180
:101070005F914F913F912F910F900FBE0F901F9056
:1010800018951F920F920FB60F9211242F938F93E2
:101090009F93EF93FF93E0918B01F0918C018081FE
:1010A000E0919101F091920182FD1BC090818091AD
:1010B00094018F5F8F7320919501821741F0E09129
:1010C0009401F0E0E558FE4F958F80939401FF91D5
:1010D000EF919F918F912F910F900FBE0F901F90C6
:1010E00018958081F4CF1F920F920FB60F921124A2
:1010F0002F933F938F939F93AF93BF9380916301FF
:1011000090916401A0916501B091660130916201F6
:1011100023E0230F2D3758F50196A11DB11D209313
:1011200062018093630190936401A0936501B09381
:1011300066018091670190916801A0916901B09169
:101140006A010196A11DB11D80936701909368010A
:10115000A0936901B0936A01BF91AF919F918F9164
:101160003F912F910F900FBE0F901F90189526E87A
:10117000230F0296A11DB11DD2CFEBE7F1E0138240
:10118000128288EE93E0A0E0B0E084839583A6838A
:10119000B7838AE091E09183808385EC90E0958726
:1011A000848784EC90E09787868780EC90E0918B31
:1011B000808B81EC90E0938B828B82EC90E0958B1E
:1011C000848B86EC90E0978B868B118E128E138E1B
:1011D000148EE8E1F2E08AE085838BE0868389E083
:1011E0008783108684E0818781E0828B1182108260
:1011F0008283838314820895CF93DF9300D000D03D
:1012000000D01F92CDB7DEB7789484B5826084BDDC
:1012100084B5816084BD85B5826085BD85B58160FA
:1012200085BD80916E00816080936E001092810078
:101230008091810082608093810080918100816033
:1012400080938100809180008160809380008091F4
:10125000B10084608093B1008091B0008160809380
:10126000B00080917A00846080937A0080917A0047
:10127000826080937A0080917A00816080937A0006
:1012800080917A00806880937A001092C100E0918A
:101290008B01F0918C0182E08083E0918701F091D5
:1012A00088011082E0918901F0918A018FEC80839E
:1012B00010929301E0918F01F091900186E080837C
:1012C000E0918D01F0918E01808180618083E091B9
:1012D0008D01F0918E01808188608083E0918D0185
:1012E000F0918E01808180688083E0918D01F09182
:1012F0008E0180818F7D808380912002882309F474
:10130000DEC02FB72983F89480916B01811127C02B
:10131000EEECF5E08491E2EEF5E09491E82FF0E058
:10132000EE0FFF1FEA57FF4FA591B491EC91E9230F
:1013300021F461E08AE00E942F0461E08AE00E94CB
:101340007B048CB580618CBD8CB580648CBD61E004
:101350008DE00E947B0461E08BE00E947B04809121
:101360006B018F5F80936B0139813FBF61E080919A
:101370001F020E947B0461E080911F020E942F04E3
:10138000109227021092260210922902109228022F
:10139000409121024983A9E04A9FC00111240E9483
:1013A000050F9093230280932202B9818B2F90E046
:1013B000880F991F0E94050F9093250280932402A5
:1013C00080912C0290912D028059904009F49CC08C
:1013D000E0E9F0E0F0932D02E0932C0210922E024F
:1013E00088E080932F0210923202109231028FEF28
:1013F00090E0909334028093330210923602109260
:101400003502E491E63409F033C0E1E9F0E0E4911B
:10141000E13009F45FC082E090E0E23029F5E2E9D2
:10142000F0E08491E3E9F0E0E49190E0982F8827E0
:101430008E0F911D9093320280933102E4E9F0E027
:101440008491E5E9F0E0E49190E0982F88278E0FF1
:10145000911D9093340280933302E6E9F0E0E49129
:10146000E0932F0287E090E090933602809335025C
:10147000C0903502D0903602F12CE12C209131023F
:1014800030913202409133025091340260E04217B1
:10149000530708F437C0F601E057FF4F84916817EF
:1014A00008F4682F90E0B0E0A0E00196A11DB11D06
:1014B000C80ED91EEA1EFB1E2F5F3F4FE8CF61E02A
:1014C00080911D020E947B0461E080911E020E94B7
:1014D0007B044CCFE2E9F0E0E491F0E0F0933202DB
:1014E000E0933102E3E9F0E0E491F0E0F0933402BC
:1014F000E0933302E4E9F0E0E491E0932F0285E029
:1015000090E0B2CF6093300270E060E083E090E062
:101510000E94800667E070E081E090E00E94800613
:1015200067E070E082E090E00E94800670E060E09A
:1015300084E090E00E9480068091210281500E9408
:10154000DE0670E060E090E080E00E948006412CC2
:10155000512C3201439437E0232E312CEFEDF5E08E
:101560000491EBECF5E08491E82FF0E0EE0FFF1F23
:10157000E654FA4F259134913F832E8310927401E3
:1015800010927501109276011092770110927801F5
:1015900061E087E00E947B0460E087E00E942F0406
:1015A00062E170E080E090E00E94D10461E087E0B9
:1015B0000E942F048BE990E00197F1F760E087E04B
:1015C0000E947B0480E991E0AE81BF812C912023B1
:1015D000B9F40197C9F780E090ECA9E7B4EC8093E7
:1015E0006C0190936D01A0936E01B0936F01809395
:1015F000700190937101A0937201B093730165C063
:1016000080E991E0EE81FF812081202319F001978C
:10161000C9F7E1CF88E2B82E10E8A12C80E991E06B
:10162000AE81BF812C91202319F40197C9F7D3CF44
:101630000E94AC046B017C0180E991E0EE81FF81A6
:101640002081202319F00197C9F7C5CF0E94AC046F
:101650006C197D098E099F09693271058105910513
:1016600038F0EA2DF0E0E459FE4F8085812B808729
:10167000169511F4A39410E8BA94B110CFCF61E09D
:1016800087E00E947B0461E087E00E942F04609164
:10169000740170E090E080E00E94D60D60936C01D0
:1016A00070936D0180936E0190936F01609176014C
:1016B00070E090E080E00E94D60D6093700170931E
:1016C0007101809372019093730187E291E00E940F
:1016D0000007609170017091710180917201909189
:1016E00073010E9451078CE391E00E940007609112
:1016F0006C0170916D0180916E0190916F010E945B
:10170000510760916C0170916D0180916E01909113
:101710006F010E94A00D9B01AC01225331094109C8
:101720005109A7E0B0E00E94F20C22E330E040E073
:1017300050E00E94D30CCA01B9010E94D80D6B0180
:10174000E82E99838EE491E00E940007B6018E2D69
:1017500099810E9451078091210281500E94DE06EA
:1017600020E030E040E85FE3B6018E2D99810E94D1
:101770002E0D6E83172F082FF92E20E030E0A901DF
:10178000B6018E2D99810E949B0D882309F4D5C046
:101790006E81712F802F9F2D0E94A70D683008F059
:1017A00070C0F0912102F983E0902A0210922A027F
:1017B000A62EB12CD301C20104C0880F991FAA1F05
:1017C000BB1F6A95D2F7C82E282F20952B83910135
:1017D0002A193B09D301C201022E04C0880F991FA8
:1017E000AA1FBB1F0A94D2F7D82E482F40954A83D0
:1017F0001D822C83932E8091210290911A029923AD
:1018000009F448C09D81981778F5A9E09A9FF001E6
:10181000112440912202509123024E0F5F1F8091AC
:101820001C02882399F18C81992D840F951F2FEF2D
:10183000DC012C938091220290912302E80FF91F82
:10184000808590911C02911123C09C2D892B80874B
:1018500080912A02882341F0809121023D8138172E
:1018600018F4832F0E941906BD81BF5FBD83898153
:1018700081508B1708F0BFCFE0922A02E1100E943E
:101880009F05CE80D12EE02EF9826ACFC501CDCF43
:101890009D2DDCCF4D81481738F789E0489FF00136
:1018A000112490E080E0AC012091220230912302CB
:1018B0002E0F3F1FA0911C0280901B026FEF70E063
:1018C000082E02C0759567950A94E2F760FF27C05D
:1018D000AA2319F0A101481B590BD901A40FB51F68
:1018E0002C913C2D81103D2D232B2C93019688307B
:1018F0009105C9F68091220290912302E80FF91F09
:101900009FEF908780912A02882309F4ADCF8091C0
:101910002102AD81A81708F0A7CF8A2FA3CFAA2351
:1019200019F0A101481B590BD901A40FB51F2C9127
:101930003B8181103A812323D8CF60ED77E080E0AE
:1019400090E00E94D10480E090E0892B09F406CE5B
:101950000E948C03882309F401CE0E940000FECD72
:1019600080912002882399F09FB7F89480916B01B1
:10197000882319F0815080936B0180916B01811154
:1019800005C08CB58F7B8CBD10927A019FBF809172
:101990002202909123020E94A10F80912402909133
:1019A00025020C94A10F052E97FB1EF400940E94B3
:1019B000EA0C57FD07D00E94FD0C07FC03D04EF443
:1019C0000C94EA0C50954095309521953F4F4F4F20
:1019D0005F4F089590958095709561957F4F8F4FDB
:1019E0009F4F08950E941F0DA59F900DB49F900DCD
:1019F000A49F800D911D11240895A1E21A2EAA1B07
:101A0000BB1BFD010DC0AA1FBB1FEE1FFF1FA217AE
:101A1000B307E407F50720F0A21BB30BE40BF50BAB
:101A2000661F771F881F991F1A9469F76095709534
:101A3000809590959B01AC01BD01CF010895A29FB7
:101A4000B001B39FC001A39F700D811D1124911D92
:101A5000B29F700D811D1124911D08955058BB2710
:101A6000AA270E94460D0C944E0E0E94400E38F09C
:101A70000E94470E20F039F49F3F19F426F40C948D
:101A80003D0E0EF4E095E7FB0C94370EE92F0E9413
:101A90005F0E58F3BA17620773078407950720F0A3
:101AA00079F4A6F50C94810E0EF4E0950B2EBA2F66
:101AB000A02D0B01B90190010C01CA01A001112454
:101AC000FF27591B99F0593F50F4503E68F11A1600
:101AD000F040A22F232F342F4427585FF3CF469591
:101AE00037952795A795F0405395C9F77EF41F16B3
:101AF000BA0B620B730B840BBAF09150A1F0FF0F7D
:101B0000BB1F661F771F881FC2F70EC0BA0F621F68
:101B1000731F841F48F4879577956795B795F79558
:101B20009E3F08F0B0CF9395880F08F09927EE0FED
:101B30009795879508950E94130E08F481E0089503
:101B40000E94A70D6894B1110C94820E08950E9412
:101B5000670E88F09F5798F0B92F9927B751B0F0CA
:101B6000E1F0660F771F881F991F1AF0BA95C9F721
:101B700014C0B13091F00E94810EB1E008950C9430
:101B8000810E672F782F8827B85F39F0B93FCCF3E3
:101B9000869577956795B395D9F73EF4909580959E
:101BA000709561957F4F8F4F9F4F0895E89409C0BE
:101BB00097FB3EF490958095709561957F4F8F4F80
:101BC0009F4F9923A9F0F92F96E9BB279395F69596
:101BD000879577956795B795F111F8CFFAF4BB0F14
:101BE00011F460FF1BC06F5F7F4F8F4F9F4F16C078
:101BF000882311F096E911C0772321F09EE8872F02
:101C0000762F05C0662371F096E8862F70E060E0BD
:101C10002AF09A95660F771F881FDAF7880F969536
:101C2000879597F90895990F0008550FAA0BE0E8DA
:101C3000FEEF16161706E807F907C0F0121613068E
:101C4000E407F50798F0621B730B840B950B39F4CE
:101C50000A2661F0232B242B252B21F408950A2634
:101C600009F4A140A6958FEF811D811D089597F974
:101C70009F6780E870E060E008959FEF80EC089532
:101C800000240A941616170618060906089500245B
:101C90000A9412161306140605060895092E0394D5
:101CA000000C11F4882352F0BB0F40F4BF2B11F449
:101CB00060FF04C06F5F7F4F8F4F9F4F089557FDA8
:101CC0009058440F551F59F05F3F71F04795880FAA
:101CD00097FB991F61F09F3F79F087950895121641
:101CE00013061406551FF2CF4695F1DF08C01616ED
:101CF00017061806991FF1CF86957105610508949E
:101D00000895E894BB2766277727CB0197F90895B4
:101D10000E94130E08F48FEF08950E94A00E0C94F9
:101D20004E0E0E94400E38F00E94470E20F0952380
:101D300011F00C94370E0C943D0E11240C94820E6D
:101D40000E945F0E70F3959FC1F3950F50E0551FF1
:101D5000629FF001729FBB27F00DB11D639FAA2700
:101D6000F00DB11DAA1F649F6627B00DA11D661F4F
:101D7000829F2227B00DA11D621F739FB00DA11D70
:101D8000621F839FA00D611D221F749F3327A00D2A
:101D9000611D231F849F600D211D822F762F6A2FC6
:101DA00011249F5750409AF0F1F088234AF0EE0F2B
:101DB000FF1FBB1F661F771F881F91505040A9F758
:101DC0009E3F510580F00C94370E0C94820E5F3FBD
:101DD000E4F3983ED4F3869577956795B795F79594
:101DE000E7959F5FC1F7FE2B880F911D969587950C
:101DF00097F908950E94130E880B990B0895EE0F22
:101E0000FF1F0590F491E02D09940F931F93CF933A
:101E1000DF938230910510F482E090E0E091390286
:101E2000F0913A0230E020E0B0E0A0E0309799F481
:101E30002115310509F44AC0281B390B243031051E
:101E4000D8F58A819B816115710589F1FB01938326
:101E50008283FE0111C040815181028113814817A4
:101E60005907E0F04817590799F4109761F0129656
:101E70000C93129713961C933296CF01DF91CF915A
:101E80001F910F9108950093390210933A02F4CFF5
:101E90002115310551F04217530738F0A901DB0134
:101EA0009A01BD01DF01F801C1CFEF01F9CF909395
:101EB0003A0280933902CDCFFE01E20FF31F8193E6
:101EC00091932250310939832883D7CF209137024B
:101ED00030913802232B41F420910201309103010B
:101EE0003093380220933702209100013091010194
:101EF0002115310541F42DB73EB7409104015091B1
:101F00000501241B350BE0913702F0913802E217EE
:101F1000F307A0F42E1B3F0B2817390778F0AC010C
:101F20004E5F5F4F2417350748F04E0F5F1F5093E9
:101F3000380240933702819391939FCFF0E0E0E025
:101F40009CCFCF93DF930097E9F0FC013297138287
:101F50001282A0913902B0913A02ED0130E020E006
:101F60001097A1F420813181820F931F20913702B5
:101F7000309138022817390709F061C0F093380210
:101F8000E0933702DF91CF910895EA01CE17DF0782
:101F9000E8F54A815B819E0141155105B1F7E901E0
:101FA000FB83EA8349915991C40FD51FEC17FD07B4
:101FB00061F4808191810296840F951FE9019983D4
:101FC0008883828193819B838A83F0E0E0E012968C
:101FD0008D919C9113970097B9F52D913C91119794
:101FE000CD010296820F931F209137023091380263
:101FF0002817390739F6309751F510923A021092A6
:102000003902B0933802A0933702BCCFD383C28386
:1020100040815181840F951FC817D90761F44E5F25
:102020005F4F88819981480F591F518340838A816E
:102030009B81938382832115310509F0B0CFF09302
:102040003A02E09339029ECFFD01DC01C0CF13823A
:102050001282D7CFDC0101C06D9341505040E0F7B0
:10206000089512E0C7EFD2E004C0FE010E94FF0E07
:0C2070002196C83FD107C9F7F894FFCFB4
:10207C0000003B02800000000000C20322034F035B
:10208C000F0480035E0372036E616E00696E66005E
:10209C006F7666000D0A0044485431312054656D4A
:1020AC007065726174757265203D2000444854312E
:1020BC00312048756D6964697479203D200044694C
:1020CC0073706C617965642068756D696469747985
:0220DC002000E2
:107E0000112484B714BE81FFF0D085E080938100F7
:107E100082E08093C00088E18093C10086E0809377
:107E2000C20080E18093C4008EE0C9D0259A86E02C
:107E300020E33CEF91E0309385002093840096BBD3
:107E4000B09BFECF1D9AA8958150A9F7CC24DD24C4
:107E500088248394B5E0AB2EA1E19A2EF3E0BF2EE7
:107E6000A2D0813461F49FD0082FAFD0023811F036
:107E7000013811F484E001C083E08DD089C08234E0
:107E800011F484E103C0853419F485E0A6D080C0E4
:107E9000853579F488D0E82EFF2485D0082F10E0AE
:107EA000102F00270E291F29000F111F8ED06801E7
:107EB0006FC0863521F484E090D080E0DECF843638
:107EC00009F040C070D06FD0082F6DD080E0C81688
:107ED00080E7D80618F4F601B7BEE895C0E0D1E017
:107EE00062D089930C17E1F7F0E0CF16F0E7DF06D8
:107EF00018F0F601B7BEE89568D007B600FCFDCFD4
:107F0000A601A0E0B1E02C9130E011968C91119780
:107F100090E0982F8827822B932B1296FA010C0160
:107F200087BEE89511244E5F5F4FF1E0A038BF0790
:107F300051F7F601A7BEE89507B600FCFDCF97BE46
:107F4000E89526C08437B1F42ED02DD0F82E2BD052
:107F50003CD0F601EF2C8F010F5F1F4F84911BD097
:107F6000EA94F801C1F70894C11CD11CFA94CF0C13
:107F7000D11C0EC0853739F428D08EE10CD085E9AC
:107F80000AD08FE07ACF813511F488E018D01DD067
:107F900080E101D065CF982F8091C00085FFFCCF94
:107FA0009093C60008958091C00087FFFCCF809118
:107FB000C00084FD01C0A8958091C6000895E0E648
:107FC000F0E098E1908380830895EDDF803219F02E
:107FD00088E0F5DFFFCF84E1DECF1F93182FE3DFCA
:107FE0001150E9F7F2DF1F91089580E0E8DFEE27F6
:047FF000FF270994CA
:027FFE00040479
:0400000300007E007B
:00000001FF
