:100000000C945D000C9485000C9485000C94850084
:100010000C9485000C9485000C9485000C9485004C
:100020000C9485000C9485000C9485000C9485003C
:100030000C9485000C9485000C9485000C9485002C
:100040000C9452030C9485000C94C2030C949C03F2
:100050000C9485000C9485000C9485000C9485000C
:100060000C9485000C94850000000008000201003B
:100070000003040700000000000000000000000072
:10008000250028002B0000000000240027002A0083
:10009000040404040404040402020202020203032E
:1000A0000303030301020408102040800102040836
:1000B0001020010204081020F40311241FBECFEF0A
:1000C000D8E0DEBFCDBF11E0A0E0B1E0EAE7FCE0A0
:1000D00002C005900D92A631B107D9F722E0A6E142
:1000E000B1E001C01D92A431B207E1F710E0CDE507
:1000F000D0E004C02197FE010E943506CC35D1071F
:10010000C9F70E94A5040C943B060C94000090E0F3
:10011000FC01EC55FF4F249180579F4FFC018491C7
:10012000882399F090E0880F991FFC01EA57FF4F50
:10013000A591B491FC01E458FF4F859194918FB73C
:10014000F894EC91E22BEC938FBF0895AF92BF929D
:10015000CF92DF92EF92FF920F931F93CF93DF9393
:100160006C017B018B01040F151FEB015E01AE18C2
:10017000BF08C017D10759F06991D601ED91FC91E4
:100180000190F081E02DC6010995892B79F7C50111
:10019000DF91CF911F910F91FF90EF90DF90CF9063
:1001A000BF90AF900895FC01538D448D252F30E012
:1001B000842F90E0821B930B541710F0CF96089574
:1001C00001970895FC01918D828D981761F0A28DA1
:1001D000AE0FBF2FB11D5D968C91928D9F5F9F7367
:1001E000928F90E008958FEF9FEF0895FC01918D1D
:1001F000828D981731F0828DE80FF11D858D90E08A
:1002000008958FEF9FEF0895FC01918D228D892F26
:1002100090E0805C9F4F821B91098F73992708950E
:100220008FE191E00E94040121E0892B09F420E094
:10023000822F089580E090E0892B29F00E94100120
:1002400081110C9400000895FC01A48DA80FB92F12
:10025000B11DA35ABF4F2C91848D90E001968F73EE
:100260009927848FA689B7892C93A089B1898C910D
:10027000837080648C93938D848D981306C002885C
:10028000F389E02D80818F7D80830895EF92FF9226
:100290000F931F93CF93DF93EC0181E0888F9B8DA9
:1002A0008C8D98131AC0E889F989808185FF15C063
:1002B0009FB7F894EE89FF896083E889F989808186
:1002C0008370806480839FBF81E090E0DF91CF9155
:1002D0001F910F91FF90EF900895F62E0B8D10E077
:1002E0000F5F1F4F0F731127E02E8C8D8E110CC0E6
:1002F0000FB607FCFACFE889F989808185FFF5CF31
:10030000CE010E942401F1CFEB8DEC0FFD2FF11DEA
:10031000E35AFF4FF0829FB7F8940B8FEA89FB896D
:1003200080818062CFCFCF93DF93EC01888D8823CB
:10033000B9F0AA89BB89E889F9898C9185FD03C048
:10034000808186FD0DC00FB607FCF7CF8C9185FF2D
:10035000F2CF808185FFEDCFCE010E942401E9CF4D
:10036000DF91CF91089590E0FC01E859FF4F24916F
:10037000FC01EC55FF4F3491FC01E057FF4FE49135
:10038000EE23C9F0222339F0233001F1A8F4213003
:1003900019F1223029F1F0E0EE0FFF1FE458FF4F72
:1003A000A591B4918FB7F894EC91611126C0309566
:1003B0003E233C938FBF08952730A9F02830C9F021
:1003C000243049F7809180008F7D03C080918000A8
:1003D0008F7780938000DFCF84B58F7784BDDBCFAC
:1003E00084B58F7DFBCF8091B0008F778093B00074
:1003F000D2CF8091B0008F7DF9CF3E2BDACFCF9254
:10040000DF92EF92FF920F931F93CF93DF9300D071
:10041000CDB7DEB769834A83880F991F0091120216
:1004200010911302000F111FECEBF1E09F012C5B08
:1004300031402017310714F41192F8CF2981FC01C3
:10044000E454FE4F21838A81808360E08091100212
:100450000E94B3011016110604F501501109F801AC
:10046000E454FE4FE080D0900E02C0900C0288E071
:10047000F82E6E2D661F6627661F8C2D0E94B30115
:10048000EE0C61E08D2D0E94B30160E08D2D0E9485
:10049000B301FA94F110EDCFDDCF61E0809110024D
:1004A0000F900F90DF91CF911F910F91FF90EF90E0
:1004B000DF90CF900C94B301EF92FF920F931F93B4
:1004C000CF937C018C0183E0000F111F8A95E1F727
:1004D00004531E4FC1E0F80111928F0140E06C2FD0
:1004E000C7010E94FF01CF5FC930A9F7CF911F91CB
:1004F0000F91FF90EF9008952F923F924F925F924D
:100500006F927F928F929F92AF92BF92CF92DF9223
:10051000EF92FF920F931F93CF93DF9300D01F9220
:10052000CDB7DEB7E22E932E842E752E662E572E73
:10053000482E99838CEB91E09B838A83FF24F3946C
:10054000D12CC12C80E8282E312C2E2D392D482D70
:10055000572D662D752D842D99810C2D0E941A061C
:1005600010E000E0A22EB12C8091120290911302B3
:1005700018161906ECF4C101002E02C09595879556
:100580000A94E2F7EA81FB812089A501002E02C0CE
:10059000559547950A94E2F740FF31C0822B808B36
:1005A000EA81FB8140896F2D90E080E00E94FF018D
:1005B0000F5F1F4F08301105B9F6F8E0CF0ED11CC0
:1005C0008A819B8101969B838A83F39499E0F91237
:1005D000BCCF0F900F900F90DF91CF911F910F9193
:1005E000FF90EF90DF90CF90BF90AF909F908F9053
:1005F0007F906F905F904F903F902F9008958095DF
:100600008223EA81FB81CBCF8F929F92AF92BF92E0
:100610000F931F93CF93DF93CDB7DEB7A1970FB69C
:10062000F894DEBF0FBECDBF19A2423008F44AE0F5
:100630008E010F5D1F4F842E912CB12CA12CA50192
:1006400094010E94E005E62FB901CA01EA3044F5A1
:10065000E05DD801EE938D01232B242B252B79F718
:1006600090E080E0109769F0FD0101900020E9F72B
:100670003197AF014A1B5B0BBD018FE191E00E94F6
:10068000A600A1960FB6F894DEBF0FBECDBFDF91D6
:10069000CF911F910F91BF90AF909F908F90089531
:1006A000E95CD7CF1F920F920FB60F9211242F93B0
:1006B0003F938F939F93AF93BF9380911B01909132
:1006C0001C01A0911D01B0911E0130911A0123E07F
:1006D000230F2D3758F50196A11DB11D20931A0146
:1006E00080931B0190931C01A0931D01B0931E01E8
:1006F0008091160190911701A0911801B0911901F4
:100700000196A11DB11D8093160190931701A0932E
:100710001801B0931901BF91AF919F918F913F91B3
:100720002F910F900FBE0F901F90189526E8230F62
:100730000296A11DB11DD2CF1F920F920FB60F923C
:1007400011242F933F934F935F936F937F938F93D6
:100750009F93AF93BF93EF93FF938FE191E00E943C
:100760002401FF91EF91BF91AF919F918F917F9164
:100770006F915F914F913F912F910F900FBE0F900E
:100780001F9018951F920F920FB60F9211242F935E
:100790008F939F93EF93FF93E0912F01F09130019E
:1007A0008081E0913501F091360182FD1BC090817E
:1007B000809138018F5F8F7320913901821741F04A
:1007C000E0913801F0E0E15EFE4F958F80933801B3
:1007D000FF91EF919F918F912F910F900FBE0F90EE
:1007E0001F9018958081F4CFCF93DF931092220150
:1007F0001092210188EE93E0A0E0B0E08093230105
:1008000090932401A0932501B093260184E091E008
:100810009093200180931F0185EC90E090932C0130
:1008200080932B0184EC90E090932E0180932D0116
:1008300080EC90E09093300180932F0181EC90E068
:10084000909332018093310182EC90E090933401D7
:100850008093330186EC90E09093360180933501CC
:10086000109238011092390110923A0110923B0116
:10087000CBE0D0E0D0930D02C0930C028AE090E070
:1008800090930F0280930E0289E090E09093110202
:100890008093100281E090E0909313028093120203
:1008A0008BE00E94870080910E020E948700809159
:1008B00010020E94870061E0809110020E94B30143
:1008C000D0930D02C0930C02ECECF1E0119282E0A7
:1008D000EC30F807D9F7D0E0C0E080911202909197
:1008E0001302C817D90774F540E06FE0CE010E94EB
:1008F000FF018091120290911302C817D9072CF4BE
:1009000047E06BE0CE010E94FF0140E069E0CE01CC
:100910000E94FF018091120290911302C817D9071B
:100920001CF4CE010E945C0280911202909113028D
:10093000C817D9072CF440E06CE0CE010E94FF01FB
:100940002196CBCFDF91CF910895789484B58260C2
:1009500084BD84B5816084BD85B5826085BD85B563
:10096000816085BD80916E00816080936E001092E1
:10097000810080918100826080938100809181005C
:1009800081608093810080918000816080938000ED
:100990008091B10084608093B1008091B00081604B
:1009A0008093B00080917A00846080937A00809177
:1009B0007A00826080937A0080917A0081608093CF
:1009C0007A0080917A00806880937A001092C1004A
:1009D00080911202909113021816190634F441E026
:1009E0006CE090E080E00E94FF0180911202909103
:1009F00013021816190634F448E06AE090E080E02B
:100A00000E94FF018091120290911302181619069C
:100A100024F490E080E00E945C02E0912F01F091CC
:100A2000300182E08083E0912B01F0912C01108253
:100A3000E0912D01F0912E018FEC8083109237010F
:100A4000E0913301F091340186E08083E09131013F
:100A5000F0913201808180618083E0913101F091D9
:100A60003201808188608083E0913101F091320110
:100A7000808180688083E0913101F0913201808132
:100A80008F7D808310E488EE882E83E0982EA12C41
:100A9000B12C90E0E92E90E0F92E10937C0080912B
:100AA0007A00806480937A0080917A0086FDFCCF82
:100AB00080917800C0917900DC2FC82F2E010D2E77
:100AC000000C660877084AE0C301B201D7FF0DC0E9
:100AD0006DE28FE191E00E94460166277727CB0106
:100AE00064197509860997094AE00E94040342E0E7
:100AF00050E062E171E08FE191E00E94A60027E002
:100B000030E0DE010E941106A50194010E94C1059A
:100B1000273031050CF120E036E646E650E063EC84
:100B200073EC8EE79CE30E947C028091120290910C
:100B300013021816190624F490E080E00E945C026B
:100B4000E114F10409F4A9CF0E941001882309F4EB
:100B5000A4CF0E940000A1CF243031054CF020E04A
:100B600036E646E650E060E07FEF8FEF90E0DBCFC7
:100B700020E036E646E650E06CE37EE787EE93EC55
:100B8000D2CF052E97FB1EF400940E94D80557FD86
:100B900007D00E94E00507FC03D04EF40C94D80562
:100BA00050954095309521953F4F4F4F5F4F089599
:100BB00090958095709561957F4F8F4F9F4F0895C9
:100BC000A1E21A2EAA1BBB1BFD010DC0AA1FBB1F51
:100BD000EE1FFF1FA217B307E407F50720F0A21BC3
:100BE000B30BE40BF50B661F771F881F991F1A9430
:100BF00069F760957095809590959B01AC01BD015A
:100C0000CF010895A29FB001B39FC001A39F700DB3
:100C1000811D1124911DB29F700D811D1124911D04
:100C200008950E940206B7FF0895821B930B089552
:100C300097FD1094002E083098F00850232F342F81
:100C4000452F562F672F782F892F912DF4CF15948C
:100C500097958795779567955795479537952795F4
:100C60000A95AAF71124002D0895EE0FFF1F059095
:0A0C7000F491E02D0994F894FFCFF1
:100C7A00000000004601A600D30093010401E2002F
:060C8A00F6000D0A000057
:107E0000112484B714BE81FFF0D085E080938100F7
:107E100082E08093C00088E18093C10086E0809377
:107E2000C20080E18093C4008EE0C9D0259A86E02C
:107E300020E33CEF91E0309385002093840096BBD3
:107E4000B09BFECF1D9AA8958150A9F7CC24DD24C4
:107E500088248394B5E0AB2EA1E19A2EF3E0BF2EE7
:107E6000A2D0813461F49FD0082FAFD0023811F036
:107E7000013811F484E001C083E08DD089C08234E0
:107E800011F484E103C0853419F485E0A6D080C0E4
:107E9000853579F488D0E82EFF2485D0082F10E0AE
:107EA000102F00270E291F29000F111F8ED06801E7
:107EB0006FC0863521F484E090D080E0DECF843638
:107EC00009F040C070D06FD0082F6DD080E0C81688
:107ED00080E7D80618F4F601B7BEE895C0E0D1E017
:107EE00062D089930C17E1F7F0E0CF16F0E7DF06D8
:107EF00018F0F601B7BEE89568D007B600FCFDCFD4
:107F0000A601A0E0B1E02C9130E011968C91119780
:107F100090E0982F8827822B932B1296FA010C0160
:107F200087BEE89511244E5F5F4FF1E0A038BF0790
:107F300051F7F601A7BEE89507B600FCFDCF97BE46
:107F4000E89526C08437B1F42ED02DD0F82E2BD052
:107F50003CD0F601EF2C8F010F5F1F4F84911BD097
:107F6000EA94F801C1F70894C11CD11CFA94CF0C13
:107F7000D11C0EC0853739F428D08EE10CD085E9AC
:107F80000AD08FE07ACF813511F488E018D01DD067
:107F900080E101D065CF982F8091C00085FFFCCF94
:107FA0009093C60008958091C00087FFFCCF809118
:107FB000C00084FD01C0A8958091C6000895E0E648
:107FC000F0E098E1908380830895EDDF803219F02E
:107FD00088E0F5DFFFCF84E1DECF1F93182FE3DFCA
:107FE0001150E9F7F2DF1F91089580E0E8DFEE27F6
:047FF000FF270994CA
:027FFE00040479
:0400000300007E007B
:00000001FF
