:100000000C94F8020C9420030C9420030C9420030D
:100010000C9420030C9420030C9420030C942003D4
:100020000C9420030C9420030C9420030C942003C4
:100030000C9420030C9420030C9420030C942003B4
:100040000C94AC080C9420030C947A080C9454087B
:100050000C9420030C9420030C9420030C94200394
:100060000C9420030C9420030000000025002800BD
:100070002B0000000008000201000003040700003C
:1000800000000000000000000000240027002A00FB
:100090004602000000FF0800053E5B4F5B3E053E48
:1000A0006B4F6B3E051C3E7C3E1C05183C7E3C188D
:1000B000051C577D571C051C5E7F5E1C0400183C08
:1000C0001805FFE7C3E7FF040018241805FFE7DB66
:1000D000E7FF0530483A060E05262979292605400E
:1000E0007F05050705407F05253F055A3CE73C5A3B
:1000F000057F3E1C1C0805081C1C3E7F0514227F42
:10010000221405FFFFFFFFFF05F0F0F0F0F003FF02
:10011000FFFF05000000FFFF050F0F0F0F0F050881
:10012000047E04080510207E20100508082A1C08FB
:1001300005081C2A080805AA005500AA05AA55AA00
:1001400055AA0530383E383005060E3E0E06020030
:1001500000015F0307000705147F147F1405444A5C
:10016000FF4A32056313086463053649493648017E
:1001700007033E41410341413E05082A1C2A080568
:1001800008083E08080260E00408080808026060E9
:10019000056010080403053E5149453E03427F4077
:1001A000057149494946054149494936050F08083D
:1001B000087F054F49494931053E49494930050302
:1001C0000101017F05364949493605064949493E3D
:1001D000026C6C026CEC0308142204141414140353
:1001E000221408050159090906053E415D594E05CD
:1001F0007E0909097E057F49494936053E4141414D
:1002000041057F4141413E057F49494941057F09FB
:10021000090901053E41414979057F0808087F0326
:10022000417F4105304141413F057F08142241058E
:100230007F40404040057F020C027F057F0408108C
:100240007F053E4141413E057F09090906053E41C2
:1002500041617E057F09192946054649494931050D
:1002600001017F0101053F4040403F051F20402024
:100270001F053F4038403F0563140814630503041D
:10028000780403056151494543037F414105030457
:100290000810600341417F050402010204048080CC
:1002A000808003010204043844447C047F444438C1
:1002B0000438444444043844447F043854545804B3
:1002C000047E05010418A4A47C047F040478017D45
:1002D0000384857C047F102844017F057C04780416
:1002E00078047C040478043844443804FC2424183A
:1002F00004182424FC047C040408045854543403D3
:10030000047F04043C40407C041C20407C053C40AD
:1003100030403C046C10106C041CA0A07C0464549D
:10032000544C0408364141017F044141360804021F
:10033000010201057F4141417F053E55555541056B
:100340003844443844057C2A2A3E14057E020206BD
:100350000605027E027E0205635549416305384465
:10036000443C0405407E201E200506027E02020851
:100370006313086463006060052A2A2A2A2A03514D
:100380004A4403444A51050000FF010303E080FF93
:100390000536123624360302050202181802101020
:1003A000053040FF0101041F01011E00000000098B
:1003B00001017F017F020C027F00000000000001AC
:1003C00000017D0418247E2404447E454105221C3E
:1003D000141C2205012A7C2A010177044E55553947
:1003E00003020002077E81BDA5A5817E0326292F79
:1003F0000508142A14220408080818030808080726
:100400007E81BD95A9817E050101010101030205DF
:100410000203242E24031915120315150A020201E2
:1004200004F82040780506097F017F0218180400AF
:1004300080A0C003121F10032629260522142A14A7
:100440000808402F1008041E117C08402F100804D3
:1004500062554C0915553F1008041E117C053048A3
:10046000484D40057815161478057814161578054A
:100470007A1514157A057816151679057815141558
:1004800078057814151478077E09097F49494105D4
:100490009EA1612121057C54554644057C54564556
:1004A00044057E55544546057C5554454403457ED8
:1004B0004403447E4503467D4603457C4505087F4D
:1004C00049413E057C0A11227D05384445463805E0
:1004D0003844464538053A4544453A053846454688
:1004E00039053845444538052214081422057C6234
:1004F0005A463E053C4041423C053C4042413C0599
:100500003C4241423C053C4140413C0502047A05E5
:1005100002043F12120C057E49494E30043845460C
:100520007C043844467D043846457E043A45467D81
:10053000043845447D04304A4D7A072054543854D9
:100540005458049CA2622204385556580438545614
:1005500059043856555A043855545902017A027ACA
:1005600001030279020302780204304B4B3C047A07
:10057000090A710430494A300430484A3104304A8B
:1005800049320432494A3104394444390508082AB9
:1005900008080438544C3804384142780438404242
:1005A00079043842417A043A40407A0418A0A2798A
:1005B00004FC282810041AA0A07A000000002300E0
:1005C00026002900040404040404040402020202B4
:1005D0000202030303030303010204081020408006
:1005E0000102040810200102040810203B09030C3A
:1005F00011241FBECFEFD8E0DEBFCDBF11E0A0E0D9
:10060000B1E0E0E9FBE102C005900D92AC32B10728
:10061000D9F721E0ACE2B1E001C01D92A83FB207DA
:10062000E1F712E0C7EFD2E004C02197FE010E947B
:10063000890CC63FD107C9F70E947A090C94BB0DFB
:100640000C940000AF92BF92CF92DF92EF92FF9294
:100650000F931F93CF93DF936C017B018B01040FEA
:10066000151FEB015E01AE18BF08C017D10759F086
:100670006991D601ED91FC910190F081E02DC601C8
:100680000995892B79F7C501DF91CF911F910F91C2
:10069000FF90EF90DF90CF90BF90AF900895FC0156
:1006A000538D448D252F30E0842F90E0821B930BD7
:1006B000541710F0CF96089501970895FC01918D7D
:1006C000828D981761F0A28DAE0FBF2FB11D5D9680
:1006D0008C91928D9F5F9F73928F90E008958FEF22
:1006E0009FEF0895FC01918D828D981731F0828DD6
:1006F000E80FF11D858D90E008958FEF9FEF08952D
:10070000FC01918D228D892F90E0805C9F4F821B90
:1007100091098F739927089588E391E00E948003DF
:1007200021E0892B09F420E0822F089580E090E0F9
:10073000892B29F00E948C0381110C9400000895EC
:10074000FC01A48DA80FB92FB11DA35ABF4F2C9146
:10075000848D90E001968F739927848FA689B7893D
:100760002C93A089B1898C91837080648C93938D34
:10077000848D981306C00288F389E02D80818F7DD7
:1007800080830895EF92FF920F931F93CF93DF938F
:10079000EC0181E0888F9B8D8C8D98131AC0E889BD
:1007A000F989808185FF15C09FB7F894EE89FF898C
:1007B0006083E889F98980818370806480839FBF2A
:1007C00081E090E0DF91CF911F910F91FF90EF902A
:1007D0000895F62E0B8D10E00F5F1F4F0F7311273A
:1007E000E02E8C8D8E110CC00FB607FCFACFE88975
:1007F000F989808185FFF5CFCE010E94A003F1CF5A
:10080000EB8DEC0FFD2FF11DE35AFF4FF0829FB7E8
:10081000F8940B8FEA89FB8980818062CFCFCF93D8
:10082000DF93EC01888D8823B9F0AA89BB89E88918
:10083000F9898C9185FD03C0808186FD0DC00FB6BE
:1008400007FCF7CF8C9185FFF2CF808185FFEDCF3C
:10085000CE010E94A003E9CFDF91CF91089590E0EF
:10086000FC01EE58FF4F2491FC01E852FA4F3491FD
:10087000FC01EC53FA4FE491EE23C9F0222339F046
:10088000233001F1A8F4213019F1223029F1F0E0F0
:10089000EE0FFF1FE859FF4FA591B4918FB7F89461
:1008A000EC91611126C030953E233C938FBF089593
:1008B0002730A9F02830C9F0243049F78091800012
:1008C0008F7D03C0809180008F7780938000DFCF81
:1008D00084B58F7784BDDBCF84B58F7DFBCF8091CE
:1008E000B0008F778093B000D2CF8091B0008F7D21
:1008F000F9CF3E2BDACFCF93DF9390E0FC01E852A3
:10090000FA4F24918C539A4FFC0184918823D1F0A3
:1009100090E0880F991FFC01EA57FF4FA591B49111
:10092000FC01E859FF4FC591D49161110EC09FB7EA
:10093000F8948C91E22FE0958E238C932881E2230A
:10094000E8839FBFDF91CF9108958FB7F894EC9122
:10095000E22BEC938FBFF6CF3FB7F8948091310133
:1009600090913201A0913301B091340126B5A89B3A
:1009700005C02F3F19F00196A11DB11D3FBFBA2F31
:10098000A92F982F8827BC01CD01620F711D811DF1
:10099000911D42E0660F771F881F991F4A95D1F776
:1009A00008958F929F92AF92BF92CF92DF92EF9273
:1009B000FF924B015C010E94AC046B017C010E9420
:1009C000AC046C197D098E099F09683E734081054E
:1009D0009105A8F321E0821A9108A108B10888EED8
:1009E000C80E83E0D81EE11CF11C81149104A104FF
:1009F000B10429F7FF90EF90DF90CF90BF90AF90B8
:100A00009F908F900895EF92FF920F931F93CF9333
:100A1000DF938091DD018823A1F080913701882345
:100A200061F08FB7F89490913701913071F59DB3D3
:100A3000909336019DB39DBB8FBF80E58CBD81E057
:100A40008DBD60E08091DC010E942F048091DD016A
:100A50008823F1F030E020E08091DE0190E0880F03
:100A6000991F2817390708F03DC0E091E101F09186
:100A7000E201E20FF31F80818EBD00000DB407FE7E
:100A8000FDCF8EB52F5F3F4FE7CF80933601D5CF97
:100A9000D0E0C0E08091DE0190E0880F991FC81778
:100AA000D90700F5E091E101F091E201EC0FFD1FA3
:100AB0000081F090DB01E090DA0118E0602F661F02
:100AC0006627661F8E2D0E942F04000F61E08F2D78
:100AD0000E942F0460E08F2D0E942F04115071F7A7
:100AE0002196D8CF61E08091DC010E942F04809193
:100AF000DD01882371F080913701882351F09FB781
:100B0000F8942091370180913601213049F48DBB52
:100B10009FBFDF91CF911F910F91FF90EF900895AC
:100B20008FBFF7CFE5EDF1E0418550E0440F551F51
:100B300070E060E0848595850C94B40DEF92FF928F
:100B40000F931F93CF93DF93FF24F394D0E0C0E083
:100B500001E010E0B9E0EB2E0E94920598010C2E06
:100B600002C0220F331F0A94E2F7E0E090E0809188
:100B7000DE01E817E0F5EE9DB0011124A091DF0140
:100B8000B091E001A60FB71F18964C9150E0422398
:100B90005323452B51F14E2F50E08150990B841B6C
:100BA000950B880F991FA091E101B091E201A80F68
:100BB000B91FFC92A091DF01B091E001A60FB71F11
:100BC000AC0FBD1F6C918091DE018150990B841B8D
:100BD000950B880F991F4091E1015091E201840F1C
:100BE000951FDC0111966C9391E0EF5FC0CF9111DE
:100BF0000E9403052196F394C830D10509F0ACCFCB
:100C000080E099E02091DE01821758F4E091DF0145
:100C1000F091E001899FE00DF11D112410868F5F96
:100C2000F1CFDF91CF911F910F91FF90EF90089539
:100C3000DF92EF92FF920F931F93CF93DF9399E090
:100C4000899F80011124F12CE12CC82FD0E0DD24F4
:100C5000D394DE0CE091DF01F091E001E00FF11F91
:100C6000808590E00E2C02C0959587950A94E2F756
:100C700080FF2DC00E9492058091DE018150990B6A
:100C80008C1B9D0B880F991F2091E1013091E2018F
:100C9000820F931FFC01D082E091DF01F091E0010F
:100CA000E00FF11FEE0DFF1D40812091DE0121506C
:100CB000330B2C1B3D0B220F331F8091E1019091D0
:100CC000E201280F391FF90141830E940305FFEF5C
:100CD000EF1AFF0A88E0E816F10409F0B8CF809116
:100CE000DF019091E001080F191FF8011086DF91D4
:100CF000CF911F910F91FF90EF90DF9008952F9269
:100D00003F924F925F926F927F928F929F92AF929B
:100D1000BF92CF92DF92EF92FF920F931F93CF93E8
:100D2000DF93D0E0883008F08FC0B62E282F3090A7
:100D3000DE01D091E7011092E701082F10E081E079
:100D400090E0A0E0B0E0AC01BD0104C0440F551F2D
:100D5000661F771F2A95D2F7A42E642E609427E091
:100D600030E0201B310B022E04C0880F991FAA1FF0
:100D7000BB1F0A94D2F7982E582E5094CB2CD12C0E
:100D80004B2D429550E0CA0195958795959587958D
:100D90008373440F551F440F551F4C7C842B90E0E8
:100DA000AC01559547954575880F991F8A7A442E51
:100DB000482AC0E0A7E0EA2EF12C722E832E3A9446
:100DC0008091DE019091D701992309F455C0C8178D
:100DD00088F58091D8014B2D8111442D29E0C29FC7
:100DE000C0011124E091DF01F091E001E80FF91F4B
:100DF0002091D9012223E1F1272D382DE20FF31F95
:100E00004083E091DF01F091E001E80FF91F808558
:100E10009091D90191112EC09A2D892B80878091B4
:100E2000E701882339F08091DE01C81718F48C2F70
:100E30000E941806CF5F3C1618F6D093E701DD2319
:100E400009F45FC00E949E058D2FDF91CF911F9105
:100E50000F91FF90EF90DF90CF90BF90AF909F9059
:100E60008F907F906F905F904F903F902F9008955C
:100E70009801C4CF992DD1CFC817E0F689E0C89F5B
:100E8000F001112430E020E0C9014091DF015091D0
:100E9000E0014E0F5F1FA091D9012090D801B6014B
:100EA000022E02C0759567950A94E2F760FF1BC099
:100EB000AA2319F0C701821B930BDA01A80FB91FEF
:100EC0009C918A2D2110892D982B9C932F5F3F4F49
:100ED00028303105C9F68091DF019091E001E80FDB
:100EE000F91F8FEF9BCFAA2319F0C701821B930B29
:100EF000DA01A80FB91F9C91862D2110852D98230A
:100F0000E4CFD1E0A1CFFF920F931F93CF93DF9354
:100F1000EC018B01F090DE01FA940E94920560E0F2
:100F2000702F872F9AE0C230D10559F0A8F59BE0C9
:100F3000C130D10531F081E00115110509F080E0E3
:100F40009CE0462F50E02091DE012150330B241B02
:100F5000350B220F331FE091E101F091E201E20F26
:100F6000F31F90832091DE012150330B241B350B9E
:100F7000220F331F4091E1015091E201240F351FF0
:100F8000F90181836F5FF61660F6DF91CF911F91B3
:100F90000F91FF900C940305C330D10559F0C43074
:100FA000D10549F681E00115110509F480E081952C
:100FB00099E0C7CF81E00115110509F480E09FE0B9
:100FC000C0CF90E069E058E04FEF969F9001112468
:100FD000A091DF01B091E001A20FB31FFD01752FB9
:100FE00011927A95E9F7E091DF01F091E001E20FCB
:100FF000F31F40879F5F891740F78091E7018111B8
:101000000C949E050895FC0101900020E9F73197AA
:10101000AF01481B590BBC0188E391E00C942203FB
:101020008F929F92AF92BF920F931F93CF93DF93B4
:10103000CDB7DEB7A1970FB6F894DEBF0FBECDBF18
:1010400019A2423008F44AE08E010F5D1F4F842E32
:10105000912CB12CA12CA50194010E94580CE62FD3
:10106000B901CA01EA30F4F4E05DD801EE938D01D4
:10107000232B242B252B79F790E080E0109719F093
:10108000CD010E940308A1960FB6F894DEBF0FBEF3
:10109000CDBFDF91CF911F910F91BF90AF909F90E7
:1010A0008F900895E95CE1CF1F920F920FB60F92D7
:1010B00011242F933F934F935F936F937F938F935D
:1010C0009F93AF93BF93EF93FF9388E391E00E94C8
:1010D000A003FF91EF91BF91AF919F918F917F916D
:1010E0006F915F914F913F912F910F900FBE0F9095
:1010F0001F9018951F920F920FB60F9211242F93E5
:101100008F939F93EF93FF93E0914801F0914901F2
:101110008081E0914E01F0914F0182FD1BC09081D2
:10112000809151018F5F8F7320915201821741F09E
:10113000E0915101F0E0E85CFE4F958F8093510102
:10114000FF91EF919F918F912F910F900FBE0F9074
:101150001F9018958081F4CF1F920F920FB60F92B7
:1011600011242F933F938F939F93AF93BF938091BD
:101170002D0190912E01A0912F01B091300130915D
:101180002C0123E0230F2D3758F50196A11DB11D29
:1011900020932C0180932D0190932E01A0932F0179
:1011A000B09330018091310190913201A0913301CF
:1011B000B09134010196A11DB11D8093310190932E
:1011C0003201A0933301B0933401BF91AF919F914D
:1011D0008F913F912F910F900FBE0F901F901895F8
:1011E00026E8230F0296A11DB11DD2CFCF92DF9228
:1011F000EF92FF920F931F93E82FF92F05C0015034
:1012000011092109310961F1908196239417B9F3ED
:1012100005C0015011092109310911F1908196236E
:101220009413F7CFC12CD12CE12CF12C0AC08FEFF5
:10123000C81AD80AE80AF80A0C151D052E053F053C
:1012400079F080818623841791F36C2D7D2D8E2D6E
:101250009F2D1F910F91FF90EF90DF90CF900895F9
:1012600060E070E080E090E01F910F91FF90EF90C0
:10127000DF90CF900895E8E3F1E01382128288EEC8
:1012800093E0A0E0B0E084839583A683B7838AE0EF
:1012900091E09183808385EC90E09587848784EC4E
:1012A00090E09787868780EC90E0918B808B81EC33
:1012B00090E0938B828B82EC90E0958B848B86EC14
:1012C00090E0978B868B118E128E138E148EE5ED27
:1012D000F1E08AE085838BE0868389E0878310864E
:1012E00084E0818781E0828B1182108282838383F4
:1012F00014820895789484B5826084BD84B5816039
:1013000084BD85B5826085BD85B5816085BD8091D0
:101310006E00816080936E00109281008091810048
:101320008260809381008091810081608093810040
:10133000809180008160809380008091B100846002
:101340008093B1008091B00081608093B000809163
:101350007A00846080937A0080917A008260809322
:101360007A0080917A00816080937A0080917A007F
:10137000806880937A001092C10060E086E00E944D
:101380007B0461E087E00E947B04E0914801F091DA
:10139000490182E08083E0914401F091450110828F
:1013A000E0914601F09147018FEC8083109250014B
:1013B000E0914C01F0914D0186E08083E0914A017B
:1013C000F0914B01808180618083E0914A01F0912E
:1013D0004B01808188608083E0914A01F0914B014C
:1013E000808180688083E0914A01F0914B01808187
:1013F0008F7D80838091DD01882309F4DAC0CFB727
:10140000F89480913501811127C0EEECF5E08491CC
:10141000E2EEF5E09491E82FF0E0EE0FFF1FEA57BF
:10142000FF4FA591B491EC91E92321F461E08AE0AA
:101430000E942F0461E08AE00E947B048CB58061E9
:101440008CBD8CB580648CBD61E08DE00E947B0416
:1014500061E08BE00E947B04809135018F5F809377
:101460003501CFBF61E08091DC010E947B0461E027
:101470008091DC010E942F041092E4011092E3019C
:101480001092E6011092E501C091DE0129E0C29FB1
:10149000C00111240E948F0C9093E0018093DF0122
:1014A0008C2F90E0880F991F0E948F0C9093E2017F
:1014B0008093E1018091E9019091EA018059904087
:1014C00009F49CC0E0E9F0E0F093EA01E093E9015F
:1014D0001092EB0188E08093EC011092EF011092E2
:1014E000EE018FEF90E09093F1018093F001109264
:1014F000F3011092F201E491E63409F033C0E1E91E
:10150000F0E0E491E13009F45FC082E090E0E23085
:1015100029F5E2E9F0E08491E3E9F0E0E49190E07C
:10152000982F88278E0F911D9093EF018093EE01E5
:10153000E4E9F0E08491E5E9F0E0E49190E0982FAF
:1015400088278E0F911D9093F1018093F001E6E9B9
:10155000F0E0E491E093EC0187E090E09093F301F8
:101560008093F201C090F201D090F301F12CE12CB4
:101570002091EE013091EF014091F0015091F10185
:1015800060E04217530708F437C0F601E057FF4FF9
:101590008491681708F4682F90E0B0E0A0E001960D
:1015A000A11DB11DC80ED91EEA1EFB1E2F5F3F4FA5
:1015B000E8CF61E08091DA010E947B0461E08091D4
:1015C000DB010E947B044ECFE2E9F0E0E491F0E021
:1015D000F093EF01E093EE01E3E9F0E0E491F0E055
:1015E000F093F101E093F001E4E9F0E0E491E0939D
:1015F000EC0185E090E0B2CF6093ED0170E060E037
:1016000083E090E00E94830767E070E081E090E073
:101610000E94830767E070E082E090E00E94830709
:1016200070E060E084E090E00E9483078091DE013A
:1016300081500E94E10770E060E090E080E00E944D
:10164000830799EF492E55245A94652C752C20E078
:10165000222E20E0322E60E087E00E942F0483E0FB
:1016600090E00197F1F761E087E00E942F048FE09E
:1016700090E00197F1F760E087E00E942F04EEED23
:10168000F5E06491EAECF5E08491E82FF0E0EE0FEC
:10169000FF1FE654FA4F8591949100E412E42FE085
:1016A00030E0462F0E94F60861157105810591050D
:1016B00029F06F5F7F4F8F4F9F4F9F702AE330E07D
:1016C00040E050E00E94260C6901330FEE08FF084D
:1016D0004AE0C701B601F7FE0DC06DE288E391E074
:1016E0000E94C20366277727CB016C197D098E09FA
:1016F0009F094AE00E94100888E191E00E940308D7
:10170000A70196012250310941095109A9EFBFEF04
:101710000E94530C24E930E040E050E00E94260C87
:1017200049015A017A016901F7E0CF0ED11CE11C91
:10173000F11CE6018BE191E00E9403084AE0C70139
:10174000B601F7FE0CC06DE288E391E00E94C2038F
:10175000C301B201681979098A099B094AE00E940C
:10176000100888E191E00E9403088091DE01815019
:101770000E94E107279734F169E980E00E947F0623
:1017800069E981E00E947F0669E982E00E947F06A4
:1017900069E983E00E947F0669E984E00E947F0690
:1017A00069E985E00E947F0660E086E00E947F068E
:1017B00069E987E00E947F0668EE73E080E090E0D0
:1017C0000E94D10421E0C21AD1088FEFC816D806B2
:1017D00041F06FEF8C2D0E947F06E1E0CE1AD10818
:1017E000F4CF64E670E080E090E00E94D104211420
:1017F000310409F430CF0E948C03882309F42BCFE5
:101800000E94000028CF8091DD01882399F09FB7C6
:10181000F89480913501882319F081508093350127
:1018200080913501811105C08CB58F7B8CBD1092E4
:1018300037019FBF8091DF019091E0010E942B0D45
:101840008091E1019091E2010C942B0D052E97FB04
:101850001EF400940E943D0C57FD07D00E94580CC6
:1018600007FC03D04EF40C943D0C509540953095F8
:1018700021953F4F4F4F5F4F0895909580957095FC
:1018800061957F4F8F4F9F4F08950E947A0CA59FBF
:10189000900DB49F900DA49F800D911D112408956B
:1018A000B7FF0C94450C0E94450C821B930B0895C6
:1018B000A1E21A2EAA1BBB1BFD010DC0AA1FBB1F54
:1018C000EE1FFF1FA217B307E407F50720F0A21BC6
:1018D000B30BE40BF50B661F771F881F991F1A9433
:1018E00069F760957095809590959B01AC01BD015D
:1018F000CF010895A29FB001B39FC001A39F700DB7
:10190000811D1124911DB29F700D811D1124911D07
:101910000895EE0FFF1F0590F491E02D09940F93A9
:101920001F93CF93DF938230910510F482E090E013
:10193000E091F601F091F70130E020E0B0E0A0E0A6
:10194000309799F42115310509F44AC0281B390B49
:1019500024303105D8F58A819B816115710589F1A3
:10196000FB0193838283FE0111C04081518102817A
:10197000138148175907E0F04817590799F4109751
:1019800061F012960C93129713961C933296CF0126
:10199000DF91CF911F910F9108950093F60110935D
:1019A000F701F4CF2115310551F04217530738F0F4
:1019B000A901DB019A01BD01DF01F801C1CFEF01EF
:1019C000F9CF9093F7018093F601CDCFFE01E20F9E
:1019D000F31F819391932250310939832883D7CF04
:1019E0002091F4013091F501232B41F42091020163
:1019F000309103013093F5012093F401209100010F
:101A0000309101012115310541F42DB73EB74091C8
:101A1000040150910501241B350BE091F401F09174
:101A2000F501E217F307A0F42E1B3F0B2817390727
:101A300078F0AC014E5F5F4F2417350748F04E0F2A
:101A40005F1F5093F5014093F401819391939FCFD1
:101A5000F0E0E0E09CCFCF93DF930097E9F0FC014A
:101A6000329713821282A091F601B091F701ED0135
:101A700030E020E01097A1F420813181820F931F84
:101A80002091F4013091F5012817390709F061C060
:101A9000F093F501E093F401DF91CF910895EA010D
:101AA000CE17DF07E8F54A815B819E01411551059C
:101AB000B1F7E901FB83EA8349915991C40FD51F1E
:101AC000EC17FD0761F4808191810296840F951FC8
:101AD000E90199838883828193819B838A83F0E0E3
:101AE000E0E012968D919C9113970097B9F52D9196
:101AF0003C911197CD010296820F931F2091F40122
:101B00003091F5012817390739F6309751F51092C1
:101B1000F7011092F601B093F501A093F401BCCF48
:101B2000D383C28340815181840F951FC817D90781
:101B300061F44E5F5F4F88819981480F591F51832F
:101B400040838A819B81938382832115310509F02B
:101B5000B0CFF093F701E093F6019ECFFD01DC01D9
:101B6000C0CF13821282D7CFDC0101C06D934150E8
:101B70005040E0F7089512E0C7EFD2E004C0FE0144
:101B80000E94890C2196C83FD107C9F7F894FFCF6E
:101B90000000F801800000000000C20322034F0390
:101BA0000F0480035E0372030D0A00446973706CB6
:0C1BB000617965642056414C55452000C9
:107E0000112484B714BE81FFF0D085E080938100F7
:107E100082E08093C00088E18093C10086E0809377
:107E2000C20080E18093C4008EE0C9D0259A86E02C
:107E300020E33CEF91E0309385002093840096BBD3
:107E4000B09BFECF1D9AA8958150A9F7CC24DD24C4
:107E500088248394B5E0AB2EA1E19A2EF3E0BF2EE7
:107E6000A2D0813461F49FD0082FAFD0023811F036
:107E7000013811F484E001C083E08DD089C08234E0
:107E800011F484E103C0853419F485E0A6D080C0E4
:107E9000853579F488D0E82EFF2485D0082F10E0AE
:107EA000102F00270E291F29000F111F8ED06801E7
:107EB0006FC0863521F484E090D080E0DECF843638
:107EC00009F040C070D06FD0082F6DD080E0C81688
:107ED00080E7D80618F4F601B7BEE895C0E0D1E017
:107EE00062D089930C17E1F7F0E0CF16F0E7DF06D8
:107EF00018F0F601B7BEE89568D007B600FCFDCFD4
:107F0000A601A0E0B1E02C9130E011968C91119780
:107F100090E0982F8827822B932B1296FA010C0160
:107F200087BEE89511244E5F5F4FF1E0A038BF0790
:107F300051F7F601A7BEE89507B600FCFDCF97BE46
:107F4000E89526C08437B1F42ED02DD0F82E2BD052
:107F50003CD0F601EF2C8F010F5F1F4F84911BD097
:107F6000EA94F801C1F70894C11CD11CFA94CF0C13
:107F7000D11C0EC0853739F428D08EE10CD085E9AC
:107F80000AD08FE07ACF813511F488E018D01DD067
:107F900080E101D065CF982F8091C00085FFFCCF94
:107FA0009093C60008958091C00087FFFCCF809118
:107FB000C00084FD01C0A8958091C6000895E0E648
:107FC000F0E098E1908380830895EDDF803219F02E
:107FD00088E0F5DFFFCF84E1DECF1F93182FE3DFCA
:107FE0001150E9F7F2DF1F91089580E0E8DFEE27F6
:047FF000FF270994CA
:027FFE00040479
:0400000300007E007B
:00000001FF
