:100000000C945D000C9485000C9485000C94850084
:100010000C9485000C9485000C9485000C9485004C
:100020000C9485000C9485000C9485000C941703A7
:100030000C9485000C9485000C9485000C9485002C
:100040000C94CD020C9485000C949B020C947502C8
:100050000C9485000C9485000C9485000C9485000C
:100060000C9485000C94850000000008000201003B
:100070000003040700000000000000000000000072
:10008000250028002B0000000000240027002A0083
:10009000040404040404040402020202020203032E
:1000A0000303030301020408102040800102040836
:1000B0001020010204081020D30311241FBECFEF2B
:1000C000D8E0DEBFCDBF11E0A0E0B1E0ECE6FDE09E
:1000D00002C005900D92A034B107D9F722E0A0E448
:1000E000B1E001C01D92AF30B207E1F710E0CDE5FD
:1000F000D0E004C02197FE010E94AE06CC35D107A6
:10010000C9F70E9430040C94B4060C94000090E0EF
:10011000FC01EC55FF4F249180579F4FFC018491C7
:10012000882399F090E0880F991FFC01EA57FF4F50
:10013000A591B491FC01E458FF4F859194918FB73C
:10014000F894EC91E22BEC938FBF0895AF92BF929D
:10015000CF92DF92EF92FF920F931F93CF93DF9393
:100160006C017B018B01040F151FEB015E01AE18C2
:10017000BF08C017D10759F06991D601ED91FC91E4
:100180000190F081E02DC6010995892B79F7C50111
:10019000DF91CF911F910F91FF90EF90DF90CF9063
:1001A000BF90AF900895FC01538D448D252F30E012
:1001B000842F90E0821B930B541710F0CF96089574
:1001C00001970895FC01918D828D981761F0A28DA1
:1001D000AE0FBF2FB11D5D968C91928D9F5F9F7367
:1001E000928F90E008958FEF9FEF0895FC01918D1D
:1001F000828D981731F0828DE80FF11D858D90E08A
:1002000008958FEF9FEF0895FC01918D228D892F26
:1002100090E0805C9F4F821B91098F73992708950E
:100220008AE491E00E94040121E0892B09F420E096
:10023000822F089580E090E0892B29F00E94100120
:1002400081110C9400000895FC01A48DA80FB92F12
:10025000B11DA35ABF4F2C91848D90E001968F73EE
:100260009927848FA689B7892C93A089B1898C910D
:10027000837080648C93938D848D981306C002885C
:10028000F389E02D80818F7D80830895EF92FF9226
:100290000F931F93CF93DF93EC0181E0888F9B8DA9
:1002A0008C8D98131AC0E889F989808185FF15C063
:1002B0009FB7F894EE89FF896083E889F989808186
:1002C0008370806480839FBF81E090E0DF91CF9155
:1002D0001F910F91FF90EF900895F62E0B8D10E077
:1002E0000F5F1F4F0F731127E02E8C8D8E110CC0E6
:1002F0000FB607FCFACFE889F989808185FFF5CF31
:10030000CE010E942401F1CFEB8DEC0FFD2FF11DEA
:10031000E35AFF4FF0829FB7F8940B8FEA89FB896D
:1003200080818062CFCFCF93DF93EC01888D8823CB
:10033000B9F0AA89BB89E889F9898C9185FD03C048
:10034000808186FD0DC00FB607FCF7CF8C9185FF2D
:10035000F2CF808185FFEDCFCE010E942401E9CF4D
:10036000DF91CF91089590E0FC01E859FF4F24916F
:10037000FC01EC55FF4F3491FC01E057FF4FE49135
:10038000EE23C9F0222339F0233001F1A8F4213003
:1003900019F1223029F1F0E0EE0FFF1FE458FF4F72
:1003A000A591B4918FB7F894EC91611126C0309566
:1003B0003E233C938FBF08952730A9F02830C9F021
:1003C000243049F7809180008F7D03C080918000A8
:1003D0008F7780938000DFCF84B58F7784BDDBCFAC
:1003E00084B58F7DFBCF8091B0008F778093B00074
:1003F000D2CF8091B0008F7DF9CF3E2BDACF3FB7BF
:10040000F8948091460190914701A0914801B091E4
:10041000490126B5A89B05C02F3F19F00196A11DE3
:10042000B11D3FBFBA2FA92F982F8827BC01CD013E
:10043000620F711D811D911D42E0660F771F881F9D
:10044000991F4A95D1F70895FC0101900020E9F722
:100450003197AF01481B590BBC018AE491E00C9421
:10046000A6008F929F92AF92BF920F931F93CF934C
:10047000DF93CDB7DEB7A1970FB6F894DEBF0FBEFE
:10048000CDBF19A2423008F44AE08E010F5D1F4F24
:10049000842E912CB12CA12CA50194010E94490617
:1004A000E62FB901CA01EA30F4F4E05DD801EE9319
:1004B0008D01232B242B252B79F790E080E01097DA
:1004C00019F0CD010E942402A1960FB6F894DEBF68
:1004D0000FBECDBFDF91CF911F910F91BF90AF9015
:1004E0009F908F900895E95CE1CF1F920F920FB615
:1004F0000F9211242F933F934F935F936F937F93AA
:100500008F939F93AF93BF93EF93FF938AE491E010
:100510000E942401FF91EF91BF91AF919F918F9124
:100520007F916F915F914F913F912F910F900FBEEF
:100530000F901F9018951F920F920FB60F921124D3
:100540002F938F939F93EF93FF93E0915A01F09134
:100550005B018081E0916001F091610182FD1BC02F
:100560009081809163018F5F8F7320916401821766
:1005700041F0E0916301F0E0E65BFE4F958F8093E0
:100580006301FF91EF919F918F912F910F900FBE7B
:100590000F901F9018958081F4CF1F920F920FB685
:1005A0000F9211242F933F938F939F93AF93BF93F9
:1005B0008091420190914301A0914401B091450185
:1005C0003091410123E0230F2D3758F50196A11DED
:1005D000B11D209341018093420190934301A09368
:1005E0004401B09345018091460190914701A0914B
:1005F0004801B09149010196A11DB11D80934601AA
:1006000090934701A0934801B0934901BF91AF91E6
:100610009F918F913F912F910F900FBE0F901F9040
:10062000189526E8230F0296A11DB11DD2CF1F9267
:100630000F920FB60F9211242F933F934F935F9316
:100640006F937F938F939F93AF93BF93CF93DF93DA
:10065000EF93FF9380914001C0910B02D0E087FFA0
:1006600024C01092850010928400809140018F5F19
:100670008093400180914001082E000C990B8C174B
:100680009D0724F4809140018C30C4F18091840056
:1006900090918500049680349C4908F47AC080913A
:1006A000840090918500049676C080914001082EC8
:1006B000000C990B8C179D07C4F6E09140018E2F1A
:1006C000EE0F990BFC01EE0FFF1FE80FF91FE95128
:1006D000FE4F808186FFC9CFE09140018E2FEE0F43
:1006E000990BFC01EE0FFF1FE80FF91FE951FE4FB8
:1006F000808160E08F730E94B301B7CF20918400A6
:1007000030918500E09140018E2FEE0F990BFC0196
:10071000EE0FFF1FE80FF91FE951FE4F8181928113
:10072000820F931F9093890080938800E09140018D
:100730008E2FEE0F990BFC01EE0FFF1FE80FF91F34
:10074000E951FE4F808186FF11C0E09140018E2F5C
:10075000EE0F990BFC01EE0FFF1FE80FF91FE95197
:10076000FE4F808161E08F730E94B301FF91EF9192
:10077000DF91CF91BF91AF919F918F917F916F91B9
:100780005F914F913F912F910F900FBE0F901F904F
:10079000189580E49CE990938900809388008FEFFE
:1007A00080934001E3CF10924D0110924C0188EEEE
:1007B00093E0A0E0B0E080934E0190934F01A093AE
:1007C0005001B093510184E091E090934B018093EC
:1007D0004A0185EC90E0909357018093560184EC98
:1007E00090E0909359018093580180EC90E09093B1
:1007F0005B0180935A0181EC90E090935D018093BE
:100800005C0182EC90E090935F0180935E0186EC46
:1008100090E09093610180936001109263011092C7
:100820006401109265011092660180910B028C3078
:1008300098F491E0980F90930B0280930C0290E053
:10084000FC01EE0FFF1FE80FF91FE951FE4F88EB87
:100850009BE09283818308958FEF80930C0208952B
:10086000789484B5826084BD84B5816084BD85B58B
:10087000826085BD85B5816085BD80916E00816097
:1008800080936E001092810080918100826080933D
:10089000810080918100816080938100809180003F
:1008A0008160809380008091B10084608093B1006A
:1008B0008091B00081608093B00080917A00846064
:1008C00080937A0080917A00826080937A00809190
:1008D0007A00816080937A0080917A0080688093AA
:1008E0007A001092C100E0915A01F0915B0182E020
:1008F0008083E0915601F09157011082E0915801F8
:10090000F09159018FEC808310926201E0915E01B9
:10091000F0915F0186E08083E0915C01F0915D01E0
:10092000808180618083E0915C01F0915D01808134
:1009300088608083E0915C01F0915D018081806836
:100940008083E0915C01F0915D0180818F7D8083E7
:1009500080E10E94870081E10E94870061E080E1E0
:100960000E94B30160E081E10E94B30180910C021A
:100970008C3008F050C089E00E94870080910C0202
:10098000282F30E0F901EE0FFF1FE20FF31FE951AE
:10099000FE4F9081907C9960908310920D0210928E
:1009A0000E022CE0622F0E947A06829FB001112471
:1009B00030E020E0AB01420F531FFA01EE0FFF1FA2
:1009C000E40FF51FE951FE4F908196FD16C02F5F91
:1009D0003F4F2C30310571F781110FC0109280000C
:1009E00082E0809381001092850010928400B19A79
:1009F00080916F00826080936F00E0910C028E2FD7
:100A000090E0FC01EE0FFF1FE80FF91FE951FE4FC8
:100A1000808180648083B8E88B2E912CC8E5AC2E51
:100A2000C2E0BC2ED0E02D2ED0E03D2E0E94FF0172
:100A30002B013C01A8ECCA2ED12CE12CF12C0E94F8
:100A4000FF016419750986099709683E734081059D
:100A50009105A8F321E0C21AD108E108F10848EE97
:100A6000440E43E0541E611C711CC114D104E10406
:100A7000F10429F781E480937C0080917A008064FE
:100A800080937A0080917A0086FDFCCF8091780077
:100A9000C0917900DC2FC82F6E010D2E000CEE08DE
:100AA000FF084AE0C701B601D7FF0DC06DE28AE436
:100AB00091E00E94460166277727CB016C197D09DA
:100AC0008E099F094AE00E94310282E191E00E9472
:100AD000240289E291E00E942402CE01885F9D4FAA
:100AE0006AE070E00E948606EB018B016B01770FD4
:100AF000EE08FF084AE0C701B601F7FE0DC06DE23F
:100B00008AE491E00E94460166277727CB016C19A1
:100B10007D098E099F094AE00E9431028CE291E032
:100B20000E94240289E291E00E94240289E291E07D
:100B30000E942402C03222E0D207D4F580910D0237
:100B40006401C81AD10887FDD394CC0CDD1CCC0CF1
:100B5000DD1C0D2C000CEE08FF0880910E029501A3
:100B6000281B310987FD3395220F331F220F331FB6
:100B7000032E000C440B550B2C193D094E095F093F
:100B8000DE01C53BD10514F0A4EBB0E0B7FF02C015
:100B9000B0E0A0E00E94410624EB30E040E050E0ED
:100BA0000E94170689019A010C0D1D1D2E1D3F1D67
:100BB00020910C022C3078F580910D02A401481B85
:100BC000510987FD5395CA01880F991F880F991FF6
:100BD0000817190784F080910E02A501481B5109DE
:100BE00087FD5395CA01880F991F880F991F081711
:100BF00019070CF4C8010297880F991F4FB7F89492
:100C000030E0F901EE0FFF1FE20FF31FE951FE4F35
:100C1000928381834FBF2114310409F407CF0E94CE
:100C20001001882309F402CF0E940000FFCE052E98
:100C300097FB1EF400940E942E0657FD07D00E94D9
:100C4000490607FC03D04EF40C942E0650954095AF
:100C5000309521953F4F4F4F5F4F08959095809568
:100C6000709561957F4F8F4F9F4F08950E946B063F
:100C7000A59F900DB49F900DA49F800D911D1124F0
:100C80000895B7FF0C9436060E943606821B930B1C
:100C90000895A1E21A2EAA1BBB1BFD010DC0AA1FBD
:100CA000BB1FEE1FFF1FA217B307E407F50720F0D5
:100CB000A21BB30BE40BF50B661F771F881F991F50
:100CC0001A9469F760957095809590959B01AC0199
:100CD000BD01CF010895A29FB001B39FC001A39FA2
:100CE000700D811D1124911DB29F700D811D112465
:100CF000911D0895991B79E004C0991F961708F07B
:100D0000961B881F7A95C9F78095089597FB072E43
:100D100016F4009407D077FD09D00E949A0607FCCC
:100D200005D03EF4909581959F4F089570956195FB
:100D30007F4F0895AA1BBB1B51E107C0AA1FBB1F11
:100D4000A617B70710F0A61BB70B881F991F5A9557
:100D5000A9F780959095BC01CD010895EE0FFF1F76
:0C0D60000590F491E02D0994F894FFCF69
:100D6C00000000004601A600D30093010401E2003C
:100D7C00F600203D20696E7075742066726F6D20D0
:100D8C006A6F79737469636B000D0A00203D206FE4
:100D9C00757470757420746F20736572766F0000B3
:00000001FF
