:100000000C945D000C9485000C9485000C94850084
:100010000C9485000C9485000C9485000C9485004C
:100020000C9485000C9485000C9485000C9485003C
:100030000C9485000C9485000C9485000C9485002C
:100040000C94F9020C9485000C94C7020C94A10244
:100050000C9485000C9485000C9485000C9485000C
:100060000C9485000C94850000000008000201003B
:100070000003040700000000000000000000000072
:10008000250028002B0000000000240027002A0083
:10009000040404040404040402020202020203032E
:1000A0000303030301020408102040800102040836
:1000B0001020010204081020430311241FBECFEFBB
:1000C000D8E0DEBFCDBF11E0A0E0B1E0E8E8FBE0A2
:1000D00002C005900D92A631B107D9F722E0A6E142
:1000E000B1E001C01D92A431B207E1F710E0CDE507
:1000F000D0E004C02197FE010E94BC05CC35D10799
:10010000C9F70E94F4030C94C2050C94000090E01F
:10011000FC01EC55FF4F249180579F4FFC018491C7
:10012000882399F090E0880F991FFC01EA57FF4F50
:10013000A591B491FC01E458FF4F859194918FB73C
:10014000F894EC91E22BEC938FBF0895AF92BF929D
:10015000CF92DF92EF92FF920F931F93CF93DF9393
:100160006C017B018B01040F151FEB015E01AE18C2
:10017000BF08C017D10759F06991D601ED91FC91E4
:100180000190F081E02DC6010995892B79F7C50111
:10019000DF91CF911F910F91FF90EF90DF90CF9063
:1001A000BF90AF900895FC01538D448D252F30E012
:1001B000842F90E0821B930B541710F0CF96089574
:1001C00001970895FC01918D828D981761F0A28DA1
:1001D000AE0FBF2FB11D5D968C91928D9F5F9F7367
:1001E000928F90E008958FEF9FEF0895FC01918D1D
:1001F000828D981731F0828DE80FF11D858D90E08A
:1002000008958FEF9FEF0895FC01918D228D892F26
:1002100090E0805C9F4F821B91098F73992708950E
:100220008FE191E00E94040121E0892B09F420E094
:10023000822F089580E090E0892B29F00E94100120
:1002400081110C9400000895FC01A48DA80FB92F12
:10025000B11DA35ABF4F2C91848D90E001968F73EE
:100260009927848FA689B7892C93A089B1898C910D
:10027000837080648C93938D848D981306C002885C
:10028000F389E02D80818F7D80830895EF92FF9226
:100290000F931F93CF93DF93EC0181E0888F9B8DA9
:1002A0008C8D98131AC0E889F989808185FF15C063
:1002B0009FB7F894EE89FF896083E889F989808186
:1002C0008370806480839FBF81E090E0DF91CF9155
:1002D0001F910F91FF90EF900895F62E0B8D10E077
:1002E0000F5F1F4F0F731127E02E8C8D8E110CC0E6
:1002F0000FB607FCFACFE889F989808185FFF5CF31
:10030000CE010E942401F1CFEB8DEC0FFD2FF11DEA
:10031000E35AFF4FF0829FB7F8940B8FEA89FB896D
:1003200080818062CFCFCF93DF93EC01888D8823CB
:10033000B9F0AA89BB89E889F9898C9185FD03C048
:10034000808186FD0DC00FB607FCF7CF8C9185FF2D
:10035000F2CF808185FFEDCFCE010E942401E9CF4D
:10036000DF91CF91089590E0FC01E859FF4F24916F
:10037000FC01EC55FF4F3491FC01E057FF4FE49135
:10038000EE23C9F0222339F0233001F1A8F4213003
:1003900019F1223029F1F0E0EE0FFF1FE458FF4F72
:1003A000A591B4918FB7F894EC91611126C0309566
:1003B0003E233C938FBF08952730A9F02830C9F021
:1003C000243049F7809180008F7D03C080918000A8
:1003D0008F7780938000DFCF84B58F7784BDDBCFAC
:1003E00084B58F7DFBCF8091B0008F778093B00074
:1003F000D2CF8091B0008F7DF9CF3E2BDACF3FB7BF
:10040000F89480911B0190911C01A0911D01B09165
:100410001E0126B5A89B05C02F3F19F00196A11D0E
:10042000B11D3FBFBA2FA92F982F8827BC01CD013E
:10043000620F711D811D911D42E0660F771F881F9D
:10044000991F4A95D1F70895CF92DF92EF92FF92CC
:100450000F931F93CF93DF9300D0CDB7DEB769839F
:100460004A83880F991F0091120210911302000F06
:10047000111FECEBF1E09F012C5B3140201731079D
:1004800014F41192F8CF2981FC01E454FE4F21832A
:100490008A81808360E0809110020E94B30110166F
:1004A000110604F501501109F801E454FE4FE080F3
:1004B000D0900E02C0900C0288E0F82E6E2D661FC0
:1004C0006627661F8C2D0E94B301EE0C61E08D2D16
:1004D0000E94B30160E08D2D0E94B301FA94F110E7
:1004E000EDCFDDCF61E0809110020F900F90DF9192
:1004F000CF911F910F91FF90EF90DF90CF900C94D0
:10050000B301EF92FF920F931F93CF937C018C0165
:1005100083E0000F111F8A95E1F704531E4FC1E0DD
:10052000F80111928F0140E06C2FC7010E94240254
:10053000CF5FC930A9F7CF911F910F91FF90EF9036
:1005400008951F920F920FB60F9211242F933F938D
:100550004F935F936F937F938F939F93AF93BF93CB
:10056000EF93FF938FE191E00E942401FF91EF91BF
:10057000BF91AF919F918F917F916F915F914F91BB
:100580003F912F910F900FBE0F901F9018951F92C3
:100590000F920FB60F9211242F938F939F93EF9387
:1005A000FF93E0912F01F09130018081E0913501BE
:1005B000F091360182FD1BC09081809138018F5FE0
:1005C0008F7320913901821741F0E0913801F0E0FA
:1005D000E15EFE4F958F80933801FF91EF919F91DF
:1005E0008F912F910F900FBE0F901F9018958081C3
:1005F000F4CF1F920F920FB60F9211242F933F93B7
:100600008F939F93AF93BF9380911701909118019F
:10061000A0911901B0911A013091160123E0230F26
:100620002D3758F50196A11DB11D20931601809319
:10063000170190931801A0931901B0931A018091AA
:100640001B0190911C01A0911D01B0911E0101960A
:10065000A11DB11D80931B0190931C01A0931D014E
:10066000B0931E01BF91AF919F918F913F912F91B8
:100670000F900FBE0F901F90189526E8230F02963B
:10068000A11DB11DD2CFCF93DF9310922201109202
:10069000210188EE93E0A0E0B0E0809323019093E5
:1006A0002401A0932501B093260184E091E090936A
:1006B000200180931F0185EC90E090932C018093A2
:1006C0002B0184EC90E090932E0180932D0180EC1F
:1006D00090E09093300180932F0181EC90E0909313
:1006E00032018093310182EC90E090933401809349
:1006F000330186EC90E0909336018093350110929F
:1007000038011092390110923A0110923B01CBE06E
:10071000D0E0D0930D02C0930C028AE090E0909359
:100720000F0280930E0289E090E090931102809373
:10073000100281E090E090931302809312028BE00C
:100740000E94870080910E020E9487008091100213
:100750000E94870061E0809110020E94B301D09353
:100760000D02C0930C02ECECF1E0119282E0EC304F
:10077000F807D9F7D0E0C0E08091120290911302FF
:10078000C817D90774F540E06FE0CE010E9424023B
:100790008091120290911302C817D9072CF447E0F8
:1007A0006BE0CE010E94240240E069E0CE010E948D
:1007B00024028091120290911302C817D9071CF4E9
:1007C000CE010E9481028091120290911302C817FB
:1007D000D9072CF440E06CE0CE010E94240221965F
:1007E000CBCFDF91CF910895CF93DF93CDB7DEB715
:1007F000A1970FB6F894DEBF0FBECDBF789484B535
:10080000826084BD84B5816084BD85B5826085BD0C
:1008100085B5816085BD80916E00816080936E009A
:10082000109281008091810082608093810080918C
:10083000810081608093810080918000816080933D
:1008400080008091B10084608093B1008091B000FD
:1008500081608093B00080917A00846080937A00F8
:1008600080917A00826080937A0080917A00816022
:1008700080937A0080917A00806880937A00109249
:10088000C10080911202909113021816190634F4D7
:1008900041E06CE090E080E00E942402809112022E
:1008A000909113021816190634F448E06AE090E0BB
:1008B00080E00E9424028091120290911302181687
:1008C000190624F490E080E00E948102E0912F015B
:1008D000F091300182E08083E0912B01F0912C01B6
:1008E0001082E0912D01F0912E018FEC8083109207
:1008F0003701E0913301F091340186E08083E0918B
:100900003101F0913201808180618083E091310179
:10091000F0913201808188608083E0913101F09113
:100920003201808180688083E0913101F091320151
:1009300080818F7D80839AE0892E912CA12CB12C0F
:1009400020E0222E20E0322E20E420937C008091B3
:100950007A00806480937A0080917A0086FDFCCFD3
:1009600080917800E0907900FE2CE82E27010F2C72
:10097000000C66087708F7FE92C06DE28FE191E007
:100980000E94460122273327A90124193509460967
:10099000570919A28E010F5D1F4FCA01B901A501A8
:1009A00094010E948405605DF80162938F01211516
:1009B00031054105510589F70115110561F00190D7
:1009C0000020E9F73197AF01401B510BB8018FE1CF
:1009D00091E00E94A60042E050E062E171E08FE108
:1009E00091E00E94A60080911202909113021816C5
:1009F000190624F490E080E00E94810280911202A6
:100A00009091130218161906D4F427E030E0D701AC
:100A10000E94B50528EE33E040E050E00E946505F5
:100A20002830310560F4F901E454FE4F8FEF808BDC
:100A300061E0620F4FEF90E080E00E9424020E948C
:100A4000FF012B013C0184E1C82ED12CE12CF12CBB
:100A50000E94FF016419750986099709683E734071
:100A600081059105A8F3E1E0CE1AD108E108F1086B
:100A7000F8EE4F0EF3E05F1E611C711CC114D1042F
:100A8000E104F10429F72114310409F45DCF0E9437
:100A90001001882309F458CF0E94000055CFA3010C
:100AA000920119A28E010F5D1F4FCA01B901A50164
:100AB00094010E948405605DF80162938F01211505
:100AC00031054105510589F777CF052E97FB1EF4B7
:100AD00000940E947C0557FD07D00E94840507FC06
:100AE00003D04EF40C947C0550954095309521959B
:100AF0003F4F4F4F5F4F089590958095709561954A
:100B00007F4F8F4F9F4F0895A1E21A2EAA1BBB1B48
:100B1000FD010DC0AA1FBB1FEE1FFF1FA217B307C9
:100B2000E407F50720F0A21BB30BE40BF50B661FDF
:100B3000771F881F991F1A9469F7609570958095A3
:100B400090959B01AC01BD01CF010895A29FB0011A
:100B5000B39FC001A39F700D811D1124911DB29FF1
:100B6000700D811D1124911D08950E94A605B7FFE7
:100B70000895821B930B0895EE0FFF1F0590F491CB
:080B8000E02D0994F894FFCF69
:100B8800000000004601A600D30093010401E20022
:060B9800F6000D0A00004A
:00000001FF
