:100000000C945E000C9486000C9486000C94860080
:100010000C9486000C9486000C9486000C9462026A
:100020000C9486000C9486000C9486000C94860038
:100030000C9486000C9486000C9486000C94860028
:100040000C9416030C9486000C94E4020C94BE02EB
:100050000C9486000C9486000C9486000C94860008
:100060000C9486000C948600000000080002010039
:100070000003040700000000000000000000000072
:10008000240027002A0001020408102040800102F9
:1000900004081020010204081020000000002500C0
:1000A00028002B00040404040404040402020202D5
:1000B000020203030303030302009E0611241FBE72
:1000C000CFEFD8E0DEBFCDBF11E0A0E0B1E0E4E5C6
:1000D000FEE002C005900D92A631B107D9F721E0EC
:1000E000A6E1B1E001C01D92AD3CB207E1F710E01E
:1000F000CEE5D0E004C02197FE010E942207CD3555
:10010000D107C9F70E9460030C9428070C940000E3
:100110009091000189130DC0E8EBF0E0E4919FEFAE
:1001200090930001E13009F431C068F1E23009F444
:1001300033C090E0FC01E859FF4F2491FC01EA57DD
:10014000FF4F3491FC01EC55FF4FE491EE23D1F0C9
:10015000222351F0233009F43AC078F5213009F414
:100160003CC0223009F43DC0F0E0EE0FFF1FE65620
:10017000FF4FA591B4918FB7F894EC9130953E2341
:100180003C938FBF089510926E00D3CF90916F0073
:100190009D7F90936F00CDCF909170009D7F909345
:1001A000700091E09093B0009091B100987F9460BE
:1001B0009093B1001092B300BCCF2730A9F0283043
:1001C000C9F0243089F6809180008F7D03C0809132
:1001D00080008F7780938000C7CF84B58F7784BDF0
:1001E000C3CF84B58F7DFBCF8091B0008F77809394
:1001F000B000BACF8091B0008F7DF9CFAF92BF929F
:10020000CF92DF92EF92FF920F931F93CF93DF93E2
:100210006C017B018B01040F151FEB015E01AE1811
:10022000BF08C017D10759F06991D601ED91FC9133
:100230000190F081E02DC6010995892B79F7C50160
:10024000DF91CF911F910F91FF90EF90DF90CF90B2
:10025000BF90AF900895FC01538D448D252F30E061
:10026000842F90E0821B930B541710F0CF960895C3
:1002700001970895FC01918D828D981761F0A28DF0
:10028000AE0FBF2FB11D5D968C91928D9F5F9F73B6
:10029000928F90E008958FEF9FEF0895FC01918D6C
:1002A000828D981731F0828DE80FF11D858D90E0D9
:1002B00008958FEF9FEF0895FC01918D228D892F76
:1002C00090E0805C9F4F821B91098F73992708955E
:1002D00080E391E00E945C0121E0892B09F420E099
:1002E000822F089580E090E0892B29F00E94680118
:1002F00081110C9400000895FC01A48DA80FB92F62
:10030000B11DA35ABF4F2C91848D90E001968F733D
:100310009927848FA689B7892C93A089B1898C915C
:10032000837080648C93938D848D981306C00288AB
:10033000F389E02D80818F7D80830895EF92FF9275
:100340000F931F93CF93DF93EC0181E0888F9B8DF8
:100350008C8D98131AC0E889F989808185FF15C0B2
:100360009FB7F894EE89FF896083E889F9898081D5
:100370008370806480839FBF81E090E0DF91CF91A4
:100380001F910F91FF90EF900895F62E0B8D10E0C6
:100390000F5F1F4F0F731127E02E8C8D8E110CC035
:1003A0000FB607FCFACFE889F989808185FFF5CF80
:1003B000CE010E947C01F1CFEB8DEC0FFD2FF11DE2
:1003C000E35AFF4FF0829FB7F8940B8FEA89FB89BD
:1003D00080818062CFCFCF93DF93EC01888D88231B
:1003E000B9F0AA89BB89E889F9898C9185FD03C098
:1003F000808186FD0DC00FB607FCF7CF8C9185FF7D
:10040000F2CF808185FFEDCFCE010E947C01E9CF44
:10041000DF91CF9108953FB7F89480911B0190919F
:100420001C01A0911D01B0911E0126B5A89B05C01D
:100430002F3F19F00196A11DB11D3FBFBA2FA92F63
:10044000982F8827BC01CD01620F711D811D911D60
:1004500042E0660F771F881F991F4A95D1F70895CC
:100460008F929F92AF92BF92CF92DF92EF92FF92C4
:100470004B015C010E940B026B017C010E940B028C
:100480006C197D098E099F09683E734081059105AD
:10049000A8F321E0821A9108A108B10888EEC80EDD
:1004A00083E0D81EE11CF11C81149104A104B10465
:1004B00029F7FF90EF90DF90CF90BF90AF909F9083
:1004C0008F9008951F920F920FB60F9211242F93C1
:1004D0003F934F935F936F937F938F939F93AF93CC
:1004E000BF93EF93FF938091240190912501A091F8
:1004F0002601B0912701892B8A2B8B2BD1F190916A
:100500001F01E0912001F0912101808189278083E2
:100510008091240190912501A0912601B09127019D
:10052000181619061A061B069CF480912401909156
:100530002501A0912601B09127010197A109B109D8
:100540008093240190932501A0932601B093270165
:10055000FF91EF91BF91AF919F918F917F916F919B
:100560005F914F913F912F910F900FBE0F901F9071
:100570001895809100010E948800EACF1F920F9287
:100580000FB60F9211242F933F934F935F936F9366
:100590007F938F939F93AF93BF93EF93FF9380E3EA
:1005A00091E00E947C01FF91EF91BF91AF919F91EB
:1005B0008F917F916F915F914F913F912F910F900C
:1005C0000FBE0F901F9018951F920F920FB60F92AB
:1005D00011242F938F939F93EF93FF93E09140010A
:1005E000F09141018081E0914601F091470182FD47
:1005F0001BC09081809149018F5F8F7320914A01C8
:10060000821741F0E0914901F0E0E05DFE4F958FE7
:1006100080934901FF91EF919F918F912F910F90BE
:100620000FBE0F901F9018958081F4CF1F920F92EC
:100630000FB60F9211242F933F938F939F93AF93F5
:10064000BF938091170190911801A0911901B09169
:100650001A013091160123E0230F2D3758F501962A
:10066000A11DB11D209316018093170190931801CD
:10067000A0931901B0931A0180911B0190911C0164
:10068000A0911D01B0911E010196A11DB11D809385
:100690001B0190931C01A0931D01B0931E01BF91FB
:1006A000AF919F918F913F912F910F900FBE0F901F
:1006B0001F90189526E8230F0296A11DB11DD2CFD9
:1006C000CF93DF93CDB7DEB7A5970FB6F894DEBF13
:1006D0000FBECDBF789484B5826084BD84B581603F
:1006E00084BD85B5826085BD85B5816085BD8091FD
:1006F0006E00816080936E00109281008091810075
:10070000826080938100809181008160809381006C
:10071000809180008160809380008091B10084602E
:100720008093B1008091B00081608093B00080918F
:100730007A00846080937A0080917A00826080934E
:100740007A0080917A00816080937A0080917A00AB
:10075000806880937A001092C100E4E9F0E024916F
:10076000E2EBF0E084918823C9F090E0880F991FB4
:10077000FC01E458FF4F45915491FC01E656FF4FB0
:10078000A591B4919FB7F894FA01808120958223B6
:1007900080838C91E22FE823EC939FBFE09140018E
:1007A000F091410182E08083E0913C01F0913D01B4
:1007B0001082E0913E01F0913F018FEC8083109216
:1007C0004801E0914401F091450186E08083E09189
:1007D0004201F0914301808180618083E091420178
:1007E000F0914301808188608083E0914201F09123
:1007F0004301808180688083E0914201F091430150
:1008000080818F7D8083BCEA2B2EB0E03B2E08E0F8
:1008100080E480937C0080917A00806480937A00E9
:1008200080917A0086FDFCCF80917800A0917900BC
:10083000BA2FA82F2CE637E00E941B0728EE33E0E2
:1008400040E050E00E94CB06DA01C9018C599F4F6D
:10085000AF4FBF4F8AA39BA3ACA3BDA36C01990F5D
:10086000EE08FF08F7FE5DC06DE280E391E00E94B4
:100870009E0122273327A9012C193D094E095F0942
:1008800019A2DE0191967D01CA01B9012AE030E08A
:1008900040E050E00E94EA06605DF70162937F014C
:1008A000211531054105510579F7309761F0019027
:1008B0000020E9F73197AF014E195F09B70180E3D6
:1008C00091E00E94FE0042E050E063E171E080E3CD
:1008D00091E00E94FE0080910001883009F03DC047
:1008E000E8EBF0E0149117FF83C06AEF70E080E05E
:1008F00090E00E94300288E00E94880064E670E088
:1009000080E090E00E94300280E090E0892B09F4C2
:100910007FCF0E946801882309F475CF0E940000F0
:1009200072CFA701960119A2CE0181967C01CA015E
:10093000B9012AE030E040E050E00E94EA06605D44
:10094000D7016E937D01211531054105510579F7D8
:10095000109709F4B8CFFD01AACF8F3F31F600936D
:100960000001E8EBF0E014911F3F09F4BECF113015
:1009700009F4F7C028F1123009F0B5CF1092B00099
:100980001092B1008091B00082608093B00080919D
:10099000B10081608093B100F1018491E82FF0E013
:1009A000EE0FFF1FE656FF4F859194919093210122
:1009B00080932001EEE8F0E0849180931F0118C03D
:1009C00014BC15BC84B5826084BD85B5816085BDCD
:1009D000F1018491E82FF0E0EE0FFF1FE656FF4F84
:1009E00085919491EEE8F0E084918093230110E0EA
:1009F000EEE8F0E02491F1018491882399F090E0F1
:100A0000880F991FFC01E458FF4FA591B491FC0198
:100A1000E656FF4F859194918FB7F8949C91292BBE
:100A20002C938FBF8AA09BA0ACA0BDA0AA24BB24FE
:100A300060E072E18AE790E0A50194010E94CB0694
:100A400029013A017A016901F1E0CF1AD108E108E0
:100A5000F108812F8D7F09F018C18FEFC816D104DE
:100A6000E104F10409F00CF4E3C060E472E48FE007
:100A700090E0A50194010E94CB0669017A0191E002
:100A8000C91AD108E108F108123009F088C082E0E3
:100A9000AFEFCA16D104E104F10409F00CF447C128
:100AA00060E970ED83E090E0A50194010E94CB061F
:100AB00069017A01B1E0CB1AD108E108F10883E0BD
:100AC000EFEFCE16D104E104F10409F00CF42FC1CC
:100AD00068E478EE81E090E0A50194010E94CB06E5
:100AE00069017A01A1E0CA1AD108E108F10884E09D
:100AF000BFEFCB16D104E104F10409F00CF417C1E7
:100B000064E274EF80E090E0A50194010E94CB06BE
:100B100069017A0191E0C91AD108E108F10885E07C
:100B20009FEFC916D104E104F10409F008F4FFC0F5
:100B300062E17AE780E090E0A50194010E94CB0693
:100B400069017A01F1E0CF1AD108E108F1088FEFCD
:100B5000C816D104E104F10411F008F0D9C086E010
:100B6000E6C0109280001092810080918100886020
:100B70008093810080918100816080938100F101E8
:100B80008491E82FF0E0EE0FFF1FE656FF4F8591AE
:100B90009491EEE8F0E084918093220129CFFFEF59
:100BA000CF16D104E104F10409F00CF46CC068E440
:100BB00078EE81E090E0A50194010E94CB066901E6
:100BC0007A0181E0C81AD108E108F10884E0111126
:100BD000A7CF83E0EFEFCE16D104E104F10459F181
:100BE00054F162E17AE780E090E0A50194010E946F
:100BF000CB0669017A01A1E0CA1AD108E108F1081F
:100C000084E0BFEFCB16D104E104F104A1F098F029
:100C1000730162018AE0F594E794D794C7948A95AA
:100C2000D1F791E0C91AD108E108F10885E003C0C5
:100C300081E011117CC095B5987F892B85BD2AA1D3
:100C40003BA1220F331FA8ECB0E00E940C0728EE56
:100C500033E040E050E00E94EA061130B9F1123072
:100C600009F446C0111141CEC7BC20932C0130932A
:100C70002D0140932E0150932F0180916E008260D0
:100C800080936E0032CE82E0D4CF91E0C114D104C3
:100C9000E1E0EE06F10484F068E478EE81E090E0B3
:100CA000A50194010E94CB0669017A01F1E0CF1AF7
:100CB000D108E108F10893E0113009F0C0CF80912C
:100CC0008100887F892B80938100B9CFD0928900E1
:100CD000C0928800209328013093290140932A0173
:100CE00050932B0180916F00826080936F00FDCD47
:100CF000C092B30020932401309325014093260134
:100D00005093270180917000826080937000EDCD38
:100D1000730162019AE0F594E794D794C7949A9589
:100D2000D1F781E0C81AD108E108F10887E0909175
:100D3000B100987F892B8093B10081CFE0E3F1E08F
:100D40001382128288EE93E0A0E0B0E08483958362
:100D5000A683B78385E091E09183808385EC90E062
:100D60009587848784EC90E09787868780EC90E075
:100D7000918B808B81EC90E0938B828B82EC90E066
:100D8000958B848B86EC90E0978B868B118E128EE0
:100D9000138E148E0895052E97FB1EF400940E9466
:100DA000E20657FD07D00E94EA0607FC03D04EF486
:100DB0000C94E20650954095309521953F4F4F4F4A
:100DC0005F4F089590958095709561957F4F8F4FF7
:100DD0009F4F0895A1E21A2EAA1BBB1BFD010DC057
:100DE000AA1FBB1FEE1FFF1FA217B307E407F507DB
:100DF00020F0A21BB30BE40BF50B661F771F881FB7
:100E0000991F1A9469F760957095809590959B014C
:100E1000AC01BD01CF010895A29FB001B39FC001F5
:100E2000A39F700D811D1124911DB29F700D811D16
:100E30001124911D08950E940C07B7FF0895821B8D
:100E4000930B0895EE0FFF1F0590F491E02D099488
:040E5000F894FFCF44
:100E5400FF000000009E01FE002B01EB015C013A43
:060E6400014E010D0A0021
:107E0000112484B714BE81FFF0D085E080938100F7
:107E100082E08093C00088E18093C10086E0809377
:107E2000C20080E18093C4008EE0C9D0259A86E02C
:107E300020E33CEF91E0309385002093840096BBD3
:107E4000B09BFECF1D9AA8958150A9F7CC24DD24C4
:107E500088248394B5E0AB2EA1E19A2EF3E0BF2EE7
:107E6000A2D0813461F49FD0082FAFD0023811F036
:107E7000013811F484E001C083E08DD089C08234E0
:107E800011F484E103C0853419F485E0A6D080C0E4
:107E9000853579F488D0E82EFF2485D0082F10E0AE
:107EA000102F00270E291F29000F111F8ED06801E7
:107EB0006FC0863521F484E090D080E0DECF843638
:107EC00009F040C070D06FD0082F6DD080E0C81688
:107ED00080E7D80618F4F601B7BEE895C0E0D1E017
:107EE00062D089930C17E1F7F0E0CF16F0E7DF06D8
:107EF00018F0F601B7BEE89568D007B600FCFDCFD4
:107F0000A601A0E0B1E02C9130E011968C91119780
:107F100090E0982F8827822B932B1296FA010C0160
:107F200087BEE89511244E5F5F4FF1E0A038BF0790
:107F300051F7F601A7BEE89507B600FCFDCF97BE46
:107F4000E89526C08437B1F42ED02DD0F82E2BD052
:107F50003CD0F601EF2C8F010F5F1F4F84911BD097
:107F6000EA94F801C1F70894C11CD11CFA94CF0C13
:107F7000D11C0EC0853739F428D08EE10CD085E9AC
:107F80000AD08FE07ACF813511F488E018D01DD067
:107F900080E101D065CF982F8091C00085FFFCCF94
:107FA0009093C60008958091C00087FFFCCF809118
:107FB000C00084FD01C0A8958091C6000895E0E648
:107FC000F0E098E1908380830895EDDF803219F02E
:107FD00088E0F5DFFFCF84E1DECF1F93182FE3DFCA
:107FE0001150E9F7F2DF1F91089580E0E8DFEE27F6
:047FF000FF270994CA
:027FFE00040479
:0400000300007E007B
:00000001FF
