:100000000C945E000C9486000C9486000C94860080
:100010000C9486000C9486000C9486000C94860048
:100020000C9486000C9486000C9486000C94860038
:100030000C9486000C9486000C9486000C94860028
:100040000C9440030C9486000C9424060C946706D0
:100050000C9486000C9486000C9486000C94860008
:100060000C9486000C94860000000007000201003A
:100070000003040600000000000000000102040864
:100080001020408001020408102001020408102002
:10009000040404040404040402020202020203032E
:1000A0000303030300000000250028002B000000CC
:1000B0000000240027002A00F500260711241FBE97
:1000C000CFEFD8E0DEBFCDBF11E0A0E0B1E0E8EABD
:1000D000FFE002C005900D92A231B107D9F722E0EE
:1000E000A2E1B1E001C01D92AD31B207E1F710E02D
:1000F000CEE5D0E004C02197FE010E94BD07CC35BB
:10010000D107C9F70E942D040C94D2070C9400006B
:1001100040E060E070E082E191E00E94670148E029
:1001200050E060E070E082E191E00E948C0160E0CC
:1001300070E082E191E00E949E0140E855E260E0BB
:1001400070E083E791E00C94A206AF92BF92CF9249
:10015000DF92EF92FF920F931F93CF93DF938EE086
:100160000E941004EC014AE050E0BC0183E791E0FA
:100170000E947805BE01DD0F880B990B1F921F921C
:100180001F9227E02F93A12CB12C650118EEE12ED0
:1001900013E0F12E00E010E020E030E0A9010E9421
:1001A0003A046B017C0160E070E082E191E00E9422
:1001B0009E012FEFA60160E070E082E191E00E94D5
:1001C00056020F900F900F900F9064E170E080E066
:1001D00090E0DF91CF911F910F91FF90EF90DF9012
:1001E000CF90BF90AF900C94AF030F931F9301E09B
:1001F00010E029E030E04AE050E06BE070E082E19E
:1002000091E00E94D2011F910F9108958F929F92C9
:10021000AF92BF92CF92DF92EF92FF920F931F9314
:10022000CF93DF9300D0CDB7DEB78C0149832A830B
:10023000660F771FF801EA5AFF4FE080F180EE0C5D
:10024000FF1CF801CF01801B910B8E159F0514F444
:100250001192F8CF8981F801E60FF71F81838A8117
:100260008083680184E5C80ED11C60E0F6018081BE
:100270000E9411034801F2E58F0E911C580180E5A0
:10028000A80EB11C1E141F047CF4E1E0EE1AF10864
:10029000F801EE0DFF1D208141E0F4016081F501C0
:1002A00080810E947302EECF61E0F60180810F90A1
:1002B0000F90DF91CF911F910F91FF90EF90DF9002
:1002C000CF90BF90AF909F908F900C94110377FDCB
:1002D00010C0FC01EA5AFF4F208131816217730779
:1002E00044F4442311F020E001C021E04CE00C94E0
:1002F0000601089577FD0FC0FC01EA5AFF4F2081E7
:100300003181621773073CF44830510520F4242FE3
:100310004BE00C940601089577FD0FC0FC01EA5AEA
:10032000FF4F20813181621773073CF44031510542
:1003300020F4242F4AE00C9406010895DF92EF92F6
:10034000FF920F931F93CF93DF9377FD23C0FC01A0
:10035000EA5AFF4F2081318162177307DCF4EB0109
:100360007C018B0183E0000F111F8A95E1F7005F8C
:100370001F4F0E0D1F1DDD24D394F80111928F0124
:1003800020E04D2DBE01C7010E940601D394F9E083
:10039000DF12F3CFDF91CF911F910F91FF90EF907C
:1003A000DF9008956F927F928F929F92AF92BF924B
:1003B000CF92DF92EF92FF920F931F93CF93DF9331
:1003C000EC01D62EC72E7C0180E5E80EF11CF7016A
:1003D000608371833E01F2E56F0E711CF30151835E
:1003E00040834E01F4E58F0E911CF401318320838C
:1003F000C8010197089710F008E010E05E01F6E5EB
:10040000AF0EB11CF5011183008361E08D2D0E94B8
:10041000D50261E0F30180810E94D50261E0F40120
:1004200080810E94D50261E0F40180810E94110365
:10043000F701D082C182FE0170961192EE15FF0580
:10044000E1F700E010E0F5018081918108171907BC
:10045000F4F420E04FE0B801CE010E94060147E02D
:1004600050E0B801CE010E947A0120E049E0B801D5
:10047000CE010E940601B801CE010E949E0141E01A
:10048000B801CE010E9467010F5F1F4FDCCFDF91E3
:10049000CF911F910F91FF90EF90DF90CF90BF9081
:1004A000AF909F908F907F906F90089577FD1AC0C6
:1004B000FC01EA5AFF4F0190F081E02D6E177F0793
:1004C0008CF44830510570F4FB0133E0EE0FFF1F50
:1004D0003A95E1F7E80FF91FE40FF51F208B4F5F06
:1004E0000C9406010895BF92CF92DF92EF92FF9293
:1004F0000F931F93CF93DF93C82ED62EB42EC7E051
:10050000D0E0022F10E087E0E82EF12CB11005C0FA
:10051000C7018C1B9D0BB80102C0B8018C2F02C013
:10052000759567958A95E2F761708C2D0E9411038D
:1005300061E08D2D0E94110360E08D2D0E9411035A
:10054000219720F7DF91CF911F910F91FF90EF90AE
:10055000DF90CF90BF900895833081F028F48130F0
:1005600099F08230A1F008958630A9F08730B9F073
:100570008430D1F4809180008F7D03C08091800011
:100580008F7780938000089584B58F7702C084B5FB
:100590008F7D84BD08958091B0008F7703C08091D6
:1005A000B0008F7D8093B0000895CF93DF9390E0EB
:1005B000FC01E458FF4F2491FC01E057FF4F849168
:1005C000882361F190E0880F991FFC01E255FF4FED
:1005D000C591D491FC01EC55FF4FA591B4916111E7
:1005E00009C09FB7F8948881209582238883EC9175
:1005F0002E230BC0623061F49FB7F8948881322FAC
:10060000309583238883EC912E2B2C939FBF06C0BB
:100610008FB7F894E8812E2B28838FBFDF91CF917D
:1006200008951F93CF93DF93282F30E0F901E85905
:10063000FF4F8491F901E458FF4FD491F901E0573D
:10064000FF4FC491CC23C1F0162F81110E94AC0240
:10065000EC2FF0E0EE0FFF1FEC55FF4FA591B4918A
:100660009FB7F894111104C08C91D095D82302C083
:10067000EC91DE2BDC939FBFDF91CF911F9108950A
:100680001F920F920FB60F9211242F933F938F93C7
:100690009F93AF93BF9380916B0190916C01A09158
:1006A0006D01B0916E0130916A0123E0230F2D3767
:1006B00020F40196A11DB11D05C026E8230F029666
:1006C000A11DB11D20936A0180936B0190936C0171
:1006D000A0936D01B0936E0180916F0190917001B4
:1006E000A0917101B09172010196A11DB11D80937D
:1006F0006F0190937001A0937101B0937201BF914B
:10070000AF919F918F913F912F910F900FBE0F90BE
:100710001F9018953FB7F89480916F0190917001E8
:10072000A0917101B091720126B5A89B05C02F3F21
:1007300019F00196A11DB11D3FBFBA2FA92F982F07
:100740008827820F911DA11DB11DBC01CD0142E082
:10075000660F771F881F991F4A95D1F70895CF928A
:10076000DF92EF92FF92CF93DF936B017C010E94A7
:100770008A03EB01C114D104E104F10479F00E9471
:100780008A036C1B7D0B683E7340A0F381E0C81A9E
:10079000D108E108F108C851DC4FECCFDF91CF91CF
:1007A000FF90EF90DF90CF900895789484B58260A9
:1007B00084BD84B5816084BD85B5826085BD85B505
:1007C000816085BDEEE6F0E0808181608083E1E8B4
:1007D000F0E01082808182608083808181608083EC
:1007E000E0E8F0E0808181608083E1EBF0E08081EF
:1007F00084608083E0EBF0E0808181608083EAE7C1
:10080000F0E0808184608083808182608083808149
:10081000816080838081806880831092C100089508
:100820008E3008F08E502091000190E4299F9001B5
:1008300011248770822B80937C0080917A008064E1
:1008400080937A0080917A0086FDFCCF80917800B9
:100850002091790090E0922B08950E94D5030E9488
:100860008800CEE5D6E00E94A5002097E1F30E9423
:100870005E06F9CF4F925F926F927F92AF92BF92D6
:10088000CF92DF92EF92FF920F931F93CF93DF935C
:10089000CDB7DEB729013A019B01AC012419350916
:1008A0004609570989899A89AB89BC89BC01CD0160
:1008B0006A197B098C099D090E946107A8019701AB
:1008C00024193509460957090E949307CA01B9013D
:1008D0006A0D7B1D8C1D9D1DDF91CF911F910F9186
:1008E000FF90EF90DF90CF90BF90AF907F906F9090
:1008F0005F904F900895CF92DF92EF92FF920F9307
:100900001F93CF93DF936C01EB017B01E40EF51E87
:1009100000E010E0CE15DF0561F06991D601ED91A0
:10092000FC910190F081E02DC6010995080F191F77
:10093000F1CFC801DF91CF911F910F91FF90EF9000
:10094000DF90CF9008956115710579F0FB0101905A
:100950000020E9F73197AF01461B570BDC01ED9101
:10096000FC910280F381E02D099480E090E00895ED
:10097000DC01ED91FC910190F081E02D09940F9341
:100980001F93CF93DF93EC016DE00E94B8048C01BC
:100990006AE0CE010E94B804800F911FDF91CF91D1
:1009A0001F910F9108958F929F92AF92BF92CF9215
:1009B000DF92EF92FF920F931F93CF93DF93CDB708
:1009C000DEB7A1970FB6F894DEBF0FBECDBF6C01A6
:1009D000142FE52FCB01022F19A2223008F40AE0D0
:1009E0007E0121E2E20EF11C802E912CA12CB12C73
:1009F000612F7E2FA50194010E947107029F10199B
:100A0000112481E0E81AF1081A3014F4105D01C0D5
:100A1000195CF7011083122FE32FCA01232B242B1B
:100A2000252B31F7B701C6010E94A304A1960FB68A
:100A3000F894DEBF0FBECDBFDF91CF911F910F9114
:100A4000FF90EF90DF90CF90BF90AF909F908F90EE
:100A50000895CF92DF92EF92FF920F931F93CF935F
:100A6000DF932115310581F4DC01ED91FC910190BA
:100A7000F081E02D642FDF91CF911F910F91FF90B6
:100A8000EF90DF90CF9009942A30310501F577FF80
:100A90001DC06A017B01EC016DE20E94B8048C016B
:100AA00044275527BA014C195D096E097F092AE0D0
:100AB000CE010E94D304800F911FDF91CF911F912F
:100AC0000F91FF90EF90DF90CF9008952AE0DF9193
:100AD000CF911F910F91FF90EF90DF90CF900C94EA
:100AE000D3049A01AB01770F660B770B0C942905A1
:100AF0000F931F93CF93DF93EC010E9471058C013C
:100B0000CE010E94BF04800F911FDF91CF911F91F2
:100B10000F910895FC0124853585F901E05CFF4FB4
:100B200080819181329620813181821B930B8F735A
:100B300099270895DC011C96ED91FC911D97DF012A
:100B4000A05CBF4F2D913C91119712968D919C9175
:100B500011972817390739F08D919C91E80FF91FEB
:100B6000808190E008958FEF9FEF0895FC01A485A8
:100B7000B585FD01E05CFF4F208131813296808197
:100B800091812817390779F080819181A80FB91FC9
:100B90008C91208131812F5F3F4F2F733327318319
:100BA000208390E008958FEF9FEF0895FC0181A1CD
:100BB000882329F0A489B5898C9186FFFBCF11A2E7
:100BC00008950F931F93CF93DF93FC01A685B785FC
:100BD0008D01005C1F4FE8018881998101968F7318
:100BE0009927AD014E5B5F4FEA01288139812817B3
:100BF0003907D1F3E80128813981A20FB31F6C9323
:100C0000A685B785A05CBF4F11969C938E93A6894D
:100C1000B7892C9181E090E0078C02C0880F991F62
:100C20000A94E2F7822B8C9381E081A30488F589F2
:100C3000E02D80818064808381E090E0DF91CF911E
:100C40001F910F91089508951F920F920FB60F9262
:100C500011242F934F935F938F939F93EF93FF9361
:100C60008091C00082FD1CC02091C60080911902B5
:100C700090911A0240911B0250911C0201968F73B1
:100C800099274817590771F0E0911902F0911A025B
:100C9000E752FE4F208390931A028093190202C0FC
:100CA0008091C600FF91EF919F918F915F914F913D
:100CB0002F910F900FBE0F901F90189583E791E032
:100CC0000E948A05892B11F00C94230608951F9227
:100CD0000F920FB60F9211242F933F938F939F93F0
:100CE000EF93FF932091D5013091D6018091D701E8
:100CF0009091D8012817390731F48091C1008F7D78
:100D00008093C10014C0E091D701F091D801EB5657
:100D1000FE4F20818091D7019091D80101968F7369
:100D200099279093D8018093D7012093C600FF9113
:100D3000EF919F918F913F912F910F900FBE0F9048
:100D40001F901895CF92DF92EF92FF92CF93DF938F
:100D5000EC016A017B014115514E6105710509F1F4
:100D6000EC89FD8981E090E008A002C0880F991FFE
:100D70000A94E2F7808360E079E08DE390E0A701D8
:100D800096010E947107DA01C9010197A109B10911
:100D9000B695A795979587959C01211580E1380711
:100DA000A8F0EC89FD89108260E874E88EE190E09B
:100DB000A70196010E947107DA01C9010197A109F3
:100DC000B109B695A795979587959C01E889F9890A
:100DD0003083EA89FB89208319A2EE89FF8940814B
:100DE00081E090E09C010C8C02C0220F331F0A941A
:100DF000E2F7242B2083EE89FF8940819C010D8C32
:100E000002C0220F331F0A94E2F7242B2083EE89BD
:100E1000FF8940819C010E8C02C0220F331F0A946F
:100E2000E2F7242B2083EE89FF8920810F8C02C0FA
:100E3000880F991F0A94E2F7809582238083DF91BF
:100E4000CF91FF90EF90DF90CF900895E3E7F1E02E
:100E50001382128288EE93E0A0E0B0E08483958351
:100E6000A683B78385E091E09183808389ED91E04B
:100E70009587848785E991E09787868785EC90E060
:100E8000918B808B84EC90E0938B828B80EC90E054
:100E9000958B848B81EC90E0978B868B82EC90E035
:100EA000918F808F86EC90E0938F828F84E0848F87
:100EB00083E0858F87E0868F85E0878F81E080A340
:100EC0000895DB018F939F930E94B207BF91AF916A
:100ED000A29F800D911DA39F900DB29F900D112494
:100EE0000895A1E21A2EAA1BBB1BFD010DC0AA1F6B
:100EF000BB1FEE1FFF1FA217B307E407F50720F083
:100F0000A21BB30BE40BF50B661F771F881F991FFD
:100F10001A9469F760957095809590959B01AC0146
:100F2000BD01CF010895052E97FB1EF400940E9489
:100F3000AA0757FD07D00E94710707FC03D04EF4A3
:100F40000C94AA0750954095309521953F4F4F4FEF
:100F50005F4F089590958095709561957F4F8F4F65
:100F60009F4F08950E94C307A59F900DB49F900DB9
:100F7000A49F800D911D11240895EE0FFF1F059071
:100F8000F491E02D0994A29FB001B39FC001A39FEB
:100F9000700D811D1124911DB29F700D811D1124B2
:080FA000911D0895F894FFCFA4
:100FA8000100000000E1057B048A05B6059A05D614
:020FB800050032
:00000001FF
